{
  "_format": "hh-sol-artifact-1",
  "contractName": "Rebates",
  "sourceName": "contracts/core/Rebates.sol",
  "abi": [
    {
      "anonymous": false,
      "inputs": [
        {
          "indexed": true,
          "internalType": "address",
          "name": "token",
          "type": "address"
        },
        {
          "indexed": true,
          "internalType": "address",
          "name": "user",
          "type": "address"
        },
        {
          "indexed": true,
          "internalType": "address",
          "name": "receiver",
          "type": "address"
        },
        {
          "indexed": false,
          "internalType": "uint256",
          "name": "amount",
          "type": "uint256"
        }
      ],
      "name": "ClaimRebate",
      "type": "event"
    },
    {
      "anonymous": false,
      "inputs": [
        {
          "indexed": true,
          "internalType": "address",
          "name": "previousOwner",
          "type": "address"
        },
        {
          "indexed": true,
          "internalType": "address",
          "name": "newOwner",
          "type": "address"
        }
      ],
      "name": "OwnershipTransferred",
      "type": "event"
    },
    {
      "anonymous": false,
      "inputs": [
        {
          "indexed": true,
          "internalType": "address",
          "name": "receiver",
          "type": "address"
        },
        {
          "indexed": true,
          "internalType": "address",
          "name": "token",
          "type": "address"
        },
        {
          "indexed": false,
          "internalType": "uint256",
          "name": "amount",
          "type": "uint256"
        }
      ],
      "name": "Rebate",
      "type": "event"
    },
    {
      "anonymous": false,
      "inputs": [
        {
          "indexed": true,
          "internalType": "address",
          "name": "rebater",
          "type": "address"
        },
        {
          "indexed": false,
          "internalType": "bool",
          "name": "canRebate",
          "type": "bool"
        }
      ],
      "name": "SetCanRebate",
      "type": "event"
    },
    {
      "anonymous": false,
      "inputs": [
        {
          "indexed": true,
          "internalType": "bytes32",
          "name": "action",
          "type": "bytes32"
        },
        {
          "indexed": true,
          "internalType": "address",
          "name": "handler",
          "type": "address"
        }
      ],
      "name": "SetRebateHandler",
      "type": "event"
    },
    {
      "inputs": [],
      "name": "NO_HANDLER",
      "outputs": [
        {
          "internalType": "address",
          "name": "",
          "type": "address"
        }
      ],
      "stateMutability": "view",
      "type": "function"
    },
    {
      "inputs": [
        {
          "internalType": "address",
          "name": "",
          "type": "address"
        }
      ],
      "name": "canInitiateRebate",
      "outputs": [
        {
          "internalType": "bool",
          "name": "",
          "type": "bool"
        }
      ],
      "stateMutability": "view",
      "type": "function"
    },
    {
      "inputs": [
        {
          "internalType": "address",
          "name": "token",
          "type": "address"
        }
      ],
      "name": "claim",
      "outputs": [],
      "stateMutability": "nonpayable",
      "type": "function"
    },
    {
      "inputs": [
        {
          "internalType": "address",
          "name": "token",
          "type": "address"
        },
        {
          "internalType": "address",
          "name": "receiver",
          "type": "address"
        }
      ],
      "name": "claimFor",
      "outputs": [],
      "stateMutability": "nonpayable",
      "type": "function"
    },
    {
      "inputs": [
        {
          "internalType": "bytes32",
          "name": "action",
          "type": "bytes32"
        },
        {
          "internalType": "bytes",
          "name": "params",
          "type": "bytes"
        }
      ],
      "name": "initiateRebate",
      "outputs": [],
      "stateMutability": "nonpayable",
      "type": "function"
    },
    {
      "inputs": [],
      "name": "owner",
      "outputs": [
        {
          "internalType": "address",
          "name": "",
          "type": "address"
        }
      ],
      "stateMutability": "view",
      "type": "function"
    },
    {
      "inputs": [
        {
          "internalType": "address",
          "name": "token",
          "type": "address"
        },
        {
          "internalType": "uint256",
          "name": "amount",
          "type": "uint256"
        }
      ],
      "name": "ownerWithdraw",
      "outputs": [],
      "stateMutability": "nonpayable",
      "type": "function"
    },
    {
      "inputs": [
        {
          "internalType": "bytes32",
          "name": "",
          "type": "bytes32"
        }
      ],
      "name": "rebateHandler",
      "outputs": [
        {
          "internalType": "address",
          "name": "",
          "type": "address"
        }
      ],
      "stateMutability": "view",
      "type": "function"
    },
    {
      "inputs": [
        {
          "internalType": "address",
          "name": "rebateReceiver",
          "type": "address"
        },
        {
          "internalType": "address",
          "name": "token",
          "type": "address"
        },
        {
          "internalType": "uint256",
          "name": "amount",
          "type": "uint256"
        },
        {
          "internalType": "bytes32",
          "name": "action",
          "type": "bytes32"
        }
      ],
      "name": "registerRebate",
      "outputs": [],
      "stateMutability": "nonpayable",
      "type": "function"
    },
    {
      "inputs": [],
      "name": "renounceOwnership",
      "outputs": [],
      "stateMutability": "nonpayable",
      "type": "function"
    },
    {
      "inputs": [
        {
          "internalType": "address",
          "name": "rebater",
          "type": "address"
        },
        {
          "internalType": "bool",
          "name": "_canRebate",
          "type": "bool"
        }
      ],
      "name": "setCanInitiateRebate",
      "outputs": [],
      "stateMutability": "nonpayable",
      "type": "function"
    },
    {
      "inputs": [
        {
          "internalType": "bytes32",
          "name": "action",
          "type": "bytes32"
        },
        {
          "internalType": "address",
          "name": "handler",
          "type": "address"
        }
      ],
      "name": "setRebateHandler",
      "outputs": [],
      "stateMutability": "nonpayable",
      "type": "function"
    },
    {
      "inputs": [
        {
          "internalType": "address",
          "name": "newOwner",
          "type": "address"
        }
      ],
      "name": "transferOwnership",
      "outputs": [],
      "stateMutability": "nonpayable",
      "type": "function"
    },
    {
      "inputs": [
        {
          "internalType": "address",
          "name": "",
          "type": "address"
        },
        {
          "internalType": "address",
          "name": "",
          "type": "address"
        }
      ],
      "name": "userTokenRebates",
      "outputs": [
        {
          "internalType": "uint256",
          "name": "",
          "type": "uint256"
        }
      ],
      "stateMutability": "view",
      "type": "function"
    }
  ],
  "bytecode": "0x608060405234801561001057600080fd5b5061001a3361001f565b61006f565b600080546001600160a01b038381166001600160a01b0319831681178455604051919092169283917f8be0079c531659141344cd1fd0a4f28419497f9722a3daafe3b4186f6b6457e09190a35050565b610e788061007e6000396000f3fe608060405234801561001057600080fd5b50600436106100ea5760003560e01c80638bd392661161008c578063a065872b11610066578063a065872b146101fa578063b4ba9e1114610223578063d9c88e1414610236578063f2fde38b1461024957600080fd5b80638bd39266146101a35780638da5cb5b146101b65780638e73739f146101c757600080fd5b806357df9987116100c857806357df99871461015557806368377e4514610168578063715018a61461017b5780637de7bb5e1461018357600080fd5b8063039e7f4a146100ef5780631ba44dca146101045780631e83409a14610142575b600080fd5b6101026100fd366004610cdd565b61025c565b005b61012f610112366004610bae565b600360209081526000928352604080842090915290825290205481565b6040519081526020015b60405180910390f35b610102610150366004610b93565b61034c565b610102610163366004610c23565b610359565b610102610176366004610cba565b61042f565b6101026104fa565b61018b600081565b6040516001600160a01b039091168152602001610139565b6101026101b1366004610be1565b61050e565b6000546001600160a01b031661018b565b6101ea6101d5366004610b93565b60016020526000908152604090205460ff1681565b6040519015158152602001610139565b61018b610208366004610ca1565b6002602052600090815260409020546001600160a01b031681565b610102610231366004610bae565b610658565b610102610244366004610c5a565b610757565b610102610257366004610b93565b6107c7565b3360009081526001602052604090205460ff166102c05760405162461bcd60e51b815260206004820152601c60248201527f526562617465733a20556e617574686f72697a65642063616c6c65720000000060448201526064015b60405180910390fd5b6000838152600260205260409020546001600160a01b0316806102e35750505050565b604051632909312160e11b81526001600160a01b0382169063521262429061031390879087908790600401610d75565b600060405180830381600087803b15801561032d57600080fd5b505af1158015610341573d6000803e3d6000fd5b50505050505b505050565b6103568133610658565b50565b61036161083d565b6001600160a01b03821660009081526001602052604090205460ff16151581151514156103d05760405162461bcd60e51b815260206004820152601a60248201527f526562617465733a20537461746520616c72656164792073657400000000000060448201526064016102b7565b6001600160a01b038216600081815260016020908152604091829020805460ff191685151590811790915591519182527f7e7645a31f6070f9590f51e99c9af5d5d1088b3ad54a33bae48162cfcbc8aa5d910160405180910390a25050565b61043761083d565b6000828152600260205260409020546001600160a01b03828116911614156104a15760405162461bcd60e51b815260206004820152601a60248201527f526562617465733a20537461746520616c72656164792073657400000000000060448201526064016102b7565b60008281526002602052604080822080546001600160a01b0319166001600160a01b0385169081179091559051909184917f7846042ec4d5aa5bb58993f3213523f07404c0304cdf64f4be6277511b35d44c9190a35050565b61050261083d565b61050c6000610897565b565b60008181526002602052604090205481906001600160a01b031633146105765760405162461bcd60e51b815260206004820152601c60248201527f526562617465733a20556e617574686f72697a65642063616c6c65720000000060448201526064016102b7565b600083116105c65760405162461bcd60e51b815260206004820152601e60248201527f526562617465733a20416d6f756e742063616e6e6f74206265207a65726f000060448201526064016102b7565b6001600160a01b038086166000908152600360209081526040808320938816835292905290812080548592906105fd908490610dde565b92505081905550836001600160a01b0316856001600160a01b03167f4f4d457bf0fbc947781e25bc1108086180912bf77ca60c8ed7888d31045515e38560405161064991815260200190565b60405180910390a35050505050565b3360009081526003602090815260408083206001600160a01b0386168452909152902054806106c95760405162461bcd60e51b815260206004820152601a60248201527f526562617465733a2063616e6e6f7420636c61696d207a65726f00000000000060448201526064016102b7565b3360009081526003602090815260408083206001600160a01b03871680855292528220919091556106fb9083836108e7565b816001600160a01b0316336001600160a01b0316846001600160a01b03167fed8618bc513217b7cba3253a5da41df56ff92641ea9273972194d9d960163e868460405161074a91815260200190565b60405180910390a4505050565b61075f61083d565b600081116107af5760405162461bcd60e51b815260206004820152601d60248201527f526562617465733a2063616e6e6f74207769746864726177207a65726f00000060448201526064016102b7565b6107c36001600160a01b03831633836108e7565b5050565b6107cf61083d565b6001600160a01b0381166108345760405162461bcd60e51b815260206004820152602660248201527f4f776e61626c653a206e6577206f776e657220697320746865207a65726f206160448201526564647265737360d01b60648201526084016102b7565b61035681610897565b6000546001600160a01b0316331461050c5760405162461bcd60e51b815260206004820181905260248201527f4f776e61626c653a2063616c6c6572206973206e6f7420746865206f776e657260448201526064016102b7565b600080546001600160a01b038381166001600160a01b0319831681178455604051919092169283917f8be0079c531659141344cd1fd0a4f28419497f9722a3daafe3b4186f6b6457e09190a35050565b604080516001600160a01b03848116602483015260448083018590528351808403909101815260649092018352602080830180516001600160e01b031663a9059cbb60e01b17905283518085019094528084527f5361666545524332303a206c6f772d6c6576656c2063616c6c206661696c656490840152610347928692916000916109779185169084906109f4565b80519091501561034757808060200190518101906109959190610c84565b6103475760405162461bcd60e51b815260206004820152602a60248201527f5361666545524332303a204552433230206f7065726174696f6e20646964206e6044820152691bdd081cdd58d8d9595960b21b60648201526084016102b7565b6060610a038484600085610a0d565b90505b9392505050565b606082471015610a6e5760405162461bcd60e51b815260206004820152602660248201527f416464726573733a20696e73756666696369656e742062616c616e636520666f6044820152651c8818d85b1b60d21b60648201526084016102b7565b6001600160a01b0385163b610ac55760405162461bcd60e51b815260206004820152601d60248201527f416464726573733a2063616c6c20746f206e6f6e2d636f6e747261637400000060448201526064016102b7565b600080866001600160a01b03168587604051610ae19190610d59565b60006040518083038185875af1925050503d8060008114610b1e576040519150601f19603f3d011682016040523d82523d6000602084013e610b23565b606091505b5091509150610b33828286610b3e565b979650505050505050565b60608315610b4d575081610a06565b825115610b5d5782518084602001fd5b8160405162461bcd60e51b81526004016102b79190610dab565b80356001600160a01b0381168114610b8e57600080fd5b919050565b600060208284031215610ba557600080fd5b610a0682610b77565b60008060408385031215610bc157600080fd5b610bca83610b77565b9150610bd860208401610b77565b90509250929050565b60008060008060808587031215610bf757600080fd5b610c0085610b77565b9350610c0e60208601610b77565b93969395505050506040820135916060013590565b60008060408385031215610c3657600080fd5b610c3f83610b77565b91506020830135610c4f81610e34565b809150509250929050565b60008060408385031215610c6d57600080fd5b610c7683610b77565b946020939093013593505050565b600060208284031215610c9657600080fd5b8151610a0681610e34565b600060208284031215610cb357600080fd5b5035919050565b60008060408385031215610ccd57600080fd5b82359150610bd860208401610b77565b600080600060408486031215610cf257600080fd5b83359250602084013567ffffffffffffffff80821115610d1157600080fd5b818601915086601f830112610d2557600080fd5b813581811115610d3457600080fd5b876020828501011115610d4657600080fd5b6020830194508093505050509250925092565b60008251610d6b818460208701610e04565b9190910192915050565b83815260406020820152816040820152818360608301376000818301606090810191909152601f909201601f1916010192915050565b6020815260008251806020840152610dca816040850160208701610e04565b601f01601f19169190910160400192915050565b60008219821115610dff57634e487b7160e01b600052601160045260246000fd5b500190565b60005b83811015610e1f578181015183820152602001610e07565b83811115610e2e576000848401525b50505050565b801515811461035657600080fdfea264697066735822122066ffe39ea4629141f781ed91781b9af341dd2239dad40b9d3e9129a49070a2ef64736f6c63430008070033",
  "linkReferences": {},
  "deployedLinkReferences": {}
}