{
  "_format": "hh-sol-artifact-1",
  "contractName": "WETH",
  "sourceName": "contracts/tokens/WETH.sol",
  "abi": [
    {
      "inputs": [
        {
          "internalType": "string",
          "name": "name",
          "type": "string"
        },
        {
          "internalType": "string",
          "name": "symbol",
          "type": "string"
        },
        {
          "internalType": "uint8",
          "name": "decimals",
          "type": "uint8"
        }
      ],
      "stateMutability": "nonpayable",
      "type": "constructor"
    },
    {
      "anonymous": false,
      "inputs": [
        {
          "indexed": true,
          "internalType": "address",
          "name": "owner",
          "type": "address"
        },
        {
          "indexed": true,
          "internalType": "address",
          "name": "spender",
          "type": "address"
        },
        {
          "indexed": false,
          "internalType": "uint256",
          "name": "value",
          "type": "uint256"
        }
      ],
      "name": "Approval",
      "type": "event"
    },
    {
      "anonymous": false,
      "inputs": [
        {
          "indexed": true,
          "internalType": "address",
          "name": "from",
          "type": "address"
        },
        {
          "indexed": true,
          "internalType": "address",
          "name": "to",
          "type": "address"
        },
        {
          "indexed": false,
          "internalType": "uint256",
          "name": "value",
          "type": "uint256"
        }
      ],
      "name": "Transfer",
      "type": "event"
    },
    {
      "inputs": [
        {
          "internalType": "address",
          "name": "owner",
          "type": "address"
        },
        {
          "internalType": "address",
          "name": "spender",
          "type": "address"
        }
      ],
      "name": "allowance",
      "outputs": [
        {
          "internalType": "uint256",
          "name": "",
          "type": "uint256"
        }
      ],
      "stateMutability": "view",
      "type": "function"
    },
    {
      "inputs": [
        {
          "internalType": "address",
          "name": "spender",
          "type": "address"
        },
        {
          "internalType": "uint256",
          "name": "amount",
          "type": "uint256"
        }
      ],
      "name": "approve",
      "outputs": [
        {
          "internalType": "bool",
          "name": "",
          "type": "bool"
        }
      ],
      "stateMutability": "nonpayable",
      "type": "function"
    },
    {
      "inputs": [
        {
          "internalType": "address",
          "name": "account",
          "type": "address"
        }
      ],
      "name": "balanceOf",
      "outputs": [
        {
          "internalType": "uint256",
          "name": "",
          "type": "uint256"
        }
      ],
      "stateMutability": "view",
      "type": "function"
    },
    {
      "inputs": [],
      "name": "decimals",
      "outputs": [
        {
          "internalType": "uint8",
          "name": "",
          "type": "uint8"
        }
      ],
      "stateMutability": "view",
      "type": "function"
    },
    {
      "inputs": [
        {
          "internalType": "address",
          "name": "spender",
          "type": "address"
        },
        {
          "internalType": "uint256",
          "name": "subtractedValue",
          "type": "uint256"
        }
      ],
      "name": "decreaseAllowance",
      "outputs": [
        {
          "internalType": "bool",
          "name": "",
          "type": "bool"
        }
      ],
      "stateMutability": "nonpayable",
      "type": "function"
    },
    {
      "inputs": [],
      "name": "deposit",
      "outputs": [],
      "stateMutability": "payable",
      "type": "function"
    },
    {
      "inputs": [
        {
          "internalType": "address",
          "name": "spender",
          "type": "address"
        },
        {
          "internalType": "uint256",
          "name": "addedValue",
          "type": "uint256"
        }
      ],
      "name": "increaseAllowance",
      "outputs": [
        {
          "internalType": "bool",
          "name": "",
          "type": "bool"
        }
      ],
      "stateMutability": "nonpayable",
      "type": "function"
    },
    {
      "inputs": [],
      "name": "name",
      "outputs": [
        {
          "internalType": "string",
          "name": "",
          "type": "string"
        }
      ],
      "stateMutability": "view",
      "type": "function"
    },
    {
      "inputs": [],
      "name": "symbol",
      "outputs": [
        {
          "internalType": "string",
          "name": "",
          "type": "string"
        }
      ],
      "stateMutability": "view",
      "type": "function"
    },
    {
      "inputs": [],
      "name": "totalSupply",
      "outputs": [
        {
          "internalType": "uint256",
          "name": "",
          "type": "uint256"
        }
      ],
      "stateMutability": "view",
      "type": "function"
    },
    {
      "inputs": [
        {
          "internalType": "address",
          "name": "recipient",
          "type": "address"
        },
        {
          "internalType": "uint256",
          "name": "amount",
          "type": "uint256"
        }
      ],
      "name": "transfer",
      "outputs": [
        {
          "internalType": "bool",
          "name": "",
          "type": "bool"
        }
      ],
      "stateMutability": "nonpayable",
      "type": "function"
    },
    {
      "inputs": [
        {
          "internalType": "address",
          "name": "sender",
          "type": "address"
        },
        {
          "internalType": "address",
          "name": "recipient",
          "type": "address"
        },
        {
          "internalType": "uint256",
          "name": "amount",
          "type": "uint256"
        }
      ],
      "name": "transferFrom",
      "outputs": [
        {
          "internalType": "bool",
          "name": "",
          "type": "bool"
        }
      ],
      "stateMutability": "nonpayable",
      "type": "function"
    },
    {
      "inputs": [
        {
          "internalType": "uint256",
          "name": "amount",
          "type": "uint256"
        }
      ],
      "name": "withdraw",
      "outputs": [],
      "stateMutability": "nonpayable",
      "type": "function"
    }
  ],
  "bytecode": "0x60806040523480156200001157600080fd5b5060405162000e4b38038062000e4b833981810160405260608110156200003757600080fd5b81019080805160405193929190846401000000008211156200005857600080fd5b9083019060208201858111156200006e57600080fd5b82516401000000008111828201881017156200008957600080fd5b82525081516020918201929091019080838360005b83811015620000b85781810151838201526020016200009e565b50505050905090810190601f168015620000e65780820380516001836020036101000a031916815260200191505b50604052602001805160405193929190846401000000008211156200010a57600080fd5b9083019060208201858111156200012057600080fd5b82516401000000008111828201881017156200013b57600080fd5b82525081516020918201929091019080838360005b838110156200016a57818101518382015260200162000150565b50505050905090810190601f168015620001985780820380516001836020036101000a031916815260200191505b506040526020908101518551909350620001b99250600191860190620001ed565b508151620001cf906002906020850190620001ed565b506003805460ff191660ff9290921691909117905550620002899050565b828054600181600116156101000203166002900490600052602060002090601f016020900481019282601f106200023057805160ff191683800117855562000260565b8280016001018555821562000260579182015b828111156200026057825182559160200191906001019062000243565b506200026e92915062000272565b5090565b5b808211156200026e576000815560010162000273565b610bb280620002996000396000f3fe6080604052600436106100c25760003560e01c8063395093511161007f578063a457c2d711610059578063a457c2d7146102e0578063a9059cbb14610319578063d0e30db014610352578063dd62ed3e1461035a576100c2565b8063395093511461025f57806370a082311461029857806395d89b41146102cb576100c2565b806306fdde03146100c7578063095ea7b31461015157806318160ddd1461019e57806323b872dd146101c55780632e1a7d4d14610208578063313ce56714610234575b600080fd5b3480156100d357600080fd5b506100dc610395565b6040805160208082528351818301528351919283929083019185019080838360005b838110156101165781810151838201526020016100fe565b50505050905090810190601f1680156101435780820380516001836020036101000a031916815260200191505b509250505060405180910390f35b34801561015d57600080fd5b5061018a6004803603604081101561017457600080fd5b506001600160a01b03813516906020013561042a565b604080519115158252519081900360200190f35b3480156101aa57600080fd5b506101b3610447565b60408051918252519081900360200190f35b3480156101d157600080fd5b5061018a600480360360608110156101e857600080fd5b506001600160a01b0381358116916020810135909116906040013561044d565b34801561021457600080fd5b506102326004803603602081101561022b57600080fd5b50356104d4565b005b34801561024057600080fd5b5061024961054c565b6040805160ff9092168252519081900360200190f35b34801561026b57600080fd5b5061018a6004803603604081101561028257600080fd5b506001600160a01b038135169060200135610555565b3480156102a457600080fd5b506101b3600480360360208110156102bb57600080fd5b50356001600160a01b03166105a3565b3480156102d757600080fd5b506100dc6105be565b3480156102ec57600080fd5b5061018a6004803603604081101561030357600080fd5b506001600160a01b03813516906020013561061c565b34801561032557600080fd5b5061018a6004803603604081101561033c57600080fd5b506001600160a01b038135169060200135610684565b610232610698565b34801561036657600080fd5b506101b36004803603604081101561037d57600080fd5b506001600160a01b03813581169160200135166106c4565b60018054604080516020601f600260001961010087891615020190951694909404938401819004810282018101909252828152606093909290918301828280156104205780601f106103f557610100808354040283529160200191610420565b820191906000526020600020905b81548152906001019060200180831161040357829003601f168201915b5050505050905090565b600061043e6104376106ef565b84846106f3565b50600192915050565b60005490565b600061045a8484846107df565b6104ca846104666106ef565b6104c585604051806060016040528060288152602001610ae7602891396001600160a01b038a166000908152600560205260408120906104a46106ef565b6001600160a01b03168152602081019190915260400160002054919061093c565b6106f3565b5060019392505050565b336000908152600460205260409020548111156104f057600080fd5b3360009081526004602052604090205461050a90826109d3565b33600081815260046020526040808220939093559151909183156108fc02918491818181858888f19350505050158015610548573d6000803e3d6000fd5b5050565b60035460ff1690565b600061043e6105626106ef565b846104c585600560006105736106ef565b6001600160a01b03908116825260208083019390935260409182016000908120918c168152925290205490610a1c565b6001600160a01b031660009081526004602052604090205490565b60028054604080516020601f60001961010060018716150201909416859004938401819004810282018101909252828152606093909290918301828280156104205780601f106103f557610100808354040283529160200191610420565b600061043e6106296106ef565b846104c585604051806060016040528060258152602001610b5860259139600560006106536106ef565b6001600160a01b03908116825260208083019390935260409182016000908120918d1681529252902054919061093c565b600061043e6106916106ef565b84846107df565b336000908152600460205260409020546106b29034610a1c565b33600090815260046020526040902055565b6001600160a01b03918216600090815260056020908152604080832093909416825291909152205490565b3390565b6001600160a01b0383166107385760405162461bcd60e51b8152600401808060200182810382526024815260200180610b346024913960400191505060405180910390fd5b6001600160a01b03821661077d5760405162461bcd60e51b8152600401808060200182810382526022815260200180610a9f6022913960400191505060405180910390fd5b6001600160a01b03808416600081815260056020908152604080832094871680845294825291829020859055815185815291517f8c5be1e5ebec7d5bd14f71427d1e84f3dd0314c0f7b2291e5b200ac8c7c3b9259281900390910190a3505050565b6001600160a01b0383166108245760405162461bcd60e51b8152600401808060200182810382526025815260200180610b0f6025913960400191505060405180910390fd5b6001600160a01b0382166108695760405162461bcd60e51b8152600401808060200182810382526023815260200180610a7c6023913960400191505060405180910390fd5b610874838383610a76565b6108b181604051806060016040528060268152602001610ac1602691396001600160a01b038616600090815260046020526040902054919061093c565b6001600160a01b0380851660009081526004602052604080822093909355908416815220546108e09082610a1c565b6001600160a01b0380841660008181526004602090815260409182902094909455805185815290519193928716927fddf252ad1be2c89b69c2b068fc378daa952ba7f163c4a11628f55a4df523b3ef92918290030190a3505050565b600081848411156109cb5760405162461bcd60e51b81526004018080602001828103825283818151815260200191508051906020019080838360005b83811015610990578181015183820152602001610978565b50505050905090810190601f1680156109bd5780820380516001836020036101000a031916815260200191505b509250505060405180910390fd5b505050900390565b6000610a1583836040518060400160405280601e81526020017f536166654d6174683a207375627472616374696f6e206f766572666c6f77000081525061093c565b9392505050565b600082820183811015610a15576040805162461bcd60e51b815260206004820152601b60248201527f536166654d6174683a206164646974696f6e206f766572666c6f770000000000604482015290519081900360640190fd5b50505056fe45524332303a207472616e7366657220746f20746865207a65726f206164647265737345524332303a20617070726f766520746f20746865207a65726f206164647265737345524332303a207472616e7366657220616d6f756e7420657863656564732062616c616e636545524332303a207472616e7366657220616d6f756e74206578636565647320616c6c6f77616e636545524332303a207472616e736665722066726f6d20746865207a65726f206164647265737345524332303a20617070726f76652066726f6d20746865207a65726f206164647265737345524332303a2064656372656173656420616c6c6f77616e63652062656c6f77207a65726fa2646970667358221220d2afea93fed8bf6a416840f3dac124b00a773f8f62511dd782f871369151131164736f6c634300060c0033",
  "linkReferences": {},
  "deployedLinkReferences": {}
}