{
  "_format": "hh-sol-artifact-1",
  "contractName": "HlpManagerRouter",
  "sourceName": "contracts/core/HlpManagerRouter.sol",
  "abi": [
    {
      "inputs": [
        {
          "internalType": "address",
          "name": "_weth",
          "type": "address"
        },
        {
          "internalType": "address",
          "name": "_hlpManager",
          "type": "address"
        }
      ],
      "stateMutability": "nonpayable",
      "type": "constructor"
    },
    {
      "inputs": [
        {
          "internalType": "uint256",
          "name": "_minUsdg",
          "type": "uint256"
        },
        {
          "internalType": "uint256",
          "name": "_minGlp",
          "type": "uint256"
        }
      ],
      "name": "addLiquidityETH",
      "outputs": [
        {
          "internalType": "uint256",
          "name": "",
          "type": "uint256"
        }
      ],
      "stateMutability": "payable",
      "type": "function"
    },
    {
      "inputs": [],
      "name": "hlpManager",
      "outputs": [
        {
          "internalType": "address",
          "name": "",
          "type": "address"
        }
      ],
      "stateMutability": "view",
      "type": "function"
    },
    {
      "inputs": [
        {
          "internalType": "uint256",
          "name": "_glpAmount",
          "type": "uint256"
        },
        {
          "internalType": "uint256",
          "name": "_minOut",
          "type": "uint256"
        },
        {
          "internalType": "address payable",
          "name": "_receiver",
          "type": "address"
        }
      ],
      "name": "removeLiquidityETH",
      "outputs": [
        {
          "internalType": "uint256",
          "name": "",
          "type": "uint256"
        }
      ],
      "stateMutability": "nonpayable",
      "type": "function"
    },
    {
      "inputs": [],
      "name": "weth",
      "outputs": [
        {
          "internalType": "address",
          "name": "",
          "type": "address"
        }
      ],
      "stateMutability": "view",
      "type": "function"
    },
    {
      "stateMutability": "payable",
      "type": "receive"
    }
  ],
  "bytecode": "0x608060405234801561001057600080fd5b5060405161064a38038061064a8339818101604052604081101561003357600080fd5b5080516020918201516001600081815581546001600160a01b038086166001600160a01b0319928316179384905560028054828716931692909217918290556040805163095ea7b360e01b815292821660048401526000196024840152519596949593169363095ea7b39360448084019492939192918390030190829087803b1580156100bf57600080fd5b505af11580156100d3573d6000803e3d6000fd5b505050506040513d60208110156100e957600080fd5b5050505061054e806100fc6000396000f3fe6080604052600436106100435760003560e01c8063124e61c6146100a75780633fc8cef3146100f85780638ffc80a114610129578063b77a8d591461014c576100a2565b366100a2576001546001600160a01b031633146100a0576040805162461bcd60e51b81526020600482015260166024820152752937baba32b91d1034b73b30b634b21039b2b73232b960511b604482015290519081900360640190fd5b005b600080fd5b3480156100b357600080fd5b506100e6600480360360608110156100ca57600080fd5b50803590602081013590604001356001600160a01b0316610161565b60408051918252519081900360200190f35b34801561010457600080fd5b5061010d610271565b604080516001600160a01b039092168252519081900360200190f35b6100e66004803603604081101561013f57600080fd5b5080359060200135610280565b34801561015857600080fd5b5061010d610397565b6000600260005414156101bb576040805162461bcd60e51b815260206004820152601f60248201527f5265656e7472616e637947756172643a207265656e7472616e742063616c6c00604482015290519081900360640190fd5b600260008181559054600154604080516371d597ad60e01b81523360048201526001600160a01b0392831660248201526044810189905260648101889052306084820152905191909216916371d597ad9160a480830192602092919082900301818787803b15801561022c57600080fd5b505af1158015610240573d6000803e3d6000fd5b505050506040513d602081101561025657600080fd5b5051905061026481846103a6565b6001600055949350505050565b6001546001600160a01b031681565b6000600260005414156102da576040805162461bcd60e51b815260206004820152601f60248201527f5265656e7472616e637947756172643a207265656e7472616e742063616c6c00604482015290519081900360640190fd5b600260005534156102ed576102ed6104ad565b600254600154604080516317eb2a1560e01b81523060048201523360248201526001600160a01b0392831660448201523460648201526084810187905260a48101869052905191909216916317eb2a159160c48083019260209291908290030181600087803b15801561035f57600080fd5b505af1158015610373573d6000803e3d6000fd5b505050506040513d602081101561038957600080fd5b505160016000559392505050565b6002546001600160a01b031681565b60015460408051632e1a7d4d60e01b81526004810185905290516001600160a01b0390921691632e1a7d4d9160248082019260009290919082900301818387803b1580156103f357600080fd5b505af1158015610407573d6000803e3d6000fd5b5050604051600092506001600160a01b038416915084908381818185875af1925050503d8060008114610456576040519150601f19603f3d011682016040523d82523d6000602084013e61045b565b606091505b50509050806104a8576040805162461bcd60e51b81526020600482015260146024820152732330b4b632b2103a379039b2b7321022ba3432b960611b604482015290519081900360640190fd5b505050565b600160009054906101000a90046001600160a01b03166001600160a01b031663d0e30db0346040518263ffffffff1660e01b81526004016000604051808303818588803b1580156104fd57600080fd5b505af1158015610511573d6000803e3d6000fd5b505050505056fea2646970667358221220a5957d7218ad89d77815f8b331e6e809cb6dda657cd7434a92387f7c93788d6564736f6c634300060c0033",
  "linkReferences": {},
  "deployedLinkReferences": {}
}