{
  "_format": "hh-sol-artifact-1",
  "contractName": "Router",
  "sourceName": "contracts/core/Router.sol",
  "abi": [
    {
      "inputs": [
        {
          "internalType": "address",
          "name": "_vault",
          "type": "address"
        },
        {
          "internalType": "address",
          "name": "_usdg",
          "type": "address"
        },
        {
          "internalType": "address",
          "name": "_weth",
          "type": "address"
        },
        {
          "internalType": "address",
          "name": "_referral",
          "type": "address"
        }
      ],
      "stateMutability": "nonpayable",
      "type": "constructor"
    },
    {
      "anonymous": false,
      "inputs": [
        {
          "indexed": false,
          "internalType": "address",
          "name": "account",
          "type": "address"
        },
        {
          "indexed": false,
          "internalType": "address",
          "name": "tokenIn",
          "type": "address"
        },
        {
          "indexed": false,
          "internalType": "address",
          "name": "tokenOut",
          "type": "address"
        },
        {
          "indexed": false,
          "internalType": "uint256",
          "name": "amountIn",
          "type": "uint256"
        },
        {
          "indexed": false,
          "internalType": "uint256",
          "name": "amountOut",
          "type": "uint256"
        }
      ],
      "name": "Swap",
      "type": "event"
    },
    {
      "inputs": [
        {
          "internalType": "address",
          "name": "_plugin",
          "type": "address"
        }
      ],
      "name": "addPlugin",
      "outputs": [],
      "stateMutability": "nonpayable",
      "type": "function"
    },
    {
      "inputs": [
        {
          "internalType": "address",
          "name": "_plugin",
          "type": "address"
        }
      ],
      "name": "approvePlugin",
      "outputs": [],
      "stateMutability": "nonpayable",
      "type": "function"
    },
    {
      "inputs": [
        {
          "internalType": "address",
          "name": "",
          "type": "address"
        },
        {
          "internalType": "address",
          "name": "",
          "type": "address"
        }
      ],
      "name": "approvedPlugins",
      "outputs": [
        {
          "internalType": "bool",
          "name": "",
          "type": "bool"
        }
      ],
      "stateMutability": "view",
      "type": "function"
    },
    {
      "inputs": [
        {
          "internalType": "address",
          "name": "_collateralToken",
          "type": "address"
        },
        {
          "internalType": "address",
          "name": "_indexToken",
          "type": "address"
        },
        {
          "internalType": "uint256",
          "name": "_collateralDelta",
          "type": "uint256"
        },
        {
          "internalType": "uint256",
          "name": "_sizeDelta",
          "type": "uint256"
        },
        {
          "internalType": "bool",
          "name": "_isLong",
          "type": "bool"
        },
        {
          "internalType": "address",
          "name": "_receiver",
          "type": "address"
        },
        {
          "internalType": "uint256",
          "name": "_price",
          "type": "uint256"
        },
        {
          "internalType": "bytes",
          "name": "signedQuoteData",
          "type": "bytes"
        }
      ],
      "name": "decreasePosition",
      "outputs": [],
      "stateMutability": "nonpayable",
      "type": "function"
    },
    {
      "inputs": [
        {
          "internalType": "address[]",
          "name": "_path",
          "type": "address[]"
        },
        {
          "internalType": "address",
          "name": "_indexToken",
          "type": "address"
        },
        {
          "internalType": "uint256",
          "name": "_collateralDelta",
          "type": "uint256"
        },
        {
          "internalType": "uint256",
          "name": "_sizeDelta",
          "type": "uint256"
        },
        {
          "internalType": "bool",
          "name": "_isLong",
          "type": "bool"
        },
        {
          "internalType": "address",
          "name": "_receiver",
          "type": "address"
        },
        {
          "internalType": "uint256",
          "name": "_price",
          "type": "uint256"
        },
        {
          "internalType": "uint256",
          "name": "_minOut",
          "type": "uint256"
        },
        {
          "internalType": "bytes",
          "name": "signedQuoteData",
          "type": "bytes"
        }
      ],
      "name": "decreasePositionAndSwap",
      "outputs": [],
      "stateMutability": "nonpayable",
      "type": "function"
    },
    {
      "inputs": [
        {
          "internalType": "address[]",
          "name": "_path",
          "type": "address[]"
        },
        {
          "internalType": "address",
          "name": "_indexToken",
          "type": "address"
        },
        {
          "internalType": "uint256",
          "name": "_collateralDelta",
          "type": "uint256"
        },
        {
          "internalType": "uint256",
          "name": "_sizeDelta",
          "type": "uint256"
        },
        {
          "internalType": "bool",
          "name": "_isLong",
          "type": "bool"
        },
        {
          "internalType": "address payable",
          "name": "_receiver",
          "type": "address"
        },
        {
          "internalType": "uint256",
          "name": "_price",
          "type": "uint256"
        },
        {
          "internalType": "uint256",
          "name": "_minOut",
          "type": "uint256"
        },
        {
          "internalType": "bytes",
          "name": "signedQuoteData",
          "type": "bytes"
        }
      ],
      "name": "decreasePositionAndSwapETH",
      "outputs": [],
      "stateMutability": "nonpayable",
      "type": "function"
    },
    {
      "inputs": [
        {
          "internalType": "address",
          "name": "_collateralToken",
          "type": "address"
        },
        {
          "internalType": "address",
          "name": "_indexToken",
          "type": "address"
        },
        {
          "internalType": "uint256",
          "name": "_collateralDelta",
          "type": "uint256"
        },
        {
          "internalType": "uint256",
          "name": "_sizeDelta",
          "type": "uint256"
        },
        {
          "internalType": "bool",
          "name": "_isLong",
          "type": "bool"
        },
        {
          "internalType": "address payable",
          "name": "_receiver",
          "type": "address"
        },
        {
          "internalType": "uint256",
          "name": "_price",
          "type": "uint256"
        },
        {
          "internalType": "bytes",
          "name": "signedQuoteData",
          "type": "bytes"
        }
      ],
      "name": "decreasePositionETH",
      "outputs": [],
      "stateMutability": "nonpayable",
      "type": "function"
    },
    {
      "inputs": [
        {
          "internalType": "address",
          "name": "_plugin",
          "type": "address"
        }
      ],
      "name": "denyPlugin",
      "outputs": [],
      "stateMutability": "nonpayable",
      "type": "function"
    },
    {
      "inputs": [
        {
          "internalType": "address",
          "name": "_token",
          "type": "address"
        },
        {
          "internalType": "uint256",
          "name": "_amount",
          "type": "uint256"
        }
      ],
      "name": "directPoolDeposit",
      "outputs": [],
      "stateMutability": "nonpayable",
      "type": "function"
    },
    {
      "inputs": [],
      "name": "gov",
      "outputs": [
        {
          "internalType": "address",
          "name": "",
          "type": "address"
        }
      ],
      "stateMutability": "view",
      "type": "function"
    },
    {
      "inputs": [
        {
          "internalType": "address[]",
          "name": "_path",
          "type": "address[]"
        },
        {
          "internalType": "address",
          "name": "_indexToken",
          "type": "address"
        },
        {
          "internalType": "uint256",
          "name": "_amountIn",
          "type": "uint256"
        },
        {
          "internalType": "uint256",
          "name": "_minOut",
          "type": "uint256"
        },
        {
          "internalType": "uint256",
          "name": "_sizeDelta",
          "type": "uint256"
        },
        {
          "internalType": "bool",
          "name": "_isLong",
          "type": "bool"
        },
        {
          "internalType": "uint256",
          "name": "_price",
          "type": "uint256"
        },
        {
          "internalType": "bytes",
          "name": "signedQuoteData",
          "type": "bytes"
        }
      ],
      "name": "increasePosition",
      "outputs": [],
      "stateMutability": "nonpayable",
      "type": "function"
    },
    {
      "inputs": [
        {
          "internalType": "address[]",
          "name": "_path",
          "type": "address[]"
        },
        {
          "internalType": "address",
          "name": "_indexToken",
          "type": "address"
        },
        {
          "internalType": "uint256",
          "name": "_minOut",
          "type": "uint256"
        },
        {
          "internalType": "uint256",
          "name": "_sizeDelta",
          "type": "uint256"
        },
        {
          "internalType": "bool",
          "name": "_isLong",
          "type": "bool"
        },
        {
          "internalType": "uint256",
          "name": "_price",
          "type": "uint256"
        },
        {
          "internalType": "bytes",
          "name": "signedQuoteData",
          "type": "bytes"
        }
      ],
      "name": "increasePositionETH",
      "outputs": [],
      "stateMutability": "payable",
      "type": "function"
    },
    {
      "inputs": [
        {
          "internalType": "address[]",
          "name": "_path",
          "type": "address[]"
        },
        {
          "internalType": "address",
          "name": "_indexToken",
          "type": "address"
        },
        {
          "internalType": "uint256",
          "name": "_minOut",
          "type": "uint256"
        },
        {
          "internalType": "uint256",
          "name": "_sizeDelta",
          "type": "uint256"
        },
        {
          "internalType": "bool",
          "name": "_isLong",
          "type": "bool"
        },
        {
          "internalType": "uint256",
          "name": "_price",
          "type": "uint256"
        },
        {
          "internalType": "bytes",
          "name": "signedQuoteData",
          "type": "bytes"
        },
        {
          "internalType": "address",
          "name": "referrer",
          "type": "address"
        }
      ],
      "name": "increasePositionETHWithReferrer",
      "outputs": [],
      "stateMutability": "payable",
      "type": "function"
    },
    {
      "inputs": [
        {
          "internalType": "address[]",
          "name": "_path",
          "type": "address[]"
        },
        {
          "internalType": "address",
          "name": "_indexToken",
          "type": "address"
        },
        {
          "internalType": "uint256",
          "name": "_amountIn",
          "type": "uint256"
        },
        {
          "internalType": "uint256",
          "name": "_minOut",
          "type": "uint256"
        },
        {
          "internalType": "uint256",
          "name": "_sizeDelta",
          "type": "uint256"
        },
        {
          "internalType": "bool",
          "name": "_isLong",
          "type": "bool"
        },
        {
          "internalType": "uint256",
          "name": "_price",
          "type": "uint256"
        },
        {
          "internalType": "bytes",
          "name": "signedQuoteData",
          "type": "bytes"
        },
        {
          "internalType": "address",
          "name": "referrer",
          "type": "address"
        }
      ],
      "name": "increasePositionWithReferrer",
      "outputs": [],
      "stateMutability": "nonpayable",
      "type": "function"
    },
    {
      "inputs": [
        {
          "internalType": "address",
          "name": "_account",
          "type": "address"
        },
        {
          "internalType": "address",
          "name": "_collateralToken",
          "type": "address"
        },
        {
          "internalType": "address",
          "name": "_indexToken",
          "type": "address"
        },
        {
          "internalType": "uint256",
          "name": "_collateralDelta",
          "type": "uint256"
        },
        {
          "internalType": "uint256",
          "name": "_sizeDelta",
          "type": "uint256"
        },
        {
          "internalType": "bool",
          "name": "_isLong",
          "type": "bool"
        },
        {
          "internalType": "address",
          "name": "_receiver",
          "type": "address"
        }
      ],
      "name": "pluginDecreasePosition",
      "outputs": [
        {
          "internalType": "uint256",
          "name": "",
          "type": "uint256"
        }
      ],
      "stateMutability": "nonpayable",
      "type": "function"
    },
    {
      "inputs": [
        {
          "internalType": "address",
          "name": "_account",
          "type": "address"
        },
        {
          "internalType": "address",
          "name": "_collateralToken",
          "type": "address"
        },
        {
          "internalType": "address",
          "name": "_indexToken",
          "type": "address"
        },
        {
          "internalType": "uint256",
          "name": "_sizeDelta",
          "type": "uint256"
        },
        {
          "internalType": "bool",
          "name": "_isLong",
          "type": "bool"
        }
      ],
      "name": "pluginIncreasePosition",
      "outputs": [],
      "stateMutability": "nonpayable",
      "type": "function"
    },
    {
      "inputs": [
        {
          "internalType": "address",
          "name": "_token",
          "type": "address"
        },
        {
          "internalType": "address",
          "name": "_account",
          "type": "address"
        },
        {
          "internalType": "address",
          "name": "_receiver",
          "type": "address"
        },
        {
          "internalType": "uint256",
          "name": "_amount",
          "type": "uint256"
        }
      ],
      "name": "pluginTransfer",
      "outputs": [],
      "stateMutability": "nonpayable",
      "type": "function"
    },
    {
      "inputs": [
        {
          "internalType": "address",
          "name": "",
          "type": "address"
        }
      ],
      "name": "plugins",
      "outputs": [
        {
          "internalType": "bool",
          "name": "",
          "type": "bool"
        }
      ],
      "stateMutability": "view",
      "type": "function"
    },
    {
      "inputs": [],
      "name": "referral",
      "outputs": [
        {
          "internalType": "address",
          "name": "",
          "type": "address"
        }
      ],
      "stateMutability": "view",
      "type": "function"
    },
    {
      "inputs": [
        {
          "internalType": "address",
          "name": "_plugin",
          "type": "address"
        }
      ],
      "name": "removePlugin",
      "outputs": [],
      "stateMutability": "nonpayable",
      "type": "function"
    },
    {
      "inputs": [
        {
          "internalType": "address",
          "name": "_gov",
          "type": "address"
        }
      ],
      "name": "setGov",
      "outputs": [],
      "stateMutability": "nonpayable",
      "type": "function"
    },
    {
      "inputs": [
        {
          "internalType": "address[]",
          "name": "_path",
          "type": "address[]"
        },
        {
          "internalType": "uint256",
          "name": "_amountIn",
          "type": "uint256"
        },
        {
          "internalType": "uint256",
          "name": "_minOut",
          "type": "uint256"
        },
        {
          "internalType": "address",
          "name": "_receiver",
          "type": "address"
        },
        {
          "internalType": "bytes",
          "name": "signedQuoteData",
          "type": "bytes"
        }
      ],
      "name": "swap",
      "outputs": [],
      "stateMutability": "nonpayable",
      "type": "function"
    },
    {
      "inputs": [
        {
          "internalType": "address[]",
          "name": "_path",
          "type": "address[]"
        },
        {
          "internalType": "uint256",
          "name": "_minOut",
          "type": "uint256"
        },
        {
          "internalType": "address",
          "name": "_receiver",
          "type": "address"
        },
        {
          "internalType": "bytes",
          "name": "signedQuoteData",
          "type": "bytes"
        }
      ],
      "name": "swapETHToTokens",
      "outputs": [],
      "stateMutability": "payable",
      "type": "function"
    },
    {
      "inputs": [
        {
          "internalType": "address[]",
          "name": "_path",
          "type": "address[]"
        },
        {
          "internalType": "uint256",
          "name": "_minOut",
          "type": "uint256"
        },
        {
          "internalType": "address",
          "name": "_receiver",
          "type": "address"
        },
        {
          "internalType": "bytes",
          "name": "signedQuoteData",
          "type": "bytes"
        },
        {
          "internalType": "address",
          "name": "referrer",
          "type": "address"
        }
      ],
      "name": "swapETHToTokensWithReferrer",
      "outputs": [],
      "stateMutability": "payable",
      "type": "function"
    },
    {
      "inputs": [
        {
          "internalType": "address[]",
          "name": "_path",
          "type": "address[]"
        },
        {
          "internalType": "uint256",
          "name": "_amountIn",
          "type": "uint256"
        },
        {
          "internalType": "uint256",
          "name": "_minOut",
          "type": "uint256"
        },
        {
          "internalType": "address payable",
          "name": "_receiver",
          "type": "address"
        },
        {
          "internalType": "bytes",
          "name": "signedQuoteData",
          "type": "bytes"
        }
      ],
      "name": "swapTokensToETH",
      "outputs": [],
      "stateMutability": "nonpayable",
      "type": "function"
    },
    {
      "inputs": [
        {
          "internalType": "address[]",
          "name": "_path",
          "type": "address[]"
        },
        {
          "internalType": "uint256",
          "name": "_amountIn",
          "type": "uint256"
        },
        {
          "internalType": "uint256",
          "name": "_minOut",
          "type": "uint256"
        },
        {
          "internalType": "address payable",
          "name": "_receiver",
          "type": "address"
        },
        {
          "internalType": "bytes",
          "name": "signedQuoteData",
          "type": "bytes"
        },
        {
          "internalType": "address",
          "name": "referrer",
          "type": "address"
        }
      ],
      "name": "swapTokensToETHWithReferrer",
      "outputs": [],
      "stateMutability": "nonpayable",
      "type": "function"
    },
    {
      "inputs": [
        {
          "internalType": "address[]",
          "name": "_path",
          "type": "address[]"
        },
        {
          "internalType": "uint256",
          "name": "_amountIn",
          "type": "uint256"
        },
        {
          "internalType": "uint256",
          "name": "_minOut",
          "type": "uint256"
        },
        {
          "internalType": "address",
          "name": "_receiver",
          "type": "address"
        },
        {
          "internalType": "bytes",
          "name": "signedQuoteData",
          "type": "bytes"
        },
        {
          "internalType": "address",
          "name": "referrer",
          "type": "address"
        }
      ],
      "name": "swapWithReferrer",
      "outputs": [],
      "stateMutability": "nonpayable",
      "type": "function"
    },
    {
      "inputs": [],
      "name": "usdg",
      "outputs": [
        {
          "internalType": "address",
          "name": "",
          "type": "address"
        }
      ],
      "stateMutability": "view",
      "type": "function"
    },
    {
      "inputs": [],
      "name": "vault",
      "outputs": [
        {
          "internalType": "address",
          "name": "",
          "type": "address"
        }
      ],
      "stateMutability": "view",
      "type": "function"
    },
    {
      "inputs": [],
      "name": "weth",
      "outputs": [
        {
          "internalType": "address",
          "name": "",
          "type": "address"
        }
      ],
      "stateMutability": "view",
      "type": "function"
    },
    {
      "stateMutability": "payable",
      "type": "receive"
    }
  ],
  "bytecode": "0x60806040523480156200001157600080fd5b506040516200393c3803806200393c833981810160405260808110156200003757600080fd5b50805160208201516040830151606090930151919290916001600160a01b038416158015906200006f57506001600160a01b03831615155b80156200008457506001600160a01b03821615155b620000d6576040805162461bcd60e51b815260206004820152601860248201527f4164647265737365732063616e6e6f74206265207a65726f0000000000000000604482015290519081900360640190fd5b600380546001600160a01b039586166001600160a01b0319918216179091556002805494861694821694909417909355600180549285169284169290921790915560048054919093169082161790915560008054909116331790556137fb80620001416000396000f3fe6080604052600436106101d15760003560e01c8063877c7b8a116100f7578063cfad57a211610095578063e8d91a3a11610064578063e8d91a3a14611264578063f060febd1461131d578063f5b91b7b14611455578063fbfa77cf1461146a57610230565b8063cfad57a214610fa5578063d8867fc814610fd8578063daffc8ec1461100b578063e49b73291461114357610230565b8063980a0578116100d1578063980a057814610d07578063a4d95b6414610e27578063cccc6e0514610e5a578063cedd437514610f7257610230565b8063877c7b8a14610b5e57806390b64ad314610c93578063956f285e14610ccc57610230565b806325ecda9a1161016f578063481e17e31161013e578063481e17e3146108385780634b12e6431461093d5780634f6970d9146109845780636bb2529214610a3d57610230565b806325ecda9a146106675780632662166b1461077d57806338c74dd9146107f05780633fc8cef31461082357610230565b80631441a5a9116101ab5780631441a5a9146104aa5780631b417cc8146104bf5780631b827878146105cd5780631f1dd1761461061657610230565b80630dde87fd1461023557806310a523161461034d57806312d43a511461047957610230565b36610230576001546001600160a01b0316331461022e576040805162461bcd60e51b81526020600482015260166024820152752937baba32b91d1034b73b30b634b21039b2b73232b960511b604482015290519081900360640190fd5b005b600080fd5b34801561024157600080fd5b5061022e600480360360a081101561025857600080fd5b810190602081018135600160201b81111561027257600080fd5b82018360208201111561028457600080fd5b803590602001918460208302840111600160201b831117156102a557600080fd5b91908080602002602001604051908101604052809392919081815260200183836020028082843760009201919091525092958435956020860135956001600160a01b0360408201351695509193509150608081019060600135600160201b81111561030f57600080fd5b82018360208201111561032157600080fd5b803590602001918460018302840111600160201b8311171561034257600080fd5b50909250905061147f565b34801561035957600080fd5b5061022e600480360361010081101561037157600080fd5b810190602081018135600160201b81111561038b57600080fd5b82018360208201111561039d57600080fd5b803590602001918460208302840111600160201b831117156103be57600080fd5b91908080602002602001604051908101604052809392919081815260200183836020028082843760009201919091525092956001600160a01b0385351695602086013595604081013595506060810135945060808101351515935060a081013592919060e081019060c00135600160201b81111561043b57600080fd5b82018360208201111561044d57600080fd5b803590602001918460018302840111600160201b8311171561046e57600080fd5b509092509050611497565b34801561048557600080fd5b5061048e6114b5565b604080516001600160a01b039092168252519081900360200190f35b3480156104b657600080fd5b5061048e6114c4565b61022e600480360360a08110156104d557600080fd5b810190602081018135600160201b8111156104ef57600080fd5b82018360208201111561050157600080fd5b803590602001918460208302840111600160201b8311171561052257600080fd5b91908080602002602001604051908101604052809392919081815260200183836020028082843760009201919091525092958435956001600160a01b0360208701351695919450925060608101915060400135600160201b81111561058657600080fd5b82018360208201111561059857600080fd5b803590602001918460018302840111600160201b831117156105b957600080fd5b9193509150356001600160a01b03166114d3565b3480156105d957600080fd5b5061022e600480360360808110156105f057600080fd5b506001600160a01b0381358116916020810135821691604082013516906060013561171e565b34801561062257600080fd5b5061022e600480360360a081101561063957600080fd5b506001600160a01b038135811691602081013582169160408201351690606081013590608001351515611742565b61022e600480360360e081101561067d57600080fd5b810190602081018135600160201b81111561069757600080fd5b8201836020820111156106a957600080fd5b803590602001918460208302840111600160201b831117156106ca57600080fd5b91908080602002602001604051908101604052809392919081815260200183836020028082843760009201919091525092956001600160a01b0385351695602086013595604081013595506060810135151594506080810135935060c081019060a00135600160201b81111561073f57600080fd5b82018360208201111561075157600080fd5b803590602001918460018302840111600160201b8311171561077257600080fd5b5090925090506117cc565b34801561078957600080fd5b506107de600480360360e08110156107a057600080fd5b506001600160a01b0381358116916020810135821691604082013581169160608101359160808201359160a081013515159160c090910135166117e8565b60408051918252519081900360200190f35b3480156107fc57600080fd5b5061022e6004803603602081101561081357600080fd5b50356001600160a01b03166118a8565b34801561082f57600080fd5b5061048e6118d9565b61022e6004803603608081101561084e57600080fd5b810190602081018135600160201b81111561086857600080fd5b82018360208201111561087a57600080fd5b803590602001918460208302840111600160201b8311171561089b57600080fd5b91908080602002602001604051908101604052809392919081815260200183836020028082843760009201919091525092958435956001600160a01b0360208701351695919450925060608101915060400135600160201b8111156108ff57600080fd5b82018360208201111561091157600080fd5b803590602001918460018302840111600160201b8311171561093257600080fd5b5090925090506118e8565b34801561094957600080fd5b506109706004803603602081101561096057600080fd5b50356001600160a01b03166118fe565b604080519115158252519081900360200190f35b34801561099057600080fd5b5061022e60048036036101008110156109a857600080fd5b6001600160a01b0382358116926020810135821692604082013592606083013592608081013515159260a08201359092169160c08201359190810190610100810160e0820135600160201b8111156109ff57600080fd5b820183602082011115610a1157600080fd5b803590602001918460018302840111600160201b83111715610a3257600080fd5b509092509050611913565b348015610a4957600080fd5b5061022e600480360360c0811015610a6057600080fd5b810190602081018135600160201b811115610a7a57600080fd5b820183602082011115610a8c57600080fd5b803590602001918460208302840111600160201b83111715610aad57600080fd5b91908080602002602001604051908101604052809392919081815260200183836020028082843760009201919091525092958435956020860135956001600160a01b0360408201351695509193509150608081019060600135600160201b811115610b1757600080fd5b820183602082011115610b2957600080fd5b803590602001918460018302840111600160201b83111715610b4a57600080fd5b9193509150356001600160a01b0316611a34565b348015610b6a57600080fd5b5061022e6004803603610120811015610b8257600080fd5b810190602081018135600160201b811115610b9c57600080fd5b820183602082011115610bae57600080fd5b803590602001918460208302840111600160201b83111715610bcf57600080fd5b91908080602002602001604051908101604052809392919081815260200183836020028082843760009201919091525092956001600160a01b0385351695602086013595604081013595506060810135945060808101351515935060a081013592919060e081019060c00135600160201b811115610c4c57600080fd5b820183602082011115610c5e57600080fd5b803590602001918460018302840111600160201b83111715610c7f57600080fd5b9193509150356001600160a01b0316611c46565b348015610c9f57600080fd5b5061022e60048036036040811015610cb657600080fd5b506001600160a01b038135169060200135611e1f565b348015610cd857600080fd5b5061097060048036036040811015610cef57600080fd5b506001600160a01b0381358116916020013516611ea3565b61022e6004803603610100811015610d1e57600080fd5b810190602081018135600160201b811115610d3857600080fd5b820183602082011115610d4a57600080fd5b803590602001918460208302840111600160201b83111715610d6b57600080fd5b91908080602002602001604051908101604052809392919081815260200183836020028082843760009201919091525092956001600160a01b0385351695602086013595604081013595506060810135151594506080810135935060c081019060a00135600160201b811115610de057600080fd5b820183602082011115610df257600080fd5b803590602001918460018302840111600160201b83111715610e1357600080fd5b9193509150356001600160a01b0316611ec3565b348015610e3357600080fd5b5061022e60048036036020811015610e4a57600080fd5b50356001600160a01b03166120d2565b348015610e6657600080fd5b5061022e600480360360a0811015610e7d57600080fd5b810190602081018135600160201b811115610e9757600080fd5b820183602082011115610ea957600080fd5b803590602001918460208302840111600160201b83111715610eca57600080fd5b91908080602002602001604051908101604052809392919081815260200183836020028082843760009201919091525092958435956020860135956001600160a01b0360408201351695509193509150608081019060600135600160201b811115610f3457600080fd5b820183602082011115610f4657600080fd5b803590602001918460018302840111600160201b83111715610f6757600080fd5b509092509050612146565b348015610f7e57600080fd5b5061022e60048036036020811015610f9557600080fd5b50356001600160a01b0316612156565b348015610fb157600080fd5b5061022e60048036036020811015610fc857600080fd5b50356001600160a01b0316612184565b348015610fe457600080fd5b5061022e60048036036020811015610ffb57600080fd5b50356001600160a01b03166121f9565b34801561101757600080fd5b5061022e600480360361012081101561102f57600080fd5b810190602081018135600160201b81111561104957600080fd5b82018360208201111561105b57600080fd5b803590602001918460208302840111600160201b8311171561107c57600080fd5b91908080602002602001604051908101604052809392919081815260200183836020028082843760009201919091525092956001600160a01b038535811696602087013596604081013596506060810135151595506080810135909216935060a08201359260c08301359290919061010081019060e00135600160201b81111561110557600080fd5b82018360208201111561111757600080fd5b803590602001918460018302840111600160201b8311171561113857600080fd5b509092509050612270565b34801561114f57600080fd5b5061022e600480360360c081101561116657600080fd5b810190602081018135600160201b81111561118057600080fd5b82018360208201111561119257600080fd5b803590602001918460208302840111600160201b831117156111b357600080fd5b91908080602002602001604051908101604052809392919081815260200183836020028082843760009201919091525092958435956020860135956001600160a01b0360408201351695509193509150608081019060600135600160201b81111561121d57600080fd5b82018360208201111561122f57600080fd5b803590602001918460018302840111600160201b8311171561125057600080fd5b9193509150356001600160a01b031661246a565b34801561127057600080fd5b5061022e600480360361010081101561128857600080fd5b6001600160a01b0382358116926020810135821692604082013592606083013592608081013515159260a08201359092169160c08201359190810190610100810160e0820135600160201b8111156112df57600080fd5b8201836020820111156112f157600080fd5b803590602001918460018302840111600160201b8311171561131257600080fd5b50909250905061264b565b34801561132957600080fd5b5061022e600480360361012081101561134157600080fd5b810190602081018135600160201b81111561135b57600080fd5b82018360208201111561136d57600080fd5b803590602001918460208302840111600160201b8311171561138e57600080fd5b91908080602002602001604051908101604052809392919081815260200183836020028082843760009201919091525092956001600160a01b038535811696602087013596604081013596506060810135151595506080810135909216935060a08201359260c08301359290919061010081019060e00135600160201b81111561141757600080fd5b82018360208201111561142957600080fd5b803590602001918460018302840111600160201b8311171561144a57600080fd5b50909250905061276e565b34801561146157600080fd5b5061048e6128bd565b34801561147657600080fd5b5061048e6128cc565b61148f8686868686866000611a34565b505050505050565b6114aa8989898989898989896000611c46565b505050505050505050565b6000546001600160a01b031681565b6004546001600160a01b031681565b60015486516001600160a01b039091169087906000906114ef57fe5b60200260200101516001600160a01b03161461154a576040805162461bcd60e51b81526020600482015260156024820152740a4deeae8cae47440d2dcecc2d8d2c840bee0c2e8d605b1b604482015290519081900360640190fd5b611553816128db565b600360009054906101000a90046001600160a01b03166001600160a01b031663741bef1a6040518163ffffffff1660e01b815260040160206040518083038186803b1580156115a157600080fd5b505afa1580156115b5573d6000803e3d6000fd5b505050506040513d60208110156115cb57600080fd5b50516040516314d6fc5d60e11b8152602060048201908152602482018590526001600160a01b03909216916329adf8ba91869186918190604401848480828437600081840152601f19601f8201169050808301925050509350505050600060405180830381600087803b15801561164157600080fd5b505af1158015611655573d6000803e3d6000fd5b50505050611661612958565b60006116768787876116716129e1565b6129e5565b90507fcd3829a3813dc3cdd188fd3d01dcf3268c16be2fdd2dd21d0665418816e4606233886000815181106116a757fe5b60200260200101518960018b5103815181106116bf57fe5b6020026020010151348560405180866001600160a01b03168152602001856001600160a01b03168152602001846001600160a01b031681526020018381526020018281526020019550505050505060405180910390a150505050505050565b61172783612b2a565b61173c6001600160a01b038516848484612c02565b50505050565b61174b85612b2a565b600354604080516348d91abf60e01b81526001600160a01b03888116600483015287811660248301528681166044830152606482018690528415156084830152915191909216916348d91abf9160a480830192600092919082900301818387803b1580156117b857600080fd5b505af11580156114aa573d6000803e3d6000fd5b6117de88888888888888886000611ec3565b5050505050505050565b60006117f388612b2a565b6003546040805163082a084960e41b81526001600160a01b038b811660048301528a811660248301528981166044830152606482018990526084820188905286151560a483015285811660c4830152915191909216916382a084909160e48083019260209291908290030181600087803b15801561187057600080fd5b505af1158015611884573d6000803e3d6000fd5b505050506040513d602081101561189a57600080fd5b505198975050505050505050565b3360009081526006602090815260408083206001600160a01b0394909416835292905220805460ff19166001179055565b6001546001600160a01b031681565b6118f7858585858560006114d3565b5050505050565b60056020526000908152604090205460ff1681565b600360009054906101000a90046001600160a01b03166001600160a01b031663741bef1a6040518163ffffffff1660e01b815260040160206040518083038186803b15801561196157600080fd5b505afa158015611975573d6000803e3d6000fd5b505050506040513d602081101561198b57600080fd5b50516040516314d6fc5d60e11b8152602060048201908152602482018490526001600160a01b03909216916329adf8ba91859185918190604401848480828437600081840152601f19601f8201169050808301925050509350505050600060405180830381600087803b158015611a0157600080fd5b505af1158015611a15573d6000803e3d6000fd5b50505050611a2889898989898989612c5c565b50505050505050505050565b611a3d816128db565b600360009054906101000a90046001600160a01b03166001600160a01b031663741bef1a6040518163ffffffff1660e01b815260040160206040518083038186803b158015611a8b57600080fd5b505afa158015611a9f573d6000803e3d6000fd5b505050506040513d6020811015611ab557600080fd5b50516040516314d6fc5d60e11b8152602060048201908152602482018590526001600160a01b03909216916329adf8ba91869186918190604401848480828437600081840152601f19601f8201169050808301925050509350505050600060405180830381600087803b158015611b2b57600080fd5b505af1158015611b3f573d6000803e3d6000fd5b50505050611b8d611b4e6129e1565b60035489516001600160a01b039091169089908b90600090611b6c57fe5b60200260200101516001600160a01b0316612c02909392919063ffffffff16565b6000611b9d8887876116716129e1565b90507fcd3829a3813dc3cdd188fd3d01dcf3268c16be2fdd2dd21d0665418816e460623389600081518110611bce57fe5b60200260200101518a60018c510381518110611be657fe5b60200260200101518a8560405180866001600160a01b03168152602001856001600160a01b03168152602001846001600160a01b031681526020018381526020018281526020019550505050505060405180910390a15050505050505050565b611c4f816128db565b600360009054906101000a90046001600160a01b03166001600160a01b031663741bef1a6040518163ffffffff1660e01b815260040160206040518083038186803b158015611c9d57600080fd5b505afa158015611cb1573d6000803e3d6000fd5b505050506040513d6020811015611cc757600080fd5b50516040516314d6fc5d60e11b8152602060048201908152602482018590526001600160a01b03909216916329adf8ba91869186918190604401848480828437600081840152601f19601f8201169050808301925050509350505050600060405180830381600087803b158015611d3d57600080fd5b505af1158015611d51573d6000803e3d6000fd5b505050506000881115611d8757611d87611d696129e1565b6003548c516001600160a01b03909116908b908e90600090611b6c57fe5b60018a51118015611d985750600088115b15611dfb576000611dad8b89306116716129e1565b9050611df9600360009054906101000a90046001600160a01b0316828d60018f510381518110611dd957fe5b60200260200101516001600160a01b0316612e699092919063ffffffff16565b505b611a288a60018c510381518110611e0e57fe5b60200260200101518a888888612ec0565b611e41611e2a6129e1565b6003546001600160a01b0385811692911684612c02565b60035460408051635f7bc11960e01b81526001600160a01b03858116600483015291519190921691635f7bc11991602480830192600092919082900301818387803b158015611e8f57600080fd5b505af115801561148f573d6000803e3d6000fd5b600660209081526000928352604080842090915290825290205460ff1681565b60015489516001600160a01b03909116908a90600090611edf57fe5b60200260200101516001600160a01b031614611f3a576040805162461bcd60e51b81526020600482015260156024820152740a4deeae8cae47440d2dcecc2d8d2c840bee0c2e8d605b1b604482015290519081900360640190fd5b611f43816128db565b600360009054906101000a90046001600160a01b03166001600160a01b031663741bef1a6040518163ffffffff1660e01b815260040160206040518083038186803b158015611f9157600080fd5b505afa158015611fa5573d6000803e3d6000fd5b505050506040513d6020811015611fbb57600080fd5b50516040516314d6fc5d60e11b8152602060048201908152602482018590526001600160a01b03909216916329adf8ba91869186918190604401848480828437600081840152601f19601f8201169050808301925050509350505050600060405180830381600087803b15801561203157600080fd5b505af1158015612045573d6000803e3d6000fd5b50505050600034111561205a5761205a612958565b6001895111801561206b5750600034115b156120ae5760006120808a89306116716129e1565b90506120ac600360009054906101000a90046001600160a01b0316828c60018e510381518110611dd957fe5b505b6114aa8960018b5103815181106120c157fe5b602002602001015189888888612ec0565b6000546001600160a01b03163314612125576040805162461bcd60e51b81526020600482015260116024820152702937baba32b91d103337b93134b23232b760791b604482015290519081900360640190fd5b6001600160a01b03166000908152600560205260409020805460ff19169055565b61148f868686868686600061246a565b3360009081526006602090815260408083206001600160a01b0394909416835292905220805460ff19169055565b6000546001600160a01b031633146121d7576040805162461bcd60e51b81526020600482015260116024820152702937baba32b91d103337b93134b23232b760791b604482015290519081900360640190fd5b600080546001600160a01b0319166001600160a01b0392909216919091179055565b6000546001600160a01b0316331461224c576040805162461bcd60e51b81526020600482015260116024820152702937baba32b91d103337b93134b23232b760791b604482015290519081900360640190fd5b6001600160a01b03166000908152600560205260409020805460ff19166001179055565b6001548a516001600160a01b03909116908b90600019810190811061229157fe5b60200260200101516001600160a01b0316146122ec576040805162461bcd60e51b81526020600482015260156024820152740a4deeae8cae47440d2dcecc2d8d2c840bee0c2e8d605b1b604482015290519081900360640190fd5b600360009054906101000a90046001600160a01b03166001600160a01b031663741bef1a6040518163ffffffff1660e01b815260040160206040518083038186803b15801561233a57600080fd5b505afa15801561234e573d6000803e3d6000fd5b505050506040513d602081101561236457600080fd5b50516040516314d6fc5d60e11b8152602060048201908152602482018490526001600160a01b03909216916329adf8ba91859185918190604401848480828437600081840152601f19601f8201169050808301925050509350505050600060405180830381600087803b1580156123da57600080fd5b505af11580156123ee573d6000803e3d6000fd5b5050505060006124178b60008151811061240457fe5b60200260200101518b8b8b8b308b612c5c565b9050612440600360009054906101000a90046001600160a01b0316828d600081518110611dd957fe5b60006124508c86306116716129e1565b905061245c81886130bb565b505050505050505050505050565b60015487516001600160a01b03909116908890600019810190811061248b57fe5b60200260200101516001600160a01b0316146124e6576040805162461bcd60e51b81526020600482015260156024820152740a4deeae8cae47440d2dcecc2d8d2c840bee0c2e8d605b1b604482015290519081900360640190fd5b6124ef816128db565b600360009054906101000a90046001600160a01b03166001600160a01b031663741bef1a6040518163ffffffff1660e01b815260040160206040518083038186803b15801561253d57600080fd5b505afa158015612551573d6000803e3d6000fd5b505050506040513d602081101561256757600080fd5b50516040516314d6fc5d60e11b8152602060048201908152602482018590526001600160a01b03909216916329adf8ba91869186918190604401848480828437600081840152601f19601f8201169050808301925050509350505050600060405180830381600087803b1580156125dd57600080fd5b505af11580156125f1573d6000803e3d6000fd5b50505050612600611b4e6129e1565b60006126108887306116716129e1565b905061261c81866130bb565b7fcd3829a3813dc3cdd188fd3d01dcf3268c16be2fdd2dd21d0665418816e460623389600081518110611bce57fe5b600360009054906101000a90046001600160a01b03166001600160a01b031663741bef1a6040518163ffffffff1660e01b815260040160206040518083038186803b15801561269957600080fd5b505afa1580156126ad573d6000803e3d6000fd5b505050506040513d60208110156126c357600080fd5b50516040516314d6fc5d60e11b8152602060048201908152602482018490526001600160a01b03909216916329adf8ba91859185918190604401848480828437600081840152601f19601f8201169050808301925050509350505050600060405180830381600087803b15801561273957600080fd5b505af115801561274d573d6000803e3d6000fd5b5050505060006127628a8a8a8a8a308a612c5c565b9050611a2881866130bb565b600360009054906101000a90046001600160a01b03166001600160a01b031663741bef1a6040518163ffffffff1660e01b815260040160206040518083038186803b1580156127bc57600080fd5b505afa1580156127d0573d6000803e3d6000fd5b505050506040513d60208110156127e657600080fd5b50516040516314d6fc5d60e11b8152602060048201908152602482018490526001600160a01b03909216916329adf8ba91859185918190604401848480828437600081840152601f19601f8201169050808301925050509350505050600060405180830381600087803b15801561285c57600080fd5b505af1158015612870573d6000803e3d6000fd5b5050505060006128868b60008151811061240457fe5b90506128af600360009054906101000a90046001600160a01b0316828d600081518110611dd957fe5b61245c8b85886116716129e1565b6002546001600160a01b031681565b6003546001600160a01b031681565b6004546001600160a01b0316637543e3f06128f46129e1565b836040518363ffffffff1660e01b815260040180836001600160a01b03168152602001826001600160a01b0316815260200192505050600060405180830381600087803b15801561294457600080fd5b505af11580156118f7573d6000803e3d6000fd5b600160009054906101000a90046001600160a01b03166001600160a01b031663d0e30db0346040518263ffffffff1660e01b81526004016000604051808303818588803b1580156129a857600080fd5b505af11580156129bc573d6000803e3d6000fd5b50506003546001546129df94506001600160a01b03908116935016905034612e69565b565b3390565b6000845160021415612a2d57612a2685600081518110612a0157fe5b602002602001015186600181518110612a1657fe5b6020026020010151868686613138565b9050612b22565b845160031415612ad5576000612a6f86600081518110612a4957fe5b602002602001015187600181518110612a5e57fe5b602002602001015160003087613138565b9050612a98600360009054906101000a90046001600160a01b03168288600181518110611dd957fe5b612acd86600181518110612aa857fe5b602002602001015187600281518110612abd57fe5b6020026020010151878787613138565b915050612b22565b6040805162461bcd60e51b815260206004820152601c60248201527f526f757465723a20696e76616c6964205f706174682e6c656e67746800000000604482015290519081900360640190fd5b949350505050565b3360009081526005602052604090205460ff16612b87576040805162461bcd60e51b81526020600482015260166024820152752937baba32b91d1034b73b30b634b21038363ab3b4b760511b604482015290519081900360640190fd5b6001600160a01b038116600090815260066020908152604080832033845290915290205460ff16612bff576040805162461bcd60e51b815260206004820152601b60248201527f526f757465723a20706c7567696e206e6f7420617070726f7665640000000000604482015290519081900360640190fd5b50565b604080516001600160a01b0380861660248301528416604482015260648082018490528251808303909101815260849091019091526020810180516001600160e01b03166323b872dd60e01b17905261173c90859061333f565b60008315612d2257600354604080516340d3096b60e11b81526001600160a01b038a811660048301529151859392909216916381a612d691602480820192602092909190829003018186803b158015612cb457600080fd5b505afa158015612cc8573d6000803e3d6000fd5b505050506040513d6020811015612cde57600080fd5b50511015612d1d5760405162461bcd60e51b81526004018080602001828103825260238152602001806137556023913960400191505060405180910390fd5b612ddb565b60035460408051637092736960e11b81526001600160a01b038a8116600483015291518593929092169163e124e6d291602480820192602092909190829003018186803b158015612d7257600080fd5b505afa158015612d86573d6000803e3d6000fd5b505050506040513d6020811015612d9c57600080fd5b50511115612ddb5760405162461bcd60e51b81526004018080602001828103825260248152602001806137a26024913960400191505060405180910390fd5b6003546001600160a01b03166382a08490612df46129e1565b604080516001600160e01b031960e085901b1681526001600160a01b039283166004820152828d166024820152828c166044820152606481018b9052608481018a905288151560a482015291871660c48301525160e48083019260209291908290030181600087803b15801561187057600080fd5b604080516001600160a01b038416602482015260448082018490528251808303909101815260649091019091526020810180516001600160e01b031663a9059cbb60e01b179052612ebb90849061333f565b505050565b8115612f845760035460408051637092736960e11b81526001600160a01b03878116600483015291518493929092169163e124e6d291602480820192602092909190829003018186803b158015612f1657600080fd5b505afa158015612f2a573d6000803e3d6000fd5b505050506040513d6020811015612f4057600080fd5b50511115612f7f5760405162461bcd60e51b81526004018080602001828103825260248152602001806137a26024913960400191505060405180910390fd5b61303d565b600354604080516340d3096b60e11b81526001600160a01b0387811660048301529151849392909216916381a612d691602480820192602092909190829003018186803b158015612fd457600080fd5b505afa158015612fe8573d6000803e3d6000fd5b505050506040513d6020811015612ffe57600080fd5b5051101561303d5760405162461bcd60e51b81526004018080602001828103825260238152602001806137556023913960400191505060405180910390fd5b6003546001600160a01b03166348d91abf6130566129e1565b604080516001600160e01b031960e085901b1681526001600160a01b039283166004820152828a16602482015291881660448301526064820187905285151560848301525160a480830192600092919082900301818387803b1580156117b857600080fd5b60015460408051632e1a7d4d60e01b81526004810185905290516001600160a01b0390921691632e1a7d4d9160248082019260009290919082900301818387803b15801561310857600080fd5b505af115801561311c573d6000803e3d6000fd5b50613134925050506001600160a01b038216836133f0565b5050565b60025460009081906001600160a01b03878116911614156131dd576003546040805163817bb85760e01b81526001600160a01b038a8116600483015287811660248301529151919092169163817bb8579160448083019260209291908290030181600087803b1580156131aa57600080fd5b505af11580156131be573d6000803e3d6000fd5b505050506040513d60208110156131d457600080fd5b505190506132e0565b6002546001600160a01b038881169116141561324a5760035460408051630711e61960e41b81526001600160a01b03898116600483015287811660248301529151919092169163711e61909160448083019260209291908290030181600087803b1580156131aa57600080fd5b600354604080516324894b5960e01b81526001600160a01b038a81166004830152898116602483015287811660448301528681166064830152915191909216916324894b599160848083019260209291908290030181600087803b1580156132b157600080fd5b505af11580156132c5573d6000803e3d6000fd5b505050506040513d60208110156132db57600080fd5b505190505b84811015613335576040805162461bcd60e51b815260206004820152601e60248201527f526f757465723a20696e73756666696369656e7420616d6f756e744f75740000604482015290519081900360640190fd5b9695505050505050565b6060613394826040518060400160405280602081526020017f5361666545524332303a206c6f772d6c6576656c2063616c6c206661696c6564815250856001600160a01b03166134d59092919063ffffffff16565b805190915015612ebb578080602001905160208110156133b357600080fd5b5051612ebb5760405162461bcd60e51b815260040180806020018281038252602a815260200180613778602a913960400191505060405180910390fd5b80471015613445576040805162461bcd60e51b815260206004820152601d60248201527f416464726573733a20696e73756666696369656e742062616c616e6365000000604482015290519081900360640190fd5b6040516000906001600160a01b0384169083908381818185875af1925050503d8060008114613490576040519150601f19603f3d011682016040523d82523d6000602084013e613495565b606091505b5050905080612ebb5760405162461bcd60e51b815260040180806020018281038252603a8152602001806136f5603a913960400191505060405180910390fd5b60606134e484846000856134ee565b90505b9392505050565b60608247101561352f5760405162461bcd60e51b815260040180806020018281038252602681526020018061372f6026913960400191505060405180910390fd5b6135388561364a565b613589576040805162461bcd60e51b815260206004820152601d60248201527f416464726573733a2063616c6c20746f206e6f6e2d636f6e7472616374000000604482015290519081900360640190fd5b60006060866001600160a01b031685876040518082805190602001908083835b602083106135c85780518252601f1990920191602091820191016135a9565b6001836020036101000a03801982511681845116808217855250505050505090500191505060006040518083038185875af1925050503d806000811461362a576040519150601f19603f3d011682016040523d82523d6000602084013e61362f565b606091505b509150915061363f828286613650565b979650505050505050565b3b151590565b6060831561365f5750816134e7565b82511561366f5782518084602001fd5b8160405162461bcd60e51b81526004018080602001828103825283818151815260200191508051906020019080838360005b838110156136b95781810151838201526020016136a1565b50505050905090810190601f1680156136e65780820380516001836020036101000a031916815260200191505b509250505060405180910390fdfe416464726573733a20756e61626c6520746f2073656e642076616c75652c20726563697069656e74206d61792068617665207265766572746564416464726573733a20696e73756666696369656e742062616c616e636520666f722063616c6c526f757465723a206d61726b207072696365206c6f776572207468616e206c696d69745361666545524332303a204552433230206f7065726174696f6e20646964206e6f742073756363656564526f757465723a206d61726b20707269636520686967686572207468616e206c696d6974a26469706673582212203e022d87d7db72558a4110d1c700cded3442523d327b7276201ceef17398b97264736f6c634300060c0033",
  "linkReferences": {},
  "deployedLinkReferences": {}
}