{
  "_format": "hh-sol-artifact-1",
  "contractName": "Vault",
  "sourceName": "contracts/core/Vault.sol",
  "abi": [
    {
      "anonymous": false,
      "inputs": [
        {
          "indexed": false,
          "internalType": "address",
          "name": "account",
          "type": "address"
        },
        {
          "indexed": false,
          "internalType": "address",
          "name": "token",
          "type": "address"
        },
        {
          "indexed": false,
          "internalType": "uint256",
          "name": "tokenAmount",
          "type": "uint256"
        },
        {
          "indexed": false,
          "internalType": "uint256",
          "name": "usdgAmount",
          "type": "uint256"
        },
        {
          "indexed": false,
          "internalType": "uint256",
          "name": "feeBasisPoints",
          "type": "uint256"
        }
      ],
      "name": "BuyUSDG",
      "type": "event"
    },
    {
      "anonymous": false,
      "inputs": [
        {
          "indexed": false,
          "internalType": "bytes32",
          "name": "key",
          "type": "bytes32"
        },
        {
          "indexed": false,
          "internalType": "uint256",
          "name": "size",
          "type": "uint256"
        },
        {
          "indexed": false,
          "internalType": "uint256",
          "name": "collateral",
          "type": "uint256"
        },
        {
          "indexed": false,
          "internalType": "uint256",
          "name": "averagePrice",
          "type": "uint256"
        },
        {
          "indexed": false,
          "internalType": "uint256",
          "name": "entryFundingRate",
          "type": "uint256"
        },
        {
          "indexed": false,
          "internalType": "uint256",
          "name": "reserveAmount",
          "type": "uint256"
        },
        {
          "indexed": false,
          "internalType": "int256",
          "name": "realisedPnl",
          "type": "int256"
        }
      ],
      "name": "ClosePosition",
      "type": "event"
    },
    {
      "anonymous": false,
      "inputs": [
        {
          "indexed": false,
          "internalType": "address",
          "name": "token",
          "type": "address"
        },
        {
          "indexed": false,
          "internalType": "uint256",
          "name": "feeUsd",
          "type": "uint256"
        },
        {
          "indexed": false,
          "internalType": "uint256",
          "name": "feeTokens",
          "type": "uint256"
        }
      ],
      "name": "CollectMarginFees",
      "type": "event"
    },
    {
      "anonymous": false,
      "inputs": [
        {
          "indexed": false,
          "internalType": "address",
          "name": "token",
          "type": "address"
        },
        {
          "indexed": false,
          "internalType": "uint256",
          "name": "feeUsd",
          "type": "uint256"
        },
        {
          "indexed": false,
          "internalType": "uint256",
          "name": "feeTokens",
          "type": "uint256"
        }
      ],
      "name": "CollectSwapFees",
      "type": "event"
    },
    {
      "anonymous": false,
      "inputs": [
        {
          "indexed": false,
          "internalType": "address",
          "name": "token",
          "type": "address"
        },
        {
          "indexed": false,
          "internalType": "uint256",
          "name": "amount",
          "type": "uint256"
        }
      ],
      "name": "DecreaseGuaranteedUsd",
      "type": "event"
    },
    {
      "anonymous": false,
      "inputs": [
        {
          "indexed": false,
          "internalType": "address",
          "name": "token",
          "type": "address"
        },
        {
          "indexed": false,
          "internalType": "uint256",
          "name": "amount",
          "type": "uint256"
        }
      ],
      "name": "DecreasePoolAmount",
      "type": "event"
    },
    {
      "anonymous": false,
      "inputs": [
        {
          "indexed": false,
          "internalType": "bytes32",
          "name": "key",
          "type": "bytes32"
        },
        {
          "indexed": false,
          "internalType": "address",
          "name": "account",
          "type": "address"
        },
        {
          "indexed": false,
          "internalType": "address",
          "name": "collateralToken",
          "type": "address"
        },
        {
          "indexed": false,
          "internalType": "address",
          "name": "indexToken",
          "type": "address"
        },
        {
          "indexed": false,
          "internalType": "uint256",
          "name": "collateralDelta",
          "type": "uint256"
        },
        {
          "indexed": false,
          "internalType": "uint256",
          "name": "sizeDelta",
          "type": "uint256"
        },
        {
          "indexed": false,
          "internalType": "bool",
          "name": "isLong",
          "type": "bool"
        },
        {
          "indexed": false,
          "internalType": "uint256",
          "name": "price",
          "type": "uint256"
        },
        {
          "indexed": false,
          "internalType": "uint256",
          "name": "fee",
          "type": "uint256"
        }
      ],
      "name": "DecreasePosition",
      "type": "event"
    },
    {
      "anonymous": false,
      "inputs": [
        {
          "indexed": false,
          "internalType": "address",
          "name": "token",
          "type": "address"
        },
        {
          "indexed": false,
          "internalType": "uint256",
          "name": "amount",
          "type": "uint256"
        }
      ],
      "name": "DecreaseReservedAmount",
      "type": "event"
    },
    {
      "anonymous": false,
      "inputs": [
        {
          "indexed": false,
          "internalType": "address",
          "name": "token",
          "type": "address"
        },
        {
          "indexed": false,
          "internalType": "uint256",
          "name": "amount",
          "type": "uint256"
        }
      ],
      "name": "DecreaseUsdgAmount",
      "type": "event"
    },
    {
      "anonymous": false,
      "inputs": [
        {
          "indexed": false,
          "internalType": "address",
          "name": "token",
          "type": "address"
        },
        {
          "indexed": false,
          "internalType": "uint256",
          "name": "amount",
          "type": "uint256"
        }
      ],
      "name": "DirectPoolDeposit",
      "type": "event"
    },
    {
      "anonymous": false,
      "inputs": [
        {
          "indexed": false,
          "internalType": "address",
          "name": "token",
          "type": "address"
        },
        {
          "indexed": false,
          "internalType": "uint256",
          "name": "amount",
          "type": "uint256"
        }
      ],
      "name": "IncreaseGuaranteedUsd",
      "type": "event"
    },
    {
      "anonymous": false,
      "inputs": [
        {
          "indexed": false,
          "internalType": "address",
          "name": "token",
          "type": "address"
        },
        {
          "indexed": false,
          "internalType": "uint256",
          "name": "amount",
          "type": "uint256"
        }
      ],
      "name": "IncreasePoolAmount",
      "type": "event"
    },
    {
      "anonymous": false,
      "inputs": [
        {
          "indexed": false,
          "internalType": "bytes32",
          "name": "key",
          "type": "bytes32"
        },
        {
          "indexed": false,
          "internalType": "address",
          "name": "account",
          "type": "address"
        },
        {
          "indexed": false,
          "internalType": "address",
          "name": "collateralToken",
          "type": "address"
        },
        {
          "indexed": false,
          "internalType": "address",
          "name": "indexToken",
          "type": "address"
        },
        {
          "indexed": false,
          "internalType": "uint256",
          "name": "collateralDelta",
          "type": "uint256"
        },
        {
          "indexed": false,
          "internalType": "uint256",
          "name": "sizeDelta",
          "type": "uint256"
        },
        {
          "indexed": false,
          "internalType": "bool",
          "name": "isLong",
          "type": "bool"
        },
        {
          "indexed": false,
          "internalType": "uint256",
          "name": "price",
          "type": "uint256"
        },
        {
          "indexed": false,
          "internalType": "uint256",
          "name": "fee",
          "type": "uint256"
        }
      ],
      "name": "IncreasePosition",
      "type": "event"
    },
    {
      "anonymous": false,
      "inputs": [
        {
          "indexed": false,
          "internalType": "address",
          "name": "token",
          "type": "address"
        },
        {
          "indexed": false,
          "internalType": "uint256",
          "name": "amount",
          "type": "uint256"
        }
      ],
      "name": "IncreaseReservedAmount",
      "type": "event"
    },
    {
      "anonymous": false,
      "inputs": [
        {
          "indexed": false,
          "internalType": "address",
          "name": "token",
          "type": "address"
        },
        {
          "indexed": false,
          "internalType": "uint256",
          "name": "amount",
          "type": "uint256"
        }
      ],
      "name": "IncreaseUsdgAmount",
      "type": "event"
    },
    {
      "anonymous": false,
      "inputs": [
        {
          "indexed": false,
          "internalType": "bytes32",
          "name": "key",
          "type": "bytes32"
        },
        {
          "indexed": false,
          "internalType": "address",
          "name": "account",
          "type": "address"
        },
        {
          "indexed": false,
          "internalType": "address",
          "name": "collateralToken",
          "type": "address"
        },
        {
          "indexed": false,
          "internalType": "address",
          "name": "indexToken",
          "type": "address"
        },
        {
          "indexed": false,
          "internalType": "bool",
          "name": "isLong",
          "type": "bool"
        },
        {
          "indexed": false,
          "internalType": "uint256",
          "name": "size",
          "type": "uint256"
        },
        {
          "indexed": false,
          "internalType": "uint256",
          "name": "collateral",
          "type": "uint256"
        },
        {
          "indexed": false,
          "internalType": "uint256",
          "name": "reserveAmount",
          "type": "uint256"
        },
        {
          "indexed": false,
          "internalType": "int256",
          "name": "realisedPnl",
          "type": "int256"
        },
        {
          "indexed": false,
          "internalType": "uint256",
          "name": "markPrice",
          "type": "uint256"
        }
      ],
      "name": "LiquidatePosition",
      "type": "event"
    },
    {
      "anonymous": false,
      "inputs": [
        {
          "indexed": false,
          "internalType": "address",
          "name": "account",
          "type": "address"
        },
        {
          "indexed": false,
          "internalType": "address",
          "name": "token",
          "type": "address"
        },
        {
          "indexed": false,
          "internalType": "uint256",
          "name": "usdgAmount",
          "type": "uint256"
        },
        {
          "indexed": false,
          "internalType": "uint256",
          "name": "tokenAmount",
          "type": "uint256"
        },
        {
          "indexed": false,
          "internalType": "uint256",
          "name": "feeBasisPoints",
          "type": "uint256"
        }
      ],
      "name": "SellUSDG",
      "type": "event"
    },
    {
      "anonymous": false,
      "inputs": [
        {
          "indexed": false,
          "internalType": "address",
          "name": "account",
          "type": "address"
        },
        {
          "indexed": false,
          "internalType": "address",
          "name": "tokenIn",
          "type": "address"
        },
        {
          "indexed": false,
          "internalType": "address",
          "name": "tokenOut",
          "type": "address"
        },
        {
          "indexed": false,
          "internalType": "uint256",
          "name": "amountIn",
          "type": "uint256"
        },
        {
          "indexed": false,
          "internalType": "uint256",
          "name": "amountOut",
          "type": "uint256"
        },
        {
          "indexed": false,
          "internalType": "uint256",
          "name": "amountOutAfterFees",
          "type": "uint256"
        },
        {
          "indexed": false,
          "internalType": "uint256",
          "name": "feeBasisPoints",
          "type": "uint256"
        }
      ],
      "name": "Swap",
      "type": "event"
    },
    {
      "anonymous": false,
      "inputs": [
        {
          "indexed": false,
          "internalType": "uint256",
          "name": "taxBasisPoints",
          "type": "uint256"
        },
        {
          "indexed": false,
          "internalType": "uint256",
          "name": "stableTaxBasisPoints",
          "type": "uint256"
        },
        {
          "indexed": false,
          "internalType": "uint256",
          "name": "mintBurnFeeBasisPoints",
          "type": "uint256"
        },
        {
          "indexed": false,
          "internalType": "uint256",
          "name": "swapFeeBasisPoints",
          "type": "uint256"
        },
        {
          "indexed": false,
          "internalType": "uint256",
          "name": "stableSwapFeeBasisPoints",
          "type": "uint256"
        },
        {
          "indexed": false,
          "internalType": "uint256",
          "name": "marginFeeBasisPoints",
          "type": "uint256"
        },
        {
          "indexed": false,
          "internalType": "uint256",
          "name": "liquidationFeeUsd",
          "type": "uint256"
        },
        {
          "indexed": false,
          "internalType": "uint256",
          "name": "minProfitTime",
          "type": "uint256"
        },
        {
          "indexed": false,
          "internalType": "bool",
          "name": "hasDynamicFees",
          "type": "bool"
        }
      ],
      "name": "UpdateFees",
      "type": "event"
    },
    {
      "anonymous": false,
      "inputs": [
        {
          "indexed": false,
          "internalType": "address",
          "name": "token",
          "type": "address"
        },
        {
          "indexed": false,
          "internalType": "uint256",
          "name": "fundingRate",
          "type": "uint256"
        }
      ],
      "name": "UpdateFundingRate",
      "type": "event"
    },
    {
      "anonymous": false,
      "inputs": [
        {
          "indexed": false,
          "internalType": "uint256",
          "name": "maxLeverage",
          "type": "uint256"
        }
      ],
      "name": "UpdateMaxLeverage",
      "type": "event"
    },
    {
      "anonymous": false,
      "inputs": [
        {
          "indexed": false,
          "internalType": "bytes32",
          "name": "key",
          "type": "bytes32"
        },
        {
          "indexed": false,
          "internalType": "bool",
          "name": "hasProfit",
          "type": "bool"
        },
        {
          "indexed": false,
          "internalType": "uint256",
          "name": "delta",
          "type": "uint256"
        }
      ],
      "name": "UpdatePnl",
      "type": "event"
    },
    {
      "anonymous": false,
      "inputs": [
        {
          "indexed": false,
          "internalType": "bytes32",
          "name": "key",
          "type": "bytes32"
        },
        {
          "indexed": false,
          "internalType": "uint256",
          "name": "size",
          "type": "uint256"
        },
        {
          "indexed": false,
          "internalType": "uint256",
          "name": "collateral",
          "type": "uint256"
        },
        {
          "indexed": false,
          "internalType": "uint256",
          "name": "averagePrice",
          "type": "uint256"
        },
        {
          "indexed": false,
          "internalType": "uint256",
          "name": "entryFundingRate",
          "type": "uint256"
        },
        {
          "indexed": false,
          "internalType": "uint256",
          "name": "reserveAmount",
          "type": "uint256"
        },
        {
          "indexed": false,
          "internalType": "int256",
          "name": "realisedPnl",
          "type": "int256"
        },
        {
          "indexed": false,
          "internalType": "uint256",
          "name": "markPrice",
          "type": "uint256"
        }
      ],
      "name": "UpdatePosition",
      "type": "event"
    },
    {
      "anonymous": false,
      "inputs": [
        {
          "indexed": true,
          "internalType": "address",
          "name": "token",
          "type": "address"
        },
        {
          "indexed": false,
          "internalType": "bool",
          "name": "isWhitelisted",
          "type": "bool"
        },
        {
          "indexed": false,
          "internalType": "uint256",
          "name": "tokenDecimals",
          "type": "uint256"
        },
        {
          "indexed": false,
          "internalType": "uint256",
          "name": "tokenWeight",
          "type": "uint256"
        },
        {
          "indexed": false,
          "internalType": "uint256",
          "name": "minProfitBasisPoints",
          "type": "uint256"
        },
        {
          "indexed": false,
          "internalType": "uint256",
          "name": "maxUsdgAmount",
          "type": "uint256"
        },
        {
          "indexed": false,
          "internalType": "bool",
          "name": "isStable",
          "type": "bool"
        },
        {
          "indexed": false,
          "internalType": "bool",
          "name": "isShortable",
          "type": "bool"
        }
      ],
      "name": "UpdateTokenConfig",
      "type": "event"
    },
    {
      "inputs": [
        {
          "internalType": "address",
          "name": "_router",
          "type": "address"
        }
      ],
      "name": "addRouter",
      "outputs": [],
      "stateMutability": "nonpayable",
      "type": "function"
    },
    {
      "inputs": [
        {
          "internalType": "uint256",
          "name": "_amount",
          "type": "uint256"
        },
        {
          "internalType": "address",
          "name": "_tokenDiv",
          "type": "address"
        },
        {
          "internalType": "address",
          "name": "_tokenMul",
          "type": "address"
        }
      ],
      "name": "adjustForDecimals",
      "outputs": [
        {
          "internalType": "uint256",
          "name": "",
          "type": "uint256"
        }
      ],
      "stateMutability": "view",
      "type": "function"
    },
    {
      "inputs": [
        {
          "internalType": "uint256",
          "name": "",
          "type": "uint256"
        }
      ],
      "name": "allWhitelistedTokens",
      "outputs": [
        {
          "internalType": "address",
          "name": "",
          "type": "address"
        }
      ],
      "stateMutability": "view",
      "type": "function"
    },
    {
      "inputs": [],
      "name": "allWhitelistedTokensLength",
      "outputs": [
        {
          "internalType": "uint256",
          "name": "",
          "type": "uint256"
        }
      ],
      "stateMutability": "view",
      "type": "function"
    },
    {
      "inputs": [
        {
          "internalType": "address",
          "name": "",
          "type": "address"
        },
        {
          "internalType": "address",
          "name": "",
          "type": "address"
        }
      ],
      "name": "approvedRouters",
      "outputs": [
        {
          "internalType": "bool",
          "name": "",
          "type": "bool"
        }
      ],
      "stateMutability": "view",
      "type": "function"
    },
    {
      "inputs": [
        {
          "internalType": "address",
          "name": "",
          "type": "address"
        }
      ],
      "name": "bufferAmounts",
      "outputs": [
        {
          "internalType": "uint256",
          "name": "",
          "type": "uint256"
        }
      ],
      "stateMutability": "view",
      "type": "function"
    },
    {
      "inputs": [
        {
          "internalType": "address",
          "name": "_token",
          "type": "address"
        },
        {
          "internalType": "address",
          "name": "_receiver",
          "type": "address"
        }
      ],
      "name": "buyUSDG",
      "outputs": [
        {
          "internalType": "uint256",
          "name": "",
          "type": "uint256"
        }
      ],
      "stateMutability": "nonpayable",
      "type": "function"
    },
    {
      "inputs": [
        {
          "internalType": "address",
          "name": "_token",
          "type": "address"
        }
      ],
      "name": "clearTokenConfig",
      "outputs": [],
      "stateMutability": "nonpayable",
      "type": "function"
    },
    {
      "inputs": [
        {
          "internalType": "address",
          "name": "",
          "type": "address"
        }
      ],
      "name": "cumulativeFundingRates",
      "outputs": [
        {
          "internalType": "uint256",
          "name": "",
          "type": "uint256"
        }
      ],
      "stateMutability": "view",
      "type": "function"
    },
    {
      "inputs": [
        {
          "internalType": "address",
          "name": "_account",
          "type": "address"
        },
        {
          "internalType": "address",
          "name": "_collateralToken",
          "type": "address"
        },
        {
          "internalType": "address",
          "name": "_indexToken",
          "type": "address"
        },
        {
          "internalType": "uint256",
          "name": "_collateralDelta",
          "type": "uint256"
        },
        {
          "internalType": "uint256",
          "name": "_sizeDelta",
          "type": "uint256"
        },
        {
          "internalType": "bool",
          "name": "_isLong",
          "type": "bool"
        },
        {
          "internalType": "address",
          "name": "_receiver",
          "type": "address"
        }
      ],
      "name": "decreasePosition",
      "outputs": [
        {
          "internalType": "uint256",
          "name": "",
          "type": "uint256"
        }
      ],
      "stateMutability": "nonpayable",
      "type": "function"
    },
    {
      "inputs": [
        {
          "internalType": "address",
          "name": "_token",
          "type": "address"
        }
      ],
      "name": "directPoolDeposit",
      "outputs": [],
      "stateMutability": "nonpayable",
      "type": "function"
    },
    {
      "inputs": [],
      "name": "errorController",
      "outputs": [
        {
          "internalType": "address",
          "name": "",
          "type": "address"
        }
      ],
      "stateMutability": "view",
      "type": "function"
    },
    {
      "inputs": [
        {
          "internalType": "address",
          "name": "",
          "type": "address"
        }
      ],
      "name": "feeReserves",
      "outputs": [
        {
          "internalType": "uint256",
          "name": "",
          "type": "uint256"
        }
      ],
      "stateMutability": "view",
      "type": "function"
    },
    {
      "inputs": [],
      "name": "fundingInterval",
      "outputs": [
        {
          "internalType": "uint256",
          "name": "",
          "type": "uint256"
        }
      ],
      "stateMutability": "view",
      "type": "function"
    },
    {
      "inputs": [],
      "name": "fundingRateFactor",
      "outputs": [
        {
          "internalType": "uint256",
          "name": "",
          "type": "uint256"
        }
      ],
      "stateMutability": "view",
      "type": "function"
    },
    {
      "inputs": [
        {
          "internalType": "address",
          "name": "_token",
          "type": "address"
        }
      ],
      "name": "getMaxPrice",
      "outputs": [
        {
          "internalType": "uint256",
          "name": "",
          "type": "uint256"
        }
      ],
      "stateMutability": "view",
      "type": "function"
    },
    {
      "inputs": [
        {
          "internalType": "address",
          "name": "_token",
          "type": "address"
        }
      ],
      "name": "getMinPrice",
      "outputs": [
        {
          "internalType": "uint256",
          "name": "",
          "type": "uint256"
        }
      ],
      "stateMutability": "view",
      "type": "function"
    },
    {
      "inputs": [
        {
          "internalType": "address",
          "name": "_indexToken",
          "type": "address"
        },
        {
          "internalType": "uint256",
          "name": "_size",
          "type": "uint256"
        },
        {
          "internalType": "uint256",
          "name": "_averagePrice",
          "type": "uint256"
        },
        {
          "internalType": "bool",
          "name": "_isLong",
          "type": "bool"
        },
        {
          "internalType": "uint256",
          "name": "_nextPrice",
          "type": "uint256"
        },
        {
          "internalType": "uint256",
          "name": "_sizeDelta",
          "type": "uint256"
        },
        {
          "internalType": "uint256",
          "name": "_lastIncreasedTime",
          "type": "uint256"
        }
      ],
      "name": "getNextAveragePrice",
      "outputs": [
        {
          "internalType": "uint256",
          "name": "",
          "type": "uint256"
        }
      ],
      "stateMutability": "view",
      "type": "function"
    },
    {
      "inputs": [
        {
          "internalType": "address",
          "name": "_token",
          "type": "address"
        }
      ],
      "name": "getNextFundingRate",
      "outputs": [
        {
          "internalType": "uint256",
          "name": "",
          "type": "uint256"
        }
      ],
      "stateMutability": "view",
      "type": "function"
    },
    {
      "inputs": [
        {
          "internalType": "address",
          "name": "_indexToken",
          "type": "address"
        },
        {
          "internalType": "uint256",
          "name": "_nextPrice",
          "type": "uint256"
        },
        {
          "internalType": "uint256",
          "name": "_sizeDelta",
          "type": "uint256"
        }
      ],
      "name": "getNextGlobalShortAveragePrice",
      "outputs": [
        {
          "internalType": "uint256",
          "name": "",
          "type": "uint256"
        }
      ],
      "stateMutability": "view",
      "type": "function"
    },
    {
      "inputs": [
        {
          "internalType": "address",
          "name": "_account",
          "type": "address"
        },
        {
          "internalType": "address",
          "name": "_collateralToken",
          "type": "address"
        },
        {
          "internalType": "address",
          "name": "_indexToken",
          "type": "address"
        },
        {
          "internalType": "bool",
          "name": "_isLong",
          "type": "bool"
        }
      ],
      "name": "getPosition",
      "outputs": [
        {
          "internalType": "uint256",
          "name": "",
          "type": "uint256"
        },
        {
          "internalType": "uint256",
          "name": "",
          "type": "uint256"
        },
        {
          "internalType": "uint256",
          "name": "",
          "type": "uint256"
        },
        {
          "internalType": "uint256",
          "name": "",
          "type": "uint256"
        },
        {
          "internalType": "uint256",
          "name": "",
          "type": "uint256"
        },
        {
          "internalType": "uint256",
          "name": "",
          "type": "uint256"
        },
        {
          "internalType": "bool",
          "name": "",
          "type": "bool"
        },
        {
          "internalType": "uint256",
          "name": "",
          "type": "uint256"
        }
      ],
      "stateMutability": "view",
      "type": "function"
    },
    {
      "inputs": [
        {
          "internalType": "address",
          "name": "_account",
          "type": "address"
        },
        {
          "internalType": "address",
          "name": "_collateralToken",
          "type": "address"
        },
        {
          "internalType": "address",
          "name": "_indexToken",
          "type": "address"
        },
        {
          "internalType": "bool",
          "name": "_isLong",
          "type": "bool"
        }
      ],
      "name": "getPositionKey",
      "outputs": [
        {
          "internalType": "bytes32",
          "name": "",
          "type": "bytes32"
        }
      ],
      "stateMutability": "pure",
      "type": "function"
    },
    {
      "inputs": [
        {
          "internalType": "address",
          "name": "_token",
          "type": "address"
        },
        {
          "internalType": "uint256",
          "name": "_usdgAmount",
          "type": "uint256"
        }
      ],
      "name": "getRedemptionAmount",
      "outputs": [
        {
          "internalType": "uint256",
          "name": "",
          "type": "uint256"
        }
      ],
      "stateMutability": "view",
      "type": "function"
    },
    {
      "inputs": [
        {
          "internalType": "address",
          "name": "",
          "type": "address"
        }
      ],
      "name": "globalShortAveragePrices",
      "outputs": [
        {
          "internalType": "uint256",
          "name": "",
          "type": "uint256"
        }
      ],
      "stateMutability": "view",
      "type": "function"
    },
    {
      "inputs": [
        {
          "internalType": "address",
          "name": "",
          "type": "address"
        }
      ],
      "name": "globalShortSizes",
      "outputs": [
        {
          "internalType": "uint256",
          "name": "",
          "type": "uint256"
        }
      ],
      "stateMutability": "view",
      "type": "function"
    },
    {
      "inputs": [],
      "name": "gov",
      "outputs": [
        {
          "internalType": "address",
          "name": "",
          "type": "address"
        }
      ],
      "stateMutability": "view",
      "type": "function"
    },
    {
      "inputs": [
        {
          "internalType": "address",
          "name": "",
          "type": "address"
        }
      ],
      "name": "guaranteedUsd",
      "outputs": [
        {
          "internalType": "uint256",
          "name": "",
          "type": "uint256"
        }
      ],
      "stateMutability": "view",
      "type": "function"
    },
    {
      "inputs": [],
      "name": "hasDynamicFees",
      "outputs": [
        {
          "internalType": "bool",
          "name": "",
          "type": "bool"
        }
      ],
      "stateMutability": "view",
      "type": "function"
    },
    {
      "inputs": [],
      "name": "inManagerMode",
      "outputs": [
        {
          "internalType": "bool",
          "name": "",
          "type": "bool"
        }
      ],
      "stateMutability": "view",
      "type": "function"
    },
    {
      "inputs": [],
      "name": "inPrivateLiquidationMode",
      "outputs": [
        {
          "internalType": "bool",
          "name": "",
          "type": "bool"
        }
      ],
      "stateMutability": "view",
      "type": "function"
    },
    {
      "inputs": [
        {
          "internalType": "address",
          "name": "_account",
          "type": "address"
        },
        {
          "internalType": "address",
          "name": "_collateralToken",
          "type": "address"
        },
        {
          "internalType": "address",
          "name": "_indexToken",
          "type": "address"
        },
        {
          "internalType": "uint256",
          "name": "_sizeDelta",
          "type": "uint256"
        },
        {
          "internalType": "bool",
          "name": "_isLong",
          "type": "bool"
        }
      ],
      "name": "increasePosition",
      "outputs": [],
      "stateMutability": "nonpayable",
      "type": "function"
    },
    {
      "inputs": [],
      "name": "initialize",
      "outputs": [],
      "stateMutability": "nonpayable",
      "type": "function"
    },
    {
      "inputs": [
        {
          "internalType": "address",
          "name": "_router",
          "type": "address"
        },
        {
          "internalType": "address",
          "name": "_usdg",
          "type": "address"
        },
        {
          "internalType": "address",
          "name": "_priceFeed",
          "type": "address"
        },
        {
          "internalType": "uint256",
          "name": "_liquidationFeeUsd",
          "type": "uint256"
        },
        {
          "internalType": "uint256",
          "name": "_fundingRateFactor",
          "type": "uint256"
        },
        {
          "internalType": "uint256",
          "name": "_stableFundingRateFactor",
          "type": "uint256"
        }
      ],
      "name": "initializeConfig",
      "outputs": [],
      "stateMutability": "nonpayable",
      "type": "function"
    },
    {
      "inputs": [],
      "name": "isInitialized",
      "outputs": [
        {
          "internalType": "bool",
          "name": "",
          "type": "bool"
        }
      ],
      "stateMutability": "view",
      "type": "function"
    },
    {
      "inputs": [],
      "name": "isLeverageEnabled",
      "outputs": [
        {
          "internalType": "bool",
          "name": "",
          "type": "bool"
        }
      ],
      "stateMutability": "view",
      "type": "function"
    },
    {
      "inputs": [
        {
          "internalType": "address",
          "name": "",
          "type": "address"
        }
      ],
      "name": "isLiquidator",
      "outputs": [
        {
          "internalType": "bool",
          "name": "",
          "type": "bool"
        }
      ],
      "stateMutability": "view",
      "type": "function"
    },
    {
      "inputs": [
        {
          "internalType": "address",
          "name": "",
          "type": "address"
        }
      ],
      "name": "isManager",
      "outputs": [
        {
          "internalType": "bool",
          "name": "",
          "type": "bool"
        }
      ],
      "stateMutability": "view",
      "type": "function"
    },
    {
      "inputs": [],
      "name": "isSwapEnabled",
      "outputs": [
        {
          "internalType": "bool",
          "name": "",
          "type": "bool"
        }
      ],
      "stateMutability": "view",
      "type": "function"
    },
    {
      "inputs": [
        {
          "internalType": "address",
          "name": "",
          "type": "address"
        }
      ],
      "name": "lastFundingTimes",
      "outputs": [
        {
          "internalType": "uint256",
          "name": "",
          "type": "uint256"
        }
      ],
      "stateMutability": "view",
      "type": "function"
    },
    {
      "inputs": [
        {
          "internalType": "address",
          "name": "_account",
          "type": "address"
        },
        {
          "internalType": "address",
          "name": "_collateralToken",
          "type": "address"
        },
        {
          "internalType": "address",
          "name": "_indexToken",
          "type": "address"
        },
        {
          "internalType": "bool",
          "name": "_isLong",
          "type": "bool"
        },
        {
          "internalType": "address",
          "name": "_feeReceiver",
          "type": "address"
        },
        {
          "internalType": "bytes",
          "name": "signedQuoteData",
          "type": "bytes"
        }
      ],
      "name": "liquidatePosition",
      "outputs": [],
      "stateMutability": "nonpayable",
      "type": "function"
    },
    {
      "inputs": [],
      "name": "liquidationFeeUsd",
      "outputs": [
        {
          "internalType": "uint256",
          "name": "",
          "type": "uint256"
        }
      ],
      "stateMutability": "view",
      "type": "function"
    },
    {
      "inputs": [],
      "name": "marginFeeBasisPoints",
      "outputs": [
        {
          "internalType": "uint256",
          "name": "",
          "type": "uint256"
        }
      ],
      "stateMutability": "view",
      "type": "function"
    },
    {
      "inputs": [],
      "name": "maxGasPrice",
      "outputs": [
        {
          "internalType": "uint256",
          "name": "",
          "type": "uint256"
        }
      ],
      "stateMutability": "view",
      "type": "function"
    },
    {
      "inputs": [
        {
          "internalType": "address",
          "name": "",
          "type": "address"
        }
      ],
      "name": "maxGlobalShortSizes",
      "outputs": [
        {
          "internalType": "uint256",
          "name": "",
          "type": "uint256"
        }
      ],
      "stateMutability": "view",
      "type": "function"
    },
    {
      "inputs": [],
      "name": "maxLeverage",
      "outputs": [
        {
          "internalType": "uint256",
          "name": "",
          "type": "uint256"
        }
      ],
      "stateMutability": "view",
      "type": "function"
    },
    {
      "inputs": [
        {
          "internalType": "address",
          "name": "",
          "type": "address"
        }
      ],
      "name": "maxUsdgAmounts",
      "outputs": [
        {
          "internalType": "uint256",
          "name": "",
          "type": "uint256"
        }
      ],
      "stateMutability": "view",
      "type": "function"
    },
    {
      "inputs": [
        {
          "internalType": "address",
          "name": "",
          "type": "address"
        }
      ],
      "name": "minProfitBasisPoints",
      "outputs": [
        {
          "internalType": "uint256",
          "name": "",
          "type": "uint256"
        }
      ],
      "stateMutability": "view",
      "type": "function"
    },
    {
      "inputs": [],
      "name": "minProfitTime",
      "outputs": [
        {
          "internalType": "uint256",
          "name": "",
          "type": "uint256"
        }
      ],
      "stateMutability": "view",
      "type": "function"
    },
    {
      "inputs": [],
      "name": "mintBurnFeeBasisPoints",
      "outputs": [
        {
          "internalType": "uint256",
          "name": "",
          "type": "uint256"
        }
      ],
      "stateMutability": "view",
      "type": "function"
    },
    {
      "inputs": [
        {
          "internalType": "address",
          "name": "",
          "type": "address"
        }
      ],
      "name": "poolAmounts",
      "outputs": [
        {
          "internalType": "uint256",
          "name": "",
          "type": "uint256"
        }
      ],
      "stateMutability": "view",
      "type": "function"
    },
    {
      "inputs": [
        {
          "internalType": "bytes32",
          "name": "",
          "type": "bytes32"
        }
      ],
      "name": "positions",
      "outputs": [
        {
          "internalType": "uint256",
          "name": "size",
          "type": "uint256"
        },
        {
          "internalType": "uint256",
          "name": "collateral",
          "type": "uint256"
        },
        {
          "internalType": "uint256",
          "name": "averagePrice",
          "type": "uint256"
        },
        {
          "internalType": "uint256",
          "name": "entryFundingRate",
          "type": "uint256"
        },
        {
          "internalType": "uint256",
          "name": "reserveAmount",
          "type": "uint256"
        },
        {
          "internalType": "int256",
          "name": "realisedPnl",
          "type": "int256"
        },
        {
          "internalType": "uint256",
          "name": "lastIncreasedTime",
          "type": "uint256"
        }
      ],
      "stateMutability": "view",
      "type": "function"
    },
    {
      "inputs": [],
      "name": "priceFeed",
      "outputs": [
        {
          "internalType": "address",
          "name": "",
          "type": "address"
        }
      ],
      "stateMutability": "view",
      "type": "function"
    },
    {
      "inputs": [
        {
          "internalType": "address",
          "name": "_router",
          "type": "address"
        }
      ],
      "name": "removeRouter",
      "outputs": [],
      "stateMutability": "nonpayable",
      "type": "function"
    },
    {
      "inputs": [
        {
          "internalType": "address",
          "name": "",
          "type": "address"
        }
      ],
      "name": "reservedAmounts",
      "outputs": [
        {
          "internalType": "uint256",
          "name": "",
          "type": "uint256"
        }
      ],
      "stateMutability": "view",
      "type": "function"
    },
    {
      "inputs": [],
      "name": "router",
      "outputs": [
        {
          "internalType": "address",
          "name": "",
          "type": "address"
        }
      ],
      "stateMutability": "view",
      "type": "function"
    },
    {
      "inputs": [
        {
          "internalType": "address",
          "name": "_token",
          "type": "address"
        },
        {
          "internalType": "address",
          "name": "_receiver",
          "type": "address"
        }
      ],
      "name": "sellUSDG",
      "outputs": [
        {
          "internalType": "uint256",
          "name": "",
          "type": "uint256"
        }
      ],
      "stateMutability": "nonpayable",
      "type": "function"
    },
    {
      "inputs": [
        {
          "internalType": "address",
          "name": "_token",
          "type": "address"
        },
        {
          "internalType": "uint256",
          "name": "_amount",
          "type": "uint256"
        }
      ],
      "name": "setBufferAmount",
      "outputs": [],
      "stateMutability": "nonpayable",
      "type": "function"
    },
    {
      "inputs": [
        {
          "internalType": "uint256",
          "name": "_errorCode",
          "type": "uint256"
        },
        {
          "internalType": "string",
          "name": "_error",
          "type": "string"
        }
      ],
      "name": "setError",
      "outputs": [],
      "stateMutability": "nonpayable",
      "type": "function"
    },
    {
      "inputs": [
        {
          "internalType": "address",
          "name": "_errorController",
          "type": "address"
        }
      ],
      "name": "setErrorController",
      "outputs": [],
      "stateMutability": "nonpayable",
      "type": "function"
    },
    {
      "inputs": [
        {
          "internalType": "uint256",
          "name": "_taxBasisPoints",
          "type": "uint256"
        },
        {
          "internalType": "uint256",
          "name": "_stableTaxBasisPoints",
          "type": "uint256"
        },
        {
          "internalType": "uint256",
          "name": "_mintBurnFeeBasisPoints",
          "type": "uint256"
        },
        {
          "internalType": "uint256",
          "name": "_swapFeeBasisPoints",
          "type": "uint256"
        },
        {
          "internalType": "uint256",
          "name": "_stableSwapFeeBasisPoints",
          "type": "uint256"
        },
        {
          "internalType": "uint256",
          "name": "_marginFeeBasisPoints",
          "type": "uint256"
        },
        {
          "internalType": "uint256",
          "name": "_liquidationFeeUsd",
          "type": "uint256"
        },
        {
          "internalType": "uint256",
          "name": "_minProfitTime",
          "type": "uint256"
        },
        {
          "internalType": "bool",
          "name": "_hasDynamicFees",
          "type": "bool"
        }
      ],
      "name": "setFees",
      "outputs": [],
      "stateMutability": "nonpayable",
      "type": "function"
    },
    {
      "inputs": [
        {
          "internalType": "uint256",
          "name": "_fundingInterval",
          "type": "uint256"
        },
        {
          "internalType": "uint256",
          "name": "_fundingRateFactor",
          "type": "uint256"
        },
        {
          "internalType": "uint256",
          "name": "_stableFundingRateFactor",
          "type": "uint256"
        }
      ],
      "name": "setFundingRate",
      "outputs": [],
      "stateMutability": "nonpayable",
      "type": "function"
    },
    {
      "inputs": [
        {
          "internalType": "address",
          "name": "_gov",
          "type": "address"
        }
      ],
      "name": "setGov",
      "outputs": [],
      "stateMutability": "nonpayable",
      "type": "function"
    },
    {
      "inputs": [
        {
          "internalType": "bool",
          "name": "_inManagerMode",
          "type": "bool"
        }
      ],
      "name": "setInManagerMode",
      "outputs": [],
      "stateMutability": "nonpayable",
      "type": "function"
    },
    {
      "inputs": [
        {
          "internalType": "bool",
          "name": "_inPrivateLiquidationMode",
          "type": "bool"
        }
      ],
      "name": "setInPrivateLiquidationMode",
      "outputs": [],
      "stateMutability": "nonpayable",
      "type": "function"
    },
    {
      "inputs": [
        {
          "internalType": "bool",
          "name": "_isLeverageEnabled",
          "type": "bool"
        }
      ],
      "name": "setIsLeverageEnabled",
      "outputs": [],
      "stateMutability": "nonpayable",
      "type": "function"
    },
    {
      "inputs": [
        {
          "internalType": "bool",
          "name": "_isSwapEnabled",
          "type": "bool"
        }
      ],
      "name": "setIsSwapEnabled",
      "outputs": [],
      "stateMutability": "nonpayable",
      "type": "function"
    },
    {
      "inputs": [
        {
          "internalType": "address",
          "name": "_liquidator",
          "type": "address"
        },
        {
          "internalType": "bool",
          "name": "_isActive",
          "type": "bool"
        }
      ],
      "name": "setLiquidator",
      "outputs": [],
      "stateMutability": "nonpayable",
      "type": "function"
    },
    {
      "inputs": [
        {
          "internalType": "address",
          "name": "_manager",
          "type": "address"
        },
        {
          "internalType": "bool",
          "name": "_isManager",
          "type": "bool"
        }
      ],
      "name": "setManager",
      "outputs": [],
      "stateMutability": "nonpayable",
      "type": "function"
    },
    {
      "inputs": [
        {
          "internalType": "uint256",
          "name": "_maxGasPrice",
          "type": "uint256"
        }
      ],
      "name": "setMaxGasPrice",
      "outputs": [],
      "stateMutability": "nonpayable",
      "type": "function"
    },
    {
      "inputs": [
        {
          "internalType": "address",
          "name": "_token",
          "type": "address"
        },
        {
          "internalType": "uint256",
          "name": "_amount",
          "type": "uint256"
        }
      ],
      "name": "setMaxGlobalShortSize",
      "outputs": [],
      "stateMutability": "nonpayable",
      "type": "function"
    },
    {
      "inputs": [
        {
          "internalType": "uint256",
          "name": "_maxLeverage",
          "type": "uint256"
        }
      ],
      "name": "setMaxLeverage",
      "outputs": [],
      "stateMutability": "nonpayable",
      "type": "function"
    },
    {
      "inputs": [
        {
          "internalType": "address",
          "name": "_priceFeed",
          "type": "address"
        }
      ],
      "name": "setPriceFeed",
      "outputs": [],
      "stateMutability": "nonpayable",
      "type": "function"
    },
    {
      "inputs": [
        {
          "internalType": "address",
          "name": "_rebates",
          "type": "address"
        }
      ],
      "name": "setRebates",
      "outputs": [],
      "stateMutability": "nonpayable",
      "type": "function"
    },
    {
      "inputs": [
        {
          "internalType": "address",
          "name": "_router",
          "type": "address"
        }
      ],
      "name": "setRouter",
      "outputs": [],
      "stateMutability": "nonpayable",
      "type": "function"
    },
    {
      "inputs": [
        {
          "internalType": "address",
          "name": "_token",
          "type": "address"
        },
        {
          "internalType": "uint256",
          "name": "_tokenDecimals",
          "type": "uint256"
        },
        {
          "internalType": "uint256",
          "name": "_tokenWeight",
          "type": "uint256"
        },
        {
          "internalType": "uint256",
          "name": "_minProfitBps",
          "type": "uint256"
        },
        {
          "internalType": "uint256",
          "name": "_maxUsdgAmount",
          "type": "uint256"
        },
        {
          "internalType": "bool",
          "name": "_isStable",
          "type": "bool"
        },
        {
          "internalType": "bool",
          "name": "_isShortable",
          "type": "bool"
        }
      ],
      "name": "setTokenConfig",
      "outputs": [],
      "stateMutability": "nonpayable",
      "type": "function"
    },
    {
      "inputs": [
        {
          "internalType": "address",
          "name": "_token",
          "type": "address"
        },
        {
          "internalType": "uint256",
          "name": "_amount",
          "type": "uint256"
        }
      ],
      "name": "setUsdgAmount",
      "outputs": [],
      "stateMutability": "nonpayable",
      "type": "function"
    },
    {
      "inputs": [
        {
          "internalType": "contract IVaultUtils",
          "name": "_vaultUtils",
          "type": "address"
        }
      ],
      "name": "setVaultUtils",
      "outputs": [],
      "stateMutability": "nonpayable",
      "type": "function"
    },
    {
      "inputs": [
        {
          "internalType": "address",
          "name": "",
          "type": "address"
        }
      ],
      "name": "shortableTokens",
      "outputs": [
        {
          "internalType": "bool",
          "name": "",
          "type": "bool"
        }
      ],
      "stateMutability": "view",
      "type": "function"
    },
    {
      "inputs": [],
      "name": "stableFundingRateFactor",
      "outputs": [
        {
          "internalType": "uint256",
          "name": "",
          "type": "uint256"
        }
      ],
      "stateMutability": "view",
      "type": "function"
    },
    {
      "inputs": [],
      "name": "stableSwapFeeBasisPoints",
      "outputs": [
        {
          "internalType": "uint256",
          "name": "",
          "type": "uint256"
        }
      ],
      "stateMutability": "view",
      "type": "function"
    },
    {
      "inputs": [],
      "name": "stableTaxBasisPoints",
      "outputs": [
        {
          "internalType": "uint256",
          "name": "",
          "type": "uint256"
        }
      ],
      "stateMutability": "view",
      "type": "function"
    },
    {
      "inputs": [
        {
          "internalType": "address",
          "name": "",
          "type": "address"
        }
      ],
      "name": "stableTokens",
      "outputs": [
        {
          "internalType": "bool",
          "name": "",
          "type": "bool"
        }
      ],
      "stateMutability": "view",
      "type": "function"
    },
    {
      "inputs": [
        {
          "internalType": "address",
          "name": "_tokenIn",
          "type": "address"
        },
        {
          "internalType": "address",
          "name": "_tokenOut",
          "type": "address"
        },
        {
          "internalType": "address",
          "name": "_receiver",
          "type": "address"
        }
      ],
      "name": "swap",
      "outputs": [
        {
          "internalType": "uint256",
          "name": "",
          "type": "uint256"
        }
      ],
      "stateMutability": "nonpayable",
      "type": "function"
    },
    {
      "inputs": [],
      "name": "swapFeeBasisPoints",
      "outputs": [
        {
          "internalType": "uint256",
          "name": "",
          "type": "uint256"
        }
      ],
      "stateMutability": "view",
      "type": "function"
    },
    {
      "inputs": [
        {
          "internalType": "address",
          "name": "_tokenIn",
          "type": "address"
        },
        {
          "internalType": "address",
          "name": "_tokenOut",
          "type": "address"
        },
        {
          "internalType": "address",
          "name": "_receiver",
          "type": "address"
        },
        {
          "internalType": "address",
          "name": "_rebateReceiver",
          "type": "address"
        }
      ],
      "name": "swapWithRebateReceiver",
      "outputs": [
        {
          "internalType": "uint256",
          "name": "",
          "type": "uint256"
        }
      ],
      "stateMutability": "nonpayable",
      "type": "function"
    },
    {
      "inputs": [],
      "name": "taxBasisPoints",
      "outputs": [
        {
          "internalType": "uint256",
          "name": "",
          "type": "uint256"
        }
      ],
      "stateMutability": "view",
      "type": "function"
    },
    {
      "inputs": [
        {
          "internalType": "address",
          "name": "",
          "type": "address"
        }
      ],
      "name": "tokenBalances",
      "outputs": [
        {
          "internalType": "uint256",
          "name": "",
          "type": "uint256"
        }
      ],
      "stateMutability": "view",
      "type": "function"
    },
    {
      "inputs": [
        {
          "internalType": "address",
          "name": "",
          "type": "address"
        }
      ],
      "name": "tokenDecimals",
      "outputs": [
        {
          "internalType": "uint256",
          "name": "",
          "type": "uint256"
        }
      ],
      "stateMutability": "view",
      "type": "function"
    },
    {
      "inputs": [
        {
          "internalType": "address",
          "name": "_token",
          "type": "address"
        },
        {
          "internalType": "uint256",
          "name": "_tokenAmount",
          "type": "uint256"
        }
      ],
      "name": "tokenToUsdMin",
      "outputs": [
        {
          "internalType": "uint256",
          "name": "",
          "type": "uint256"
        }
      ],
      "stateMutability": "view",
      "type": "function"
    },
    {
      "inputs": [
        {
          "internalType": "address",
          "name": "",
          "type": "address"
        }
      ],
      "name": "tokenWeights",
      "outputs": [
        {
          "internalType": "uint256",
          "name": "",
          "type": "uint256"
        }
      ],
      "stateMutability": "view",
      "type": "function"
    },
    {
      "inputs": [],
      "name": "totalTokenWeights",
      "outputs": [
        {
          "internalType": "uint256",
          "name": "",
          "type": "uint256"
        }
      ],
      "stateMutability": "view",
      "type": "function"
    },
    {
      "inputs": [
        {
          "internalType": "address",
          "name": "_collateralToken",
          "type": "address"
        },
        {
          "internalType": "address",
          "name": "_indexToken",
          "type": "address"
        }
      ],
      "name": "updateCumulativeFundingRate",
      "outputs": [],
      "stateMutability": "nonpayable",
      "type": "function"
    },
    {
      "inputs": [
        {
          "internalType": "address",
          "name": "_newVault",
          "type": "address"
        },
        {
          "internalType": "address",
          "name": "_token",
          "type": "address"
        },
        {
          "internalType": "uint256",
          "name": "_amount",
          "type": "uint256"
        }
      ],
      "name": "upgradeVault",
      "outputs": [],
      "stateMutability": "nonpayable",
      "type": "function"
    },
    {
      "inputs": [
        {
          "internalType": "address",
          "name": "_token",
          "type": "address"
        },
        {
          "internalType": "uint256",
          "name": "_usdAmount",
          "type": "uint256"
        },
        {
          "internalType": "uint256",
          "name": "_price",
          "type": "uint256"
        }
      ],
      "name": "usdToToken",
      "outputs": [
        {
          "internalType": "uint256",
          "name": "",
          "type": "uint256"
        }
      ],
      "stateMutability": "view",
      "type": "function"
    },
    {
      "inputs": [
        {
          "internalType": "address",
          "name": "_token",
          "type": "address"
        },
        {
          "internalType": "uint256",
          "name": "_usdAmount",
          "type": "uint256"
        }
      ],
      "name": "usdToTokenMax",
      "outputs": [
        {
          "internalType": "uint256",
          "name": "",
          "type": "uint256"
        }
      ],
      "stateMutability": "view",
      "type": "function"
    },
    {
      "inputs": [
        {
          "internalType": "address",
          "name": "_token",
          "type": "address"
        },
        {
          "internalType": "uint256",
          "name": "_usdAmount",
          "type": "uint256"
        }
      ],
      "name": "usdToTokenMin",
      "outputs": [
        {
          "internalType": "uint256",
          "name": "",
          "type": "uint256"
        }
      ],
      "stateMutability": "view",
      "type": "function"
    },
    {
      "inputs": [],
      "name": "usdg",
      "outputs": [
        {
          "internalType": "address",
          "name": "",
          "type": "address"
        }
      ],
      "stateMutability": "view",
      "type": "function"
    },
    {
      "inputs": [
        {
          "internalType": "address",
          "name": "",
          "type": "address"
        }
      ],
      "name": "usdgAmounts",
      "outputs": [
        {
          "internalType": "uint256",
          "name": "",
          "type": "uint256"
        }
      ],
      "stateMutability": "view",
      "type": "function"
    },
    {
      "inputs": [],
      "name": "vaultUtils",
      "outputs": [
        {
          "internalType": "contract IVaultUtils",
          "name": "",
          "type": "address"
        }
      ],
      "stateMutability": "view",
      "type": "function"
    },
    {
      "inputs": [],
      "name": "whitelistedTokenCount",
      "outputs": [
        {
          "internalType": "uint256",
          "name": "",
          "type": "uint256"
        }
      ],
      "stateMutability": "view",
      "type": "function"
    },
    {
      "inputs": [
        {
          "internalType": "address",
          "name": "",
          "type": "address"
        }
      ],
      "name": "whitelistedTokens",
      "outputs": [
        {
          "internalType": "bool",
          "name": "",
          "type": "bool"
        }
      ],
      "stateMutability": "view",
      "type": "function"
    },
    {
      "inputs": [
        {
          "internalType": "address",
          "name": "_token",
          "type": "address"
        },
        {
          "internalType": "address",
          "name": "_receiver",
          "type": "address"
        }
      ],
      "name": "withdrawFees",
      "outputs": [
        {
          "internalType": "uint256",
          "name": "",
          "type": "uint256"
        }
      ],
      "stateMutability": "nonpayable",
      "type": "function"
    }
  ],
  "bytecode": "0x608060405234801561001057600080fd5b5061610a80620000216000396000f3fe608060405234801561001057600080fd5b50600436106105d25760003560e01c80638585f4d211610300578063c65bc7b1116101a8578063df73a267116100f4578063f07bbf77116100ad578063f5b91b7b11610087578063f5b91b7b1461144c578063f887ea4014611454578063fa12dbc01461145c578063fbfded6d1461148e576105d2565b8063f07bbf77146113d9578063f2555278146113f8578063f3ae241514611426576105d2565b8063df73a26714611316578063e124e6d21461131e578063e468baf014611344578063e67f59a714611361578063efa10a6e14611387578063f07456ce146113b3576105d2565b8063d899e5e111610161578063daf9c2101161013b578063daf9c21014611276578063db3555fb1461129c578063db97495f146112c2578063dc8f5fac1461130e576105d2565b8063d899e5e114611200578063d8f897c314611248578063d9ac42251461126e576105d2565b8063c65bc7b114611118578063cea0c3281461113e578063cfad57a214611174578063d2fa635e1461119a578063d3127e63146111b7578063d66b000d146111d4576105d2565b80639f392eb311610267578063ab2f3ad411610220578063b0b0e819116101fa578063b0b0e81914611023578063c0d78655146110c4578063c3c7b9e9146110ea578063c4f718bf14611110576105d2565b8063ab2f3ad414610fcf578063ad1e4f8d14610ff5578063ae3302c21461101b576105d2565b80639f392eb314610f19578063a1bbe2de14610f21578063a22f239214610f47578063a42ab3d214610f4f578063a5e90eee14610f7b578063a93acac214610fa9576105d2565b80639060b1ca116102b95780639060b1ca14610e4d5780639331621214610e555780639698d25a14610e8d5780639849e41214610eb35780639899cd0214610ebb5780639d7432ca14610ee7576105d2565b80638585f4d214610d6057806388b1fbdf14610d8c5780638a27d46814610db25780638a78daa814610ddb5780638ee573ac14610e015780638f7b840414610e27576105d2565b80634453a3741161047e57806362749803116103ca578063741bef1a116103835780638129fc1c1161035d5780638129fc1c14610cb0578063817bb85714610cb857806381a612d614610ce657806382a0849014610d0c576105d2565b8063741bef1a14610c815780637a210a2b14610c895780637c2eb9f714610c91576105d2565b80636274980314610bb35780636abbe0c814610bd95780636ae0b15414610be157806371089f4d14610c07578063711e619014610c2d578063724e78da14610c5b576105d2565b8063514ea4bf1161043757806352f55eed1161041157806352f55eed14610b315780635f7bc11914610b575780636092219914610b7d57806362287a3214610bab576105d2565b8063514ea4bf14610a90578063523fba7f14610ae5578063529a356f14610b0b576105d2565b80634453a3741461096757806348d91abf1461099557806348f35cbb146109d95780634a3f088d146109e15780634a993ee914610a625780634d47b30414610a88576105d2565b806328e67be51161053d578063392e53cd116104f65780633e72a262116104d05780633e72a262146108b457806340eb3802146108bc578063421528731461090d57806342b60b0314610941576105d2565b8063392e53cd146108565780633c5a6e351461085e5780633de39c11146108ac576105d2565b806328e67be5146107465780632c668ec1146107bd5780632d4b0576146107e957806330455ede14610827578063318bc68914610846578063351a964d1461084e576105d2565b8063181e210e1161058f578063181e210e146106595780631aa4ace5146106755780631ce9cb8f1461069b57806324894b59146106c157806324b0c04d146106ff57806324ca984e14610720576105d2565b80630842b076146105d75780630a48d5a9146105f157806310eb56c21461061d57806312d43a5114610625578063134ca63b14610649578063174d269414610651575b600080fd5b6105df6114bc565b60408051918252519081900360200190f35b6105df6004803603604081101561060757600080fd5b506001600160a01b0381351690602001356114c2565b6105df61151b565b61062d611521565b604080516001600160a01b039092168252519081900360200190f35b6105df611530565b6105df611536565b61066161153c565b604080519115158252519081900360200190f35b6105df6004803603602081101561068b57600080fd5b50356001600160a01b031661154c565b6105df600480360360208110156106b157600080fd5b50356001600160a01b031661155e565b6105df600480360360808110156106d757600080fd5b506001600160a01b038135811691602081013582169160408201358116916060013516611570565b61071e6004803603602081101561071557600080fd5b50351515611883565b005b61071e6004803603602081101561073657600080fd5b50356001600160a01b03166118a7565b61071e6004803603604081101561075c57600080fd5b8135919081019060408101602082013564010000000081111561077e57600080fd5b82018360208201111561079057600080fd5b803590602001918460018302840111640100000000831117156107b257600080fd5b5090925090506118d8565b6105df600480360360408110156107d357600080fd5b506001600160a01b038135169060200135611956565b6105df600480360360808110156107ff57600080fd5b506001600160a01b03813581169160208101358216916040820135169060600135151561199c565b61071e6004803603602081101561083d57600080fd5b503515156119f7565b6105df611a19565b610661611a1f565b610661611a2d565b61071e600480360360e081101561087457600080fd5b506001600160a01b038135169060208101359060408101359060608101359060808101359060a081013515159060c001351515611a36565b6105df611be5565b610661611beb565b61071e60048036036101208110156108d357600080fd5b5080359060208101359060408101359060608101359060808101359060a08101359060c08101359060e08101359061010001351515611bfa565b6105df6004803603606081101561092357600080fd5b508035906001600160a01b0360208201358116916040013516611d31565b6106616004803603602081101561095757600080fd5b50356001600160a01b0316611dd3565b61071e6004803603604081101561097d57600080fd5b506001600160a01b0381351690602001351515611de8565b61071e600480360360a08110156109ab57600080fd5b506001600160a01b038135811691602081013582169160408201351690606081013590608001351515611e1b565b61062d61237a565b610a1f600480360360808110156109f757600080fd5b506001600160a01b038135811691602081013582169160408201351690606001351515612389565b604080519889526020890197909752878701959095526060870193909352608086019190915260a0850152151560c084015260e083015251908190036101000190f35b6105df60048036036020811015610a7857600080fd5b50356001600160a01b031661247f565b6105df612491565b610aad60048036036020811015610aa657600080fd5b5035612497565b604080519788526020880196909652868601949094526060860192909252608085015260a084015260c0830152519081900360e00190f35b6105df60048036036020811015610afb57600080fd5b50356001600160a01b03166124d4565b61066160048036036020811015610b2157600080fd5b50356001600160a01b03166124e6565b6105df60048036036020811015610b4757600080fd5b50356001600160a01b03166124fb565b61071e60048036036020811015610b6d57600080fd5b50356001600160a01b031661250d565b61066160048036036040811015610b9357600080fd5b506001600160a01b03813581169160200135166125f0565b6105df612610565b6105df60048036036020811015610bc957600080fd5b50356001600160a01b0316612616565b61062d612628565b61071e60048036036020811015610bf757600080fd5b50356001600160a01b031661263e565b61071e60048036036020811015610c1d57600080fd5b50356001600160a01b031661266c565b6105df60048036036040811015610c4357600080fd5b506001600160a01b03813581169160200135166126a0565b61071e60048036036020811015610c7157600080fd5b50356001600160a01b0316612933565b61062d61295d565b6105df61296c565b61071e60048036036020811015610ca757600080fd5b50351515612972565b61071e612996565b6105df60048036036040811015610cce57600080fd5b506001600160a01b0381358116916020013516612aa6565b6105df60048036036020811015610cfc57600080fd5b50356001600160a01b0316612d77565b6105df600480360360e0811015610d2257600080fd5b506001600160a01b0381358116916020810135821691604082013581169160608101359160808201359160a081013515159160c09091013516612e23565b61071e60048036036040811015610d7657600080fd5b506001600160a01b038135169060200135612ea0565b6105df60048036036020811015610da257600080fd5b50356001600160a01b0316612ec4565b61071e60048036036060811015610dc857600080fd5b5080359060208101359060400135612ed6565b6105df60048036036020811015610df157600080fd5b50356001600160a01b0316612f1c565b6105df60048036036020811015610e1757600080fd5b50356001600160a01b0316612f2e565b61071e60048036036020811015610e3d57600080fd5b50356001600160a01b0316612f40565b610661612f6a565b6105df60048036036060811015610e6b57600080fd5b506001600160a01b038135811691602081013582169160409091013516612f79565b6105df60048036036020811015610ea357600080fd5b50356001600160a01b0316612f90565b6105df612fa2565b6105df60048036036040811015610ed157600080fd5b506001600160a01b038135169060200135612fa8565b6105df60048036036060811015610efd57600080fd5b506001600160a01b038135169060208101359060400135612fca565b610661613073565b61071e60048036036020811015610f3757600080fd5b50356001600160a01b031661307c565b6105df6130a6565b6105df60048036036040811015610f6557600080fd5b506001600160a01b0381351690602001356130ac565b61071e60048036036040811015610f9157600080fd5b506001600160a01b03813516906020013515156130c9565b6105df60048036036020811015610fbf57600080fd5b50356001600160a01b03166130fc565b6105df60048036036020811015610fe557600080fd5b50356001600160a01b03166131fa565b6105df6004803603602081101561100b57600080fd5b50356001600160a01b031661320c565b6105df61321e565b61071e600480360360c081101561103957600080fd5b6001600160a01b03823581169260208101358216926040820135831692606083013515159260808101359091169181019060c0810160a082013564010000000081111561108557600080fd5b82018360208201111561109757600080fd5b803590602001918460018302840111640100000000831117156110b957600080fd5b509092509050613224565b61071e600480360360208110156110da57600080fd5b50356001600160a01b0316613348565b6105df6004803603602081101561110057600080fd5b50356001600160a01b0316613382565b6105df613394565b6105df6004803603602081101561112e57600080fd5b50356001600160a01b031661339a565b61071e6004803603606081101561115457600080fd5b506001600160a01b038135811691602081013590911690604001356133ac565b61071e6004803603602081101561118a57600080fd5b50356001600160a01b03166133cd565b61071e600480360360208110156111b057600080fd5b50356133f7565b61071e600480360360208110156111cd57600080fd5b5035613404565b61071e600480360360408110156111ea57600080fd5b506001600160a01b038135169060200135613456565b61071e600480360360c081101561121657600080fd5b506001600160a01b03813581169160208101358216916040820135169060608101359060808101359060a001356134af565b6105df6004803603602081101561125e57600080fd5b50356001600160a01b0316613527565b6105df613539565b6106616004803603602081101561128c57600080fd5b50356001600160a01b031661353f565b610661600480360360208110156112b257600080fd5b50356001600160a01b0316613554565b6105df600480360360e08110156112d857600080fd5b506001600160a01b0381351690602081013590604081013590606081013515159060808101359060a08101359060c00135613569565b6105df613690565b6105df613696565b6105df6004803603602081101561133457600080fd5b50356001600160a01b031661369c565b61062d6004803603602081101561135a57600080fd5b5035613713565b61071e6004803603602081101561137757600080fd5b50356001600160a01b031661373a565b61071e6004803603604081101561139d57600080fd5b506001600160a01b038135169060200135613877565b6105df600480360360208110156113c957600080fd5b50356001600160a01b031661389b565b61071e600480360360208110156113ef57600080fd5b503515156138ad565b6105df6004803603604081101561140e57600080fd5b506001600160a01b03813581169160200135166138d3565b6106616004803603602081101561143c57600080fd5b50356001600160a01b0316613929565b61062d61393e565b61062d61394d565b6105df6004803603606081101561147257600080fd5b506001600160a01b03813516906020810135906040013561395c565b61071e600480360360408110156114a457600080fd5b506001600160a01b0381358116916020013516613996565b604d5490565b6000816114d157506000611515565b60006114dc84612d77565b6001600160a01b0385166000908152604f6020526040902054909150611510600a82900a61150a8685613b6f565b90613bc8565b925050505b92915050565b603d5481565b6038546001600160a01b031681565b60465481565b603b5481565b6048546301000000900460ff1681565b60556020526000908152604090205481565b605e6020526000908152604090205481565b6000600260015414156115b8576040805162461bcd60e51b815260206004820152601f602482015260008051602061603c833981519152604482015290519081900360640190fd5b60026001556033546115d390610100900460ff166017613c0a565b6001600160a01b0385166000908152604e60205260409020546115fa9060ff166018613c0a565b6001600160a01b0384166000908152604e60205260409020546116219060ff166019613c0a565b611641846001600160a01b0316866001600160a01b03161415601a613c0a565b6048805461ff00191661010017905561165a8580613996565b6116648485613996565b600061166f86613cb6565b905061167f60008211601b613c0a565b600061168a87612d77565b905060006116978761369c565b905060006116a98261150a8686613b6f565b90506116b6818a8a611d31565b905060006116d56c0c9f2c9cd04674edea4000000061150a8787613b6f565b6037549091506116f19082908c906001600160a01b0316611d31565b60335460408051636d099c0b60e11b81526001600160a01b038e811660048301528d8116602483015260448201859052915193945060009363010000009093049091169163da13381691606480820192602092909190829003018186803b15801561175b57600080fd5b505afa15801561176f573d6000803e3d6000fd5b505050506040513d602081101561178557600080fd5b5051905060006117968b8584613d63565b90506001600160a01b038916156117c2576117c26117ba61271061150a8587613b6f565b8a8e8e613e2b565b6117cc8c84613f55565b6117d68b84614013565b6117e08c886140f5565b6117ea8b8561420d565b6117f38b6142e3565b6117fe8b828c61435b565b604080516001600160a01b03808d168252808f1660208301528d1681830152606081018990526080810186905260a0810183905260c0810184905290517f0874b2d545cb271cdbda4e093020c452328b24af12382ed62c4d00f5c26709db9181900360e00190a16048805461ff0019169055600180559b9a5050505050505050505050565b61188b614402565b60488054911515620100000262ff000019909216919091179055565b336000908152604a602090815260408083206001600160a01b0394909416835292905220805460ff19166001179055565b6034546001600160a01b03163314611937576040805162461bcd60e51b815260206004820152601e60248201527f5661756c743a20696e76616c6964206572726f72436f6e74726f6c6c65720000604482015290519081900360640190fd5b6000838152606260205260409020611950908383615f6b565b50505050565b6000806119628461369c565b905060006119818261150a866c0c9f2c9cd04674edea40000000613b6f565b6037549091506115109082906001600160a01b031687611d31565b604080516bffffffffffffffffffffffff19606096871b811660208084019190915295871b811660348301529390951b9092166048850152151560f81b605c8401528051603d818503018152605d9093019052815191012090565b6119ff614402565b603380549115156101000261ff0019909216919091179055565b60415481565b603354610100900460ff1681565b60335460ff1681565b611a3e614402565b6001600160a01b0387166000908152604e602052604090205460ff16611abb57603954611a6c90600161441d565b603955604d80546001810182556000919091527f1b524e1c8b5382bb913d0a2aae8ad83bb92a45fcb47761fa4a12f5b6316c2b200180546001600160a01b0319166001600160a01b0389161790555b6047546001600160a01b038816600090815260546020526040902054611ae2908290614477565b6001600160a01b0389166000908152604e602090815260408083208054600160ff1991821617909155604f83528184208c9055605483528184208b9055605083528184208a9055605683528184208990556051835281842080548216891515179055605290925290912080549091168415151790559050611b63818761441d565b604755611b6f8861369c565b50604080516001815260208101899052808201889052606081018790526080810186905284151560a082015283151560c082015290516001600160a01b038a16917f9d66aab92b4cb3b36e92b03832b5b51c8ed340da80bafb953dad931a7ee6c4c7919081900360e00190a25050505050505050565b60495481565b60335462010000900460ff1681565b611c02614402565b611c126101f48a11156003613c0a565b611c226101f48911156004613c0a565b611c326101f48811156005613c0a565b611c426101f48711156006613c0a565b611c526101f48611156007613c0a565b611c626101f48511156008613c0a565b611c7e6d04ee2d6d415b85acef81000000008411156009613c0a565b603c899055603d889055603e879055603f86905560408581556041859055603b84905560428390556043805460ff1916831515179081905581518b8152602081018b90528083018a9052606081018990526080810188905260a0810187905260c0810186905260e0810185905260ff909116151561010082015290517f7481b671f6789e4595ad1982f27ce15f0e01bd3e9298ef05208cb8b8dd1c210c91610120908290030190a1505050505050505050565b60375460009081906001600160a01b03858116911614611d69576001600160a01b0384166000908152604f6020526040902054611d6c565b60125b6037549091506000906001600160a01b03858116911614611da5576001600160a01b0384166000908152604f6020526040902054611da8565b60125b9050611dc782600a0a61150a83600a0a89613b6f90919063ffffffff16565b925050505b9392505050565b60516020526000908152604090205460ff1681565b611df0614402565b6001600160a01b03919091166000908152604b60205260409020805460ff1916911515919091179055565b60026001541415611e61576040805162461bcd60e51b815260206004820152601f602482015260008051602061603c833981519152604482015290519081900360640190fd5b6002600155603354611e7d9062010000900460ff16601c613c0a565b611e856144b9565b611e8e856144d5565b611e99848483614535565b60335460408051634eae147d60e11b81526001600160a01b038881166004830152878116602483015286811660448301526064820186905284151560848301529151630100000090930490911691639d5c28fa9160a480820192600092909190829003018186803b158015611f0d57600080fd5b505afa158015611f21573d6000803e3d6000fd5b50505050611f2f8484613996565b6000611f3d8686868561199c565b6000818152605d6020526040812091925083611f6157611f5c86612d77565b611f6a565b611f6a8661369c565b8254909150611f7b57600282018190555b815415801590611f8b5750600085115b15611fb157611fab868360000154846002015487858a8860060154613569565b60028301555b6000611fca898989888a8860000154896003015461464b565b9050611fdb818a8a8a896001614846565b6000611fe689613cb6565b90506000611ff48a836114c2565b6001860154909150612006908261441d565b6001860181905561201b90841115601d613c0a565b600185015461202a9084614477565b60018601556033546040805163b1cc53ab60e01b81526001600160a01b038d811660048301528c811660248301528a15156044830152915163010000009093049091169163b1cc53ab91606480820192602092909190829003018186803b15801561209457600080fd5b505afa1580156120a8573d6000803e3d6000fd5b505050506040513d60208110156120be57600080fd5b5051600386015584546120d1908961441d565b8086554260068701556120e7901515601e613c0a565b6120f985600001548660010154614984565b6033546040805163d54d5a9f60e01b81526001600160a01b038e811660048301528d811660248301528c811660448301528a151560648301526001608483015282516301000000909404169263d54d5a9f9260a480840193919291829003018186803b15801561216857600080fd5b505afa15801561217c573d6000803e3d6000fd5b505050506040513d604081101561219257600080fd5b50600090506121a18b8a6130ac565b60048701549091506121b3908261441d565b60048701556121c28b826149a8565b8715612207576121db8b6121d68b8761441d565b614a48565b6121e58b83614ac7565b6121ef8b846140f5565b6122028b6121fd8d87612fa8565b61420d565b612273565b6001600160a01b038a166000908152605f6020526040902054612244576001600160a01b038a166000908152606060205260409020859055612269565b61224f8a868b612fca565b6001600160a01b038b166000908152606060205260409020555b6122738a8a614b46565b604080518881526001600160a01b03808f166020830152808e16828401528c1660608201526080810184905260a081018b905289151560c082015260e08101879052610100810186905290517f2fe68525253654c21998f35787a8d0f361905ef647c854092430ab65f2f15022918190036101200190a1855460018701546002880154600389015460048a015460058b0154604080518e81526020810197909752868101959095526060860193909352608085019190915260a084015260c083015260e08201879052517f20853733b590dce729d9f4628682ebd9a34d2354e72679e66f43a008fc03b773918190036101000190a150506001805550505050505050505050565b6034546001600160a01b031681565b60008060008060008060008060006123a38d8d8d8d61199c565b90506123ad615fe9565b605d60008381526020019081526020016000206040518060e001604052908160008201548152602001600182015481526020016002820154815260200160038201548152602001600482015481526020016005820154815260200160068201548152505090506000808260a001511361242d578160a00151600003612433565b8160a001515b9050816000015182602001518360400151846060015185608001518560008860a0015112158860c001519a509a509a509a509a509a509a509a5050505094995094995094999196509450565b60596020526000908152604090205481565b603e5481565b605d602052600090815260409020805460018201546002830154600384015460048501546005860154600690960154949593949293919290919087565b60536020526000908152604090205481565b604b6020526000908152604090205460ff1681565b60576020526000908152604090205481565b60026001541415612553576040805162461bcd60e51b815260206004820152601f602482015260008051602061603c833981519152604482015290519081900360640190fd5b60026001556001600160a01b0381166000908152604e602052604090205461257f9060ff16600e613c0a565b600061258a82613cb6565b905061259a60008211600f613c0a565b6125a482826140f5565b604080516001600160a01b03841681526020810183905281517fa5a389190ebf6170a133bda5c769b77f4d6715b8aa172ec0ddf8473d0b4944bd929181900390910190a1505060018055565b604a60209081526000928352604080842090915290825290205460ff1681565b60395481565b60606020526000908152604090205481565b603354630100000090046001600160a01b031681565b336000908152604a602090815260408083206001600160a01b0394909416835292905220805460ff19169055565b612674614402565b603380546001600160a01b039092166301000000026301000000600160b81b0319909216919091179055565b6000600260015414156126e8576040805162461bcd60e51b815260206004820152601f602482015260008051602061603c833981519152604482015290519081900360640190fd5b60026001556126f5614c01565b6001600160a01b0383166000908152604e602052604090205461271c9060ff166013613c0a565b6048805461ff001916610100179055603754600090612743906001600160a01b0316613cb6565b9050612753600082116014613c0a565b61275d8485613996565b60006127698583611956565b9050612779600082116015613c0a565b6127838583614013565b61278d858261420d565b60375460408051632770a7eb60e21b81523060048201526024810185905290516001600160a01b0390921691639dc29fac9160448082019260009290919082900301818387803b1580156127e057600080fd5b505af11580156127f4573d6000803e3d6000fd5b505060375461280e92506001600160a01b03169050614c30565b6033546040805163eb0835bf60e01b81526001600160a01b038881166004830152602482018690529151600093630100000090049092169163eb0835bf91604480820192602092909190829003018186803b15801561286c57600080fd5b505afa158015612880573d6000803e3d6000fd5b505050506040513d602081101561289657600080fd5b5051905060006128a7878484613d63565b90506128b7600082116016613c0a565b6128c287828861435b565b604080516001600160a01b03808916825289166020820152808201869052606081018390526080810184905290517fd732b7828fa6cee72c285eac756fc66a7477e3dc22e22e7c432f1c265d40b4839181900360a00190a16048805461ff0019169055600180559695505050505050565b61293b614402565b603680546001600160a01b0319166001600160a01b0392909216919091179055565b6036546001600160a01b031681565b603c5481565b61297a614402565b60338054911515620100000262ff000019909216919091179055565b600054610100900460ff16806129af57506129af614ccb565b806129bd575060005460ff16155b6129f85760405162461bcd60e51b815260040180806020018281038252602e81526020018061605c602e913960400191505060405180910390fd5b600054610100900460ff16158015612a23576000805460ff1961ff0019909116610100171660011790555b612a2b614cd1565b603880546001600160a01b031916331790556207a120603a556032603c556014603d55601e603e819055603f556004604055600a6041556170806044556048805460ff191660011790556033805462ff00001961ff00199091166101001716620100001790558015612aa3576000805461ff00191690555b50565b600060026001541415612aee576040805162461bcd60e51b815260206004820152601f602482015260008051602061603c833981519152604482015290519081900360640190fd5b6002600155612afb614c01565b6001600160a01b0383166000908152604e6020526040902054612b229060ff166010613c0a565b6048805461ff0019166101001790556000612b3c84613cb6565b9050612b4c600082116011613c0a565b612b568485613996565b6000612b6185612d77565b90506000612b806c0c9f2c9cd04674edea4000000061150a8585613b6f565b603754909150612b9c90829088906001600160a01b0316611d31565b9050612bac600082116012613c0a565b6033546040805163256f6ee360e11b81526001600160a01b0389811660048301526024820185905291516000936301000000900490921691634adeddc691604480820192602092909190829003018186803b158015612c0a57600080fd5b505afa158015612c1e573d6000803e3d6000fd5b505050506040513d6020811015612c3457600080fd5b505190506000612c45888684613d63565b90506000612c646c0c9f2c9cd04674edea4000000061150a8488613b6f565b603754909150612c809082908b906001600160a01b0316611d31565b9050612c8c8982613f55565b612c9689836140f5565b603754604080516340c10f1960e01b81526001600160a01b038b8116600483015260248201859052915191909216916340c10f1991604480830192600092919082900301818387803b158015612ceb57600080fd5b505af1158015612cff573d6000803e3d6000fd5b5050604080516001600160a01b03808d1682528d1660208201528082018a9052606081018590526080810187905290517fab4c77c74cd32c85f35416cf03e7ce9e2d4387f7b7f2c1f4bf53daaecf8ea72d93509081900360a0019150a16048805461ff00191690556001805598975050505050505050565b603654604854604080516317e1d38560e11b81526001600160a01b03858116600483015260006024830181905260ff8086161515604485015261010090950490941615156064830152915192939190911691632fc3a70a91608480820192602092909190829003018186803b158015612def57600080fd5b505afa158015612e03573d6000803e3d6000fd5b505050506040513d6020811015612e1957600080fd5b505190505b919050565b600060026001541415612e6b576040805162461bcd60e51b815260206004820152601f602482015260008051602061603c833981519152604482015290519081900360640190fd5b6002600155612e786144b9565b612e81886144d5565b612e9088888888888888614d7a565b6001805598975050505050505050565b612ea8614402565b6001600160a01b03909116600090815260596020526040902055565b60506020526000908152604090205481565b612ede614402565b612eee610e10841015600a613c0a565b612efe612710831115600b613c0a565b612f0e612710821115600c613c0a565b604492909255604555604655565b605f6020526000908152604090205481565b604f6020526000908152604090205481565b612f48614402565b603480546001600160a01b0319166001600160a01b0392909216919091179055565b60485462010000900460ff1681565b6000612f888484846000611570565b949350505050565b60616020526000908152604090205481565b60445481565b600081612fb757506000611515565b611dcc8383612fc58661369c565b61395c565b6001600160a01b0383166000908152605f6020908152604080832054606090925282205482858211613005576130008683614477565b61300f565b61300f8287614477565b905060006130218361150a8685613b6f565b90508683116000613032868961441d565b905060008261304a57613045828561441d565b613054565b6130548285614477565b90506130648161150a8c85613b6f565b9b9a5050505050505050505050565b60435460ff1681565b613084614402565b606380546001600160a01b0319166001600160a01b0392909216919091179055565b603f5481565b6000816130bb57506000611515565b611dcc8383612fc586612d77565b6130d1614402565b6001600160a01b03919091166000908152604c60205260409020805460ff1916911515919091179055565b6044546001600160a01b0382166000908152605c6020526040812054909142916131259161441d565b111561313357506000612e1e565b6044546001600160a01b0383166000908152605c602052604081205490916131609161150a904290614477565b6001600160a01b0384166000908152605760205260409020549091508061318c57600092505050612e1e565b6001600160a01b03841660009081526051602052604081205460ff166131b4576045546131b8565b6046545b6001600160a01b0386166000908152605860205260409020549091506131f190839061150a9086906131eb908690613b6f565b90613b6f565b95945050505050565b60546020526000908152604090205481565b60566020526000908152604090205481565b603a5481565b6002600154141561326a576040805162461bcd60e51b815260206004820152601f602482015260008051602061603c833981519152604482015290519081900360640190fd5b60026001556048546301000000900460ff161561329f57336000908152604b602052604090205461329f9060ff166022613c0a565b6036546040516314d6fc5d60e11b8152602060048201908152602482018490526001600160a01b03909216916329adf8ba91859185918190604401848480828437600081840152601f19601f8201169050808301925050509350505050600060405180830381600087803b15801561331657600080fd5b505af115801561332a573d6000803e3d6000fd5b5050505061333b878787878761538f565b5050600180555050505050565b6001600160a01b03811661335857fe5b613360614402565b603580546001600160a01b0319166001600160a01b0392909216919091179055565b60586020526000908152604090205481565b60455481565b605b6020526000908152604090205481565b6133b4614402565b6133c86001600160a01b038316848361577e565b505050565b6133d5614402565b603880546001600160a01b0319166001600160a01b0392909216919091179055565b6133ff614402565b604955565b61340c614402565b61341b61271082116002613c0a565b603a8190556040805182815290517f8ca665019ca0bd78eab90ab094378fef13cc2d78f51490ed75c144991691789a9181900360200190a150565b61345e614402565b6001600160a01b03821660009081526055602052604090205480821115613498576134928361348d8484614477565b613f55565b506134ab565b6133c8836134a68385614477565b614013565b5050565b6134b7614402565b6033546134c99060ff16156001613c0a565b60338054600160ff19909116179055603580546001600160a01b03199081166001600160a01b039889161790915560378054821696881696909617909555603680549095169390951692909217909255603b91909155604555604655565b605c6020526000908152604090205481565b60425481565b604e6020526000908152604090205460ff1681565b60526020526000908152604090205460ff1681565b60335460408051635c07eaab60e01b81526001600160a01b038a81166004830152602482018a905260448201899052871515606483015260848201859052825160009485948594630100000090920490931692635c07eaab9260a480840193829003018186803b1580156135dc57600080fd5b505afa1580156135f0573d6000803e3d6000fd5b505050506040513d604081101561360657600080fd5b508051602090910151909250905060006136208a8761441d565b90506000881561364f578361363e576136398284614477565b613648565b613648828461441d565b9050613670565b836136635761365e828461441d565b61366d565b61366d8284614477565b90505b61367e8161150a8a85613b6f565b9450505050505b979650505050505050565b60475481565b60405481565b603654604854604080516317e1d38560e11b81526001600160a01b0385811660048301526001602483015260ff808516151560448401526101009094049093161515606482015290516000939290921691632fc3a70a91608480820192602092909190829003018186803b158015612def57600080fd5b604d818154811061372057fe5b6000918252602090912001546001600160a01b0316905081565b613742614402565b6001600160a01b0381166000908152604e60205260409020546137699060ff16600d613c0a565b6001600160a01b03811660009081526054602052604090205460475461378e91614477565b6047556001600160a01b0381166000908152604e60209081526040808320805460ff19908116909155604f835281842084905560548352818420849055605083528184208490556056835281842084905560518352818420805482169055605290925290912080549091169055603954613809906001614477565b60395560408051600080825260208201819052818301819052606082018190526080820181905260a0820181905260c082015290516001600160a01b038316917f9d66aab92b4cb3b36e92b03832b5b51c8ed340da80bafb953dad931a7ee6c4c7919081900360e00190a250565b61387f614402565b6001600160a01b03909116600090815260616020526040902055565b605a6020526000908152604090205481565b6138b5614402565b6048805491151563010000000263ff00000019909216919091179055565b60006138dd614402565b6001600160a01b0383166000908152605e602052604090205480613905576000915050611515565b6001600160a01b0384166000908152605e6020526040812055611dcc84828561435b565b604c6020526000908152604090205460ff1681565b6037546001600160a01b031681565b6035546001600160a01b031681565b60008261396b57506000611dcc565b6001600160a01b0384166000908152604f60205260409020546131f18361150a86600a85900a613b6f565b6033546040805163fbfded6d60e01b81526001600160a01b03858116600483015284811660248301529151600093630100000090049092169163fbfded6d9160448082019260209290919082900301818787803b1580156139f657600080fd5b505af1158015613a0a573d6000803e3d6000fd5b505050506040513d6020811015613a2057600080fd5b5051905080613a2f57506134ab565b6001600160a01b0383166000908152605c6020526040902054613a7c57604454613a5d906131eb4282613bc8565b6001600160a01b0384166000908152605c6020526040902055506134ab565b6044546001600160a01b0384166000908152605c60205260409020544291613aa4919061441d565b1115613ab057506134ab565b6000613abb846130fc565b6001600160a01b0385166000908152605b6020526040902054909150613ae1908261441d565b6001600160a01b0385166000908152605b6020526040902055604454613b0b906131eb4282613bc8565b6001600160a01b0385166000818152605c6020908152604080832094909455605b8152908390205483519283529082015281517fa146fc154e1913322e9817d49f0d5c37466c24326e15de10e739a948be815eab929181900390910190a150505050565b600082613b7e57506000611515565b82820282848281613b8b57fe5b0414611dcc5760405162461bcd60e51b815260040180806020018281038252602181526020018061608a6021913960400191505060405180910390fd5b6000611dcc83836040518060400160405280601a81526020017f536166654d6174683a206469766973696f6e206279207a65726f0000000000008152506157d0565b6000818152606260205260409020826133c85760405162461bcd60e51b8152602060048201908152825460026000196101006001841615020190911604602483018190529091829160449091019084908015613ca75780601f10613c7c57610100808354040283529160200191613ca7565b820191906000526020600020905b815481529060010190602001808311613c8a57829003601f168201915b50509250505060405180910390fd5b6001600160a01b03811660008181526053602090815260408083205481516370a0823160e01b8152306004820152915193949093859391926370a08231926024808301939192829003018186803b158015613d1057600080fd5b505afa158015613d24573d6000803e3d6000fd5b505050506040513d6020811015613d3a57600080fd5b50516001600160a01b03851660009081526053602052604090208190559050612f888183614477565b600080613d8061271061150a613d798287614477565b8790613b6f565b90506000613d8e8583614477565b6001600160a01b0387166000908152605e6020526040902054909150613db4908261441d565b6001600160a01b0387166000908152605e60205260409020557f47cd9dda0e50ce30bcaaacd0488452b596221c07ac402a581cfae4d3933cac2b86613df981846114c2565b604080516001600160a01b0390931683526020830191909152818101849052519081900360600190a150949350505050565b6063546040805160208082018890526001600160a01b038781168385015286811660608401528581166080808501919091528451808503909101815260a084018086526301cf3fa560e11b90527f87008d49557b1db2d42ad294851493506570a21fb99391fe0c942062caeb6f5d60a4850181815260c48601968752825160e48701528251939097169663039e7f4a96919592949093919261010401919085019080838360005b83811015613eea578181015183820152602001613ed2565b50505050905090810190601f168015613f175780820380516001836020036101000a031916815260200191505b509350505050600060405180830381600087803b158015613f3757600080fd5b505af1158015613f4b573d6000803e3d6000fd5b5050505050505050565b6001600160a01b038216600090815260556020526040902054613f78908261441d565b6001600160a01b0383166000908152605560209081526040808320939093556056905220548015613fca576001600160a01b038316600090815260556020526040902054613fca908210156033613c0a565b604080516001600160a01b03851681526020810184905281517f64243679a443432e2293343b77d411ff6144370404618f00ca0d2025d9ca9882929181900390910190a1505050565b6001600160a01b03821660009081526055602052604090205481811161408e576001600160a01b0383166000818152605560209081526040808320929092558151928352820183905280517fe1e812596aac93a06ecc4ca627014d18e30f5c33b825160cc9d5c0ba61e452279281900390910190a1506134ab565b6140988183614477565b6001600160a01b03841660008181526055602090815260409182902093909355805191825291810184905281517fe1e812596aac93a06ecc4ca627014d18e30f5c33b825160cc9d5c0ba61e45227929181900390910190a1505050565b6001600160a01b038216600090815260576020526040902054614118908261441d565b6001600160a01b03831660008181526057602090815260408083209490945583516370a0823160e01b8152306004820152935191936370a082319260248083019392829003018186803b15801561416e57600080fd5b505afa158015614182573d6000803e3d6000fd5b505050506040513d602081101561419857600080fd5b50516001600160a01b0384166000908152605760205260409020549091506141c4908210156031613c0a565b604080516001600160a01b03851681526020810184905281517f976177fbe09a15e5e43f848844963a42b41ef919ef17ff21a17a5421de8f4737929181900390910190a1505050565b604080518082018252601a81527f5661756c743a20706f6f6c416d6f756e742065786365656465640000000000006020808301919091526001600160a01b038516600090815260579091529190912054614268918390615872565b6001600160a01b0383166000908152605760209081526040808320849055605890915290205461429b9110156032613c0a565b604080516001600160a01b03841681526020810183905281517f112726233fbeaeed0f5b1dba5cb0b2b81883dee49fb35ff99fd98ed9f6d31eb0929181900390910190a15050565b6001600160a01b0381166000908152605960209081526040808320546057909252909120541015612aa3576040805162461bcd60e51b815260206004820152601a60248201527f5661756c743a20706f6f6c416d6f756e74203c20627566666572000000000000604482015290519081900360640190fd5b61436f6001600160a01b038416828461577e565b604080516370a0823160e01b815230600482015290516001600160a01b038516916370a08231916024808301926020929190829003018186803b1580156143b557600080fd5b505afa1580156143c9573d6000803e3d6000fd5b505050506040513d60208110156143df57600080fd5b50516001600160a01b039093166000908152605360205260409020929092555050565b60385461441b906001600160a01b031633146035613c0a565b565b600082820183811015611dcc576040805162461bcd60e51b815260206004820152601b60248201527f536166654d6174683a206164646974696f6e206f766572666c6f770000000000604482015290519081900360640190fd5b6000611dcc83836040518060400160405280601e81526020017f536166654d6174683a207375627472616374696f6e206f766572666c6f770000815250615872565b6049546144c55761441b565b61441b6049543a11156037613c0a565b336001600160a01b03821614156144eb57612aa3565b6035546001600160a01b031633141561450357612aa3565b6001600160a01b0381166000908152604a60209081526040808320338452909152902054612aa39060ff166029613c0a565b80156145ae5761455a826001600160a01b0316846001600160a01b031614602a613c0a565b6001600160a01b0383166000908152604e60205260409020546145819060ff16602b613c0a565b6001600160a01b0383166000908152605160205260409020546145a99060ff1615602c613c0a565b6133c8565b6001600160a01b0383166000908152604e60205260409020546145d59060ff16602d613c0a565b6001600160a01b0383166000908152605160205260409020546145fc9060ff16602e613c0a565b6001600160a01b0382166000908152605160205260409020546146249060ff1615602f613c0a565b6001600160a01b0382166000908152605260205260409020546133c89060ff166030613c0a565b6033546040805163fdaf6ac360e01b81526001600160a01b038a8116600483015289811660248301528881166044830152871515606483015260848201879052915160009384936301000000909104169163fdaf6ac39160a4808301926020929190829003018186803b1580156146c157600080fd5b505afa1580156146d5573d6000803e3d6000fd5b505050506040513d60208110156146eb57600080fd5b50516033546040805163369d949360e21b81526001600160a01b038d811660048301528c811660248301528b811660448301528a151560648301526084820189905260a48201889052915193945060009363010000009093049091169163da76524c9160c480820192602092909190829003018186803b15801561476e57600080fd5b505afa158015614782573d6000803e3d6000fd5b505050506040513d602081101561479857600080fd5b505190506147a6828261441d565b915060006147b48a84612fa8565b6001600160a01b038b166000908152605e60205260409020549091506147da908261441d565b6001600160a01b038b166000818152605e602090815260409182902093909355805191825291810185905280820183905290517f5d0c0019d3d45fadeb74eff9d2c9924d146d000ac6bcf3c28bf0ac3c9baa011a9181900360600190a150909998505050505050505050565b6063546040805160208082018a90526001600160a01b03898116838501528881166060840152878116608084015286151560a084015285151560c0808501919091528451808503909101815260e084018086526301cf3fa560e11b90527fe98c8a5de82b67c31514e9e116ff978cfc805229e099cb290e6819f915c7eecb60e48501818152610104860196875282516101248701528251939097169663039e7f4a96919592949093919261014401919085019080838360005b838110156149175781810151838201526020016148ff565b50505050905090810190601f1680156149445780820380516001836020036101000a031916815260200191505b509350505050600060405180830381600087803b15801561496457600080fd5b505af1158015614978573d6000803e3d6000fd5b50505050505050505050565b8161499a5761499581156027613c0a565b6134ab565b6134ab818310156028613c0a565b6001600160a01b0382166000908152605860205260409020546149cb908261441d565b6001600160a01b038316600090815260586020818152604080842085905560578252909220549152614a009111156034613c0a565b604080516001600160a01b03841681526020810183905281517faa5649d82f5462be9d19b0f2b31a59b2259950a6076550bac9f3a1c07db9f66d929181900390910190a15050565b6001600160a01b0382166000908152605a6020526040902054614a6b908261441d565b6001600160a01b0383166000818152605a602090815260409182902093909355805191825291810183905281517fd9d4761f75e0d0103b5cbeab941eeb443d7a56a35b5baf2a0787c03f03f4e474929181900390910190a15050565b6001600160a01b0382166000908152605a6020526040902054614aea9082614477565b6001600160a01b0383166000818152605a602090815260409182902093909355805191825291810183905281517f34e07158b9db50df5613e591c44ea2ebc82834eff4a4dc3a46e000e608261d68929181900390910190a15050565b6001600160a01b0382166000908152605f6020526040902054614b69908261441d565b6001600160a01b0383166000908152605f602090815260408083209390935560619052205480156133c8576001600160a01b0383166000908152605f60205260409020548110156133c8576040805162461bcd60e51b815260206004820152601a60248201527f5661756c743a206d61782073686f727473206578636565646564000000000000604482015290519081900360640190fd5b60485462010000900460ff161561441b57336000908152604c602052604090205461441b9060ff166036613c0a565b6000816001600160a01b03166370a08231306040518263ffffffff1660e01b815260040180826001600160a01b0316815260200191505060206040518083038186803b158015614c7f57600080fd5b505afa158015614c93573d6000803e3d6000fd5b505050506040513d6020811015614ca957600080fd5b50516001600160a01b0390921660009081526053602052604090209190915550565b303b1590565b600054610100900460ff1680614cea5750614cea614ccb565b80614cf8575060005460ff16155b614d335760405162461bcd60e51b815260040180806020018281038252602e81526020018061605c602e913960400191505060405180910390fd5b600054610100900460ff16158015614d5e576000805460ff1961ff0019909116610100171660011790555b614d666158cc565b8015612aa3576000805461ff001916905550565b603354604080516381d11a2360e01b81526001600160a01b038a8116600483015289811660248301528881166044830152606482018890526084820187905285151560a483015284811660c4830152915160009363010000009004909216916381d11a239160e4808201928692909190829003018186803b158015614dfe57600080fd5b505afa158015614e12573d6000803e3d6000fd5b50505050614e208787613996565b6000614e2e8989898761199c565b6000818152605d60205260409020805491925090614e4f901515601f613c0a565b614e6186826000015410156020613c0a565b614e7387826001015410156021613c0a565b600181015481546004830154600091614e909161150a908b613b6f565b6004840154909150614ea29082614477565b6004840155614eb18b82615971565b50600080614ec38d8d8d8d8d8d615a28565b8554919350915089146151a1576033546040805163b1cc53ab60e01b81526001600160a01b038f811660048301528e811660248301528b15156044830152915163010000009093049091169163b1cc53ab91606480820192602092909190829003018186803b158015614f3557600080fd5b505afa158015614f49573d6000803e3d6000fd5b505050506040513d6020811015614f5f57600080fd5b505160038501558354614f72908a614477565b8085556001850154614f849190614984565b603360039054906101000a90046001600160a01b03166001600160a01b031663d54d5a9f8e8e8e8c60016040518663ffffffff1660e01b815260040180866001600160a01b03168152602001856001600160a01b03168152602001846001600160a01b031681526020018315158152602001821515815260200195505050505050604080518083038186803b15801561501c57600080fd5b505afa158015615030573d6000803e3d6000fd5b505050506040513d604081101561504657600080fd5b50508715615073576150698c6121d686600101548661447790919063ffffffff16565b6150738c8a614ac7565b600088615088576150838c61369c565b615091565b6150918c612d77565b90507f93d75d64d1f84fc6f430a64fc578bdd4c1e090e90ea2d51773e626d19de56d30868f8f8f8f8f8f886150c68c8c614477565b60408051998a526001600160a01b0398891660208b015296881689880152949096166060880152608087019290925260a0860152151560c085015260e084019290925261010083019190915251908190036101200190a18454600186015460028701546003880154600489015460058a0154604080518d81526020810197909752868101959095526060860193909352608085019190915260a084015260c083015260e08201839052517f20853733b590dce729d9f4628682ebd9a34d2354e72679e66f43a008fc03b773918190036101000190a150615315565b87156151bb576151b18c84614a48565b6151bb8c8a614ac7565b6000886151d0576151cb8c61369c565b6151d9565b6151d98c612d77565b90507f93d75d64d1f84fc6f430a64fc578bdd4c1e090e90ea2d51773e626d19de56d30868f8f8f8f8f8f8861520e8c8c614477565b60408051998a526001600160a01b0398891660208b015296881689880152949096166060880152608087019290925260a0860152151560c085015260e084019290925261010083019190915251908190036101200190a18454600186015460028701546003880154600489015460058a0154604080518d81526020810197909752868101959095526060860193909352608085019190915260a084015260c0830152517f73af1d417d82c240fdb6d319b34ad884487c6bf2845d98980cc52ad9171cb4559181900360e00190a1506000858152605d602052604081208181556001810182905560028101829055600381018290556004810182905560058101829055600601555b61532d6153228383614477565b8e8e8e8c6000614846565b8761533c5761533c8b8a615ccb565b811561537c578715615356576153568c6121fd8e85612fa8565b60006153628d83612fa8565b905061536f8d828a61435b565b9550613685945050505050565b5060009c9b505050505050505050505050565b6048805460ff191690556153a38484613996565b60006153b18686868661199c565b90506153bb615fe9565b506000818152605d6020908152604091829020825160e08101845281548082526001830154938201939093526002820154938101939093526003810154606084015260048101546080840152600581015460a08401526006015460c08301526154279015156023613c0a565b6033546040805163d54d5a9f60e01b81526001600160a01b038a8116600483015289811660248301528881166044830152871515606483015260006084830181905283519094859463010000009091049092169263d54d5a9f9260a4808301939192829003018186803b15801561549d57600080fd5b505afa1580156154b1573d6000803e3d6000fd5b505050506040513d60408110156154c757600080fd5b50805160209091015190925090506154e28215156024613c0a565b8160021415615517576154ff898989600087600001518b8f614d7a565b50506048805460ff1916600117905550615777915050565b60006155238983612fa8565b6001600160a01b038a166000908152605e6020526040902054909150615549908261441d565b6001600160a01b038a166000818152605e602090815260409182902093909355805191825291810184905280820183905290517f5d0c0019d3d45fadeb74eff9d2c9924d146d000ac6bcf3c28bf0ac3c9baa011a9181900360600190a16155b4898560800151615971565b86156155e357602084015184516155d5918b916155d091614477565b614ac7565b6155e3896121fd8b85612fa8565b6000876155f8576155f38961369c565b615601565b61560189612d77565b90507f2e1f85a64a2f22cf2f0c42584e7c919ed4abe8d53675cff0f62bf1e95a1c676f868c8c8c8c8a600001518b602001518c608001518d60a001518a604051808b81526020018a6001600160a01b03168152602001896001600160a01b03168152602001886001600160a01b0316815260200187151581526020018681526020018581526020018481526020018381526020018281526020019a505050505050505050505060405180910390a1871580156156c05750846020015183105b156156ee5760208501516000906156d79085614477565b90506156ec8b6156e78d84612fa8565b6140f5565b505b8761570157615701898660000151615ccb565b6000868152605d60205260408120818155600181018290556002810182905560038101829055600481018290556005810182905560060155603b5461574d908b906121fd908290612fa8565b6157638a61575d8c603b54612fa8565b8961435b565b50506048805460ff19166001179055505050505b5050505050565b604080516001600160a01b038416602482015260448082018490528251808303909101815260649091019091526020810180516001600160e01b031663a9059cbb60e01b1790526133c8908490615d33565b6000818361585c5760405162461bcd60e51b81526004018080602001828103825283818151815260200191508051906020019080838360005b83811015615821578181015183820152602001615809565b50505050905090810190601f16801561584e5780820380516001836020036101000a031916815260200191505b509250505060405180910390fd5b50600083858161586857fe5b0495945050505050565b600081848411156158c45760405162461bcd60e51b8152602060048201818152835160248401528351909283926044909101919085019080838360008315615821578181015183820152602001615809565b505050900390565b600054610100900460ff16806158e557506158e5614ccb565b806158f3575060005460ff16155b61592e5760405162461bcd60e51b815260040180806020018281038252602e81526020018061605c602e913960400191505060405180910390fd5b600054610100900460ff16158015615959576000805460ff1961ff0019909116610100171660011790555b600180558015612aa3576000805461ff001916905550565b604080518082018252601b81527f5661756c743a20696e73756666696369656e74207265736572766500000000006020808301919091526001600160a01b0385166000908152605890915291909120546159cc918390615872565b6001600160a01b03831660008181526058602090815260409182902093909355805191825291810183905281517f533cb5ed32be6a90284e96b5747a1bfc2d38fdb5768a6b5f67ff7d62144ed67b929181900390910190a15050565b6000806000615a398989898761199c565b6000818152605d60205260408120805460038201549394509092615a66918d918d918d918b918d9161464b565b9050600080600080603360039054906101000a90046001600160a01b03166001600160a01b0316635c07eaab8e886000015489600201548e8b600601546040518663ffffffff1660e01b815260040180866001600160a01b03168152602001858152602001848152602001831515815260200182815260200195505050505050604080518083038186803b158015615afd57600080fd5b505afa158015615b11573d6000803e3d6000fd5b505050506040513d6040811015615b2757600080fd5b50805160209091015187549195508593509150615b489061150a8d84613b6f565b925050506000828015615b5b5750600082115b15615b8b5750600584018054820190558088615b8b576000615b7d8e84612fa8565b9050615b898e8261420d565b505b82158015615b995750600082115b15615bdd576001850154615bad9083614477565b600186015588615bd1576000615bc38e84612fa8565b9050615bcf8e826140f5565b505b60058501805483900390555b8a15615c0557615bed818c61441d565b6001860154909150615bff908c614477565b60018601555b84548a1415615c28576001850154615c1e90829061441d565b6000600187015590505b8084811115615c4257615c3b8286614477565b9050615c76565b6001860154615c519086614477565b60018701558915615c76576000615c688f87612fa8565b9050615c748f8261420d565b505b60408051888152851515602082015280820185905290517f3ff41bdde87755b687ae83d0221a232b6be51a803330ed9661c1b5d0105e0d8a9181900360600190a1909e909d509b505050505050505050505050565b6001600160a01b0382166000908152605f602052604090205480821115615d0b57506001600160a01b0382166000908152605f60205260408120556134ab565b615d158183614477565b6001600160a01b0384166000908152605f6020526040902055505050565b6060615d88826040518060400160405280602081526020017f5361666545524332303a206c6f772d6c6576656c2063616c6c206661696c6564815250856001600160a01b0316615de49092919063ffffffff16565b8051909150156133c857808060200190516020811015615da757600080fd5b50516133c85760405162461bcd60e51b815260040180806020018281038252602a8152602001806160ab602a913960400191505060405180910390fd5b6060612f88848460008585615df885615eff565b615e49576040805162461bcd60e51b815260206004820152601d60248201527f416464726573733a2063616c6c20746f206e6f6e2d636f6e7472616374000000604482015290519081900360640190fd5b60006060866001600160a01b031685876040518082805190602001908083835b60208310615e885780518252601f199092019160209182019101615e69565b6001836020036101000a03801982511681845116808217855250505050505090500191505060006040518083038185875af1925050503d8060008114615eea576040519150601f19603f3d011682016040523d82523d6000602084013e615eef565b606091505b5091509150613685828286615f05565b3b151590565b60608315615f14575081611dcc565b825115615f245782518084602001fd5b60405162461bcd60e51b8152602060048201818152845160248401528451859391928392604401919085019080838360008315615821578181015183820152602001615809565b828054600181600116156101000203166002900490600052602060002090601f016020900481019282601f10615fac5782800160ff19823516178555615fd9565b82800160010185558215615fd9579182015b82811115615fd9578235825591602001919060010190615fbe565b50615fe5929150616026565b5090565b6040518060e00160405280600081526020016000815260200160008152602001600081526020016000815260200160008152602001600081525090565b5b80821115615fe5576000815560010161602756fe5265656e7472616e637947756172643a207265656e7472616e742063616c6c00496e697469616c697a61626c653a20636f6e747261637420697320616c726561647920696e697469616c697a6564536166654d6174683a206d756c7469706c69636174696f6e206f766572666c6f775361666545524332303a204552433230206f7065726174696f6e20646964206e6f742073756363656564a2646970667358221220fb0950ebe698ec218beb21d9424b8e3e3a434cad0f186926dcf13c6517db3cd564736f6c634300060c0033",
  "linkReferences": {},
  "deployedLinkReferences": {}
}