{
  "_format": "hh-sol-artifact-1",
  "contractName": "VaultUtils",
  "sourceName": "contracts/core/VaultUtils.sol",
  "abi": [
    {
      "inputs": [
        {
          "internalType": "contract IVault",
          "name": "_vault",
          "type": "address"
        }
      ],
      "stateMutability": "nonpayable",
      "type": "constructor"
    },
    {
      "inputs": [],
      "name": "BASIS_POINTS_DIVISOR",
      "outputs": [
        {
          "internalType": "uint256",
          "name": "",
          "type": "uint256"
        }
      ],
      "stateMutability": "view",
      "type": "function"
    },
    {
      "inputs": [],
      "name": "FUNDING_RATE_PRECISION",
      "outputs": [
        {
          "internalType": "uint256",
          "name": "",
          "type": "uint256"
        }
      ],
      "stateMutability": "view",
      "type": "function"
    },
    {
      "inputs": [],
      "name": "MAX_WITHDRAWAL_COOLDOWN_DURATION",
      "outputs": [
        {
          "internalType": "uint256",
          "name": "",
          "type": "uint256"
        }
      ],
      "stateMutability": "view",
      "type": "function"
    },
    {
      "inputs": [],
      "name": "MIN_LEVERAGE_CAP",
      "outputs": [
        {
          "internalType": "uint256",
          "name": "",
          "type": "uint256"
        }
      ],
      "stateMutability": "view",
      "type": "function"
    },
    {
      "inputs": [
        {
          "internalType": "address",
          "name": "_token",
          "type": "address"
        },
        {
          "internalType": "uint256",
          "name": "_usdgAmount",
          "type": "uint256"
        }
      ],
      "name": "getBuyUsdgFeeBasisPoints",
      "outputs": [
        {
          "internalType": "uint256",
          "name": "",
          "type": "uint256"
        }
      ],
      "stateMutability": "view",
      "type": "function"
    },
    {
      "inputs": [
        {
          "internalType": "address",
          "name": "_collateralToken",
          "type": "address"
        },
        {
          "internalType": "address",
          "name": "",
          "type": "address"
        },
        {
          "internalType": "bool",
          "name": "",
          "type": "bool"
        }
      ],
      "name": "getEntryFundingRate",
      "outputs": [
        {
          "internalType": "uint256",
          "name": "",
          "type": "uint256"
        }
      ],
      "stateMutability": "view",
      "type": "function"
    },
    {
      "inputs": [
        {
          "internalType": "address",
          "name": "_token",
          "type": "address"
        },
        {
          "internalType": "uint256",
          "name": "_usdgDelta",
          "type": "uint256"
        },
        {
          "internalType": "uint256",
          "name": "_feeBasisPoints",
          "type": "uint256"
        },
        {
          "internalType": "uint256",
          "name": "_taxBasisPoints",
          "type": "uint256"
        },
        {
          "internalType": "bool",
          "name": "_increment",
          "type": "bool"
        }
      ],
      "name": "getFeeBasisPoints",
      "outputs": [
        {
          "internalType": "uint256",
          "name": "",
          "type": "uint256"
        }
      ],
      "stateMutability": "view",
      "type": "function"
    },
    {
      "inputs": [
        {
          "internalType": "address",
          "name": "",
          "type": "address"
        },
        {
          "internalType": "address",
          "name": "_collateralToken",
          "type": "address"
        },
        {
          "internalType": "address",
          "name": "",
          "type": "address"
        },
        {
          "internalType": "bool",
          "name": "",
          "type": "bool"
        },
        {
          "internalType": "uint256",
          "name": "_size",
          "type": "uint256"
        },
        {
          "internalType": "uint256",
          "name": "_entryFundingRate",
          "type": "uint256"
        }
      ],
      "name": "getFundingFee",
      "outputs": [
        {
          "internalType": "uint256",
          "name": "",
          "type": "uint256"
        }
      ],
      "stateMutability": "view",
      "type": "function"
    },
    {
      "inputs": [
        {
          "internalType": "address",
          "name": "",
          "type": "address"
        },
        {
          "internalType": "address",
          "name": "",
          "type": "address"
        },
        {
          "internalType": "address",
          "name": "",
          "type": "address"
        },
        {
          "internalType": "bool",
          "name": "",
          "type": "bool"
        },
        {
          "internalType": "uint256",
          "name": "_sizeDelta",
          "type": "uint256"
        }
      ],
      "name": "getPositionFee",
      "outputs": [
        {
          "internalType": "uint256",
          "name": "",
          "type": "uint256"
        }
      ],
      "stateMutability": "view",
      "type": "function"
    },
    {
      "inputs": [
        {
          "internalType": "address",
          "name": "_token",
          "type": "address"
        },
        {
          "internalType": "uint256",
          "name": "_usdgAmount",
          "type": "uint256"
        }
      ],
      "name": "getSellUsdgFeeBasisPoints",
      "outputs": [
        {
          "internalType": "uint256",
          "name": "",
          "type": "uint256"
        }
      ],
      "stateMutability": "view",
      "type": "function"
    },
    {
      "inputs": [
        {
          "internalType": "address",
          "name": "_tokenIn",
          "type": "address"
        },
        {
          "internalType": "address",
          "name": "_tokenOut",
          "type": "address"
        },
        {
          "internalType": "uint256",
          "name": "_usdgAmount",
          "type": "uint256"
        }
      ],
      "name": "getSwapFeeBasisPoints",
      "outputs": [
        {
          "internalType": "uint256",
          "name": "",
          "type": "uint256"
        }
      ],
      "stateMutability": "view",
      "type": "function"
    },
    {
      "inputs": [],
      "name": "gov",
      "outputs": [
        {
          "internalType": "address",
          "name": "",
          "type": "address"
        }
      ],
      "stateMutability": "view",
      "type": "function"
    },
    {
      "inputs": [],
      "name": "minLeverage",
      "outputs": [
        {
          "internalType": "uint256",
          "name": "",
          "type": "uint256"
        }
      ],
      "stateMutability": "view",
      "type": "function"
    },
    {
      "inputs": [
        {
          "internalType": "address",
          "name": "_gov",
          "type": "address"
        }
      ],
      "name": "setGov",
      "outputs": [],
      "stateMutability": "nonpayable",
      "type": "function"
    },
    {
      "inputs": [
        {
          "internalType": "uint256",
          "name": "_minLeverage",
          "type": "uint256"
        }
      ],
      "name": "setMinLeverage",
      "outputs": [],
      "stateMutability": "nonpayable",
      "type": "function"
    },
    {
      "inputs": [
        {
          "internalType": "uint256",
          "name": "_withdrawalCooldownDuration",
          "type": "uint256"
        }
      ],
      "name": "setWithdrawalCooldownDuration",
      "outputs": [],
      "stateMutability": "nonpayable",
      "type": "function"
    },
    {
      "inputs": [
        {
          "internalType": "address",
          "name": "",
          "type": "address"
        },
        {
          "internalType": "address",
          "name": "",
          "type": "address"
        }
      ],
      "name": "updateCumulativeFundingRate",
      "outputs": [
        {
          "internalType": "bool",
          "name": "",
          "type": "bool"
        }
      ],
      "stateMutability": "nonpayable",
      "type": "function"
    },
    {
      "inputs": [
        {
          "internalType": "address",
          "name": "_account",
          "type": "address"
        },
        {
          "internalType": "address",
          "name": "_collateralToken",
          "type": "address"
        },
        {
          "internalType": "address",
          "name": "_indexToken",
          "type": "address"
        },
        {
          "internalType": "uint256",
          "name": "_collateralDelta",
          "type": "uint256"
        },
        {
          "internalType": "uint256",
          "name": "_sizeDelta",
          "type": "uint256"
        },
        {
          "internalType": "bool",
          "name": "_isLong",
          "type": "bool"
        },
        {
          "internalType": "address",
          "name": "",
          "type": "address"
        }
      ],
      "name": "validateDecreasePosition",
      "outputs": [],
      "stateMutability": "view",
      "type": "function"
    },
    {
      "inputs": [
        {
          "internalType": "address",
          "name": "_account",
          "type": "address"
        },
        {
          "internalType": "address",
          "name": "_collateralToken",
          "type": "address"
        },
        {
          "internalType": "address",
          "name": "_indexToken",
          "type": "address"
        },
        {
          "internalType": "uint256",
          "name": "_sizeDelta",
          "type": "uint256"
        },
        {
          "internalType": "bool",
          "name": "_isLong",
          "type": "bool"
        }
      ],
      "name": "validateIncreasePosition",
      "outputs": [],
      "stateMutability": "view",
      "type": "function"
    },
    {
      "inputs": [
        {
          "internalType": "address",
          "name": "_account",
          "type": "address"
        },
        {
          "internalType": "address",
          "name": "_collateralToken",
          "type": "address"
        },
        {
          "internalType": "address",
          "name": "_indexToken",
          "type": "address"
        },
        {
          "internalType": "bool",
          "name": "_isLong",
          "type": "bool"
        },
        {
          "internalType": "bool",
          "name": "_raise",
          "type": "bool"
        }
      ],
      "name": "validateLiquidation",
      "outputs": [
        {
          "internalType": "uint256",
          "name": "",
          "type": "uint256"
        },
        {
          "internalType": "uint256",
          "name": "",
          "type": "uint256"
        }
      ],
      "stateMutability": "view",
      "type": "function"
    },
    {
      "inputs": [],
      "name": "vault",
      "outputs": [
        {
          "internalType": "contract IVault",
          "name": "",
          "type": "address"
        }
      ],
      "stateMutability": "view",
      "type": "function"
    },
    {
      "inputs": [],
      "name": "withdrawalCooldownDuration",
      "outputs": [
        {
          "internalType": "uint256",
          "name": "",
          "type": "uint256"
        }
      ],
      "stateMutability": "view",
      "type": "function"
    }
  ],
  "bytecode": "0x608060405260006002556161a860035534801561001b57600080fd5b50604051611d2a380380611d2a8339818101604052602081101561003e57600080fd5b5051600080546001600160a01b03199081163317909155600180546001600160a01b0390931692909116919091179055611cad8061007d6000396000f3fe608060405234801561001057600080fd5b50600436106101425760003560e01c8063b1cc53ab116100b8578063da76524c1161007c578063da76524c146103d8578063eb0835bf14610422578063f251ec611461044e578063fbfa77cf14610456578063fbfded6d1461045e578063fdaf6ac3146104a057610142565b8063b1cc53ab146102a5578063c7e074c3146102dd578063cfad57a21461031d578063d54d5a9f14610343578063da133816146103a257610142565b806370c349f81161010a57806370c349f8146101c15780637c549291146101c957806381d11a23146101d15780638b71a7f8146102275780639d5c28fa14610244578063a54892971461028857610142565b8063126082cf1461014757806312d43a511461016157806320f6f76f146101855780634adeddc61461018d5780636be6026b146101b9575b600080fd5b61014f6104e4565b60408051918252519081900360200190f35b6101696104ea565b604080516001600160a01b039092168252519081900360200190f35b61014f6104f9565b61014f600480360360408110156101a357600080fd5b506001600160a01b0381351690602001356104ff565b61014f610601565b61014f610608565b61014f61060f565b610225600480360360e08110156101e757600080fd5b506001600160a01b0381358116916020810135821691604082013581169160608101359160808201359160a081013515159160c09091013516610616565b005b6102256004803603602081101561023d57600080fd5b503561076e565b610225600480360360a081101561025a57600080fd5b506001600160a01b03813581169160208101358216916040820135169060608101359060800135151561080c565b6102256004803603602081101561029e57600080fd5b5035610a62565b61014f600480360360608110156102bb57600080fd5b506001600160a01b038135811691602081013590911690604001351515610b00565b61014f600480360360a08110156102f357600080fd5b506001600160a01b0381351690602081013590604081013590606081013590608001351515610b85565b6102256004803603602081101561033357600080fd5b50356001600160a01b0316610e13565b610389600480360360a081101561035957600080fd5b506001600160a01b0381358116916020810135821691604082013516906060810135151590608001351515610e8c565b6040805192835260208301919091528051918290030190f35b61014f600480360360608110156103b857600080fd5b506001600160a01b03813581169160208101359091169060400135611256565b61014f600480360360c08110156103ee57600080fd5b506001600160a01b038135811691602081013582169160408201351690606081013515159060808101359060a0013561159a565b61014f6004803603604081101561043857600080fd5b506001600160a01b038135169060200135611660565b61014f611759565b61016961175f565b61048c6004803603604081101561047457600080fd5b506001600160a01b038135811691602001351661176e565b604080519115158252519081900360200190f35b61014f600480360360a08110156104b657600080fd5b506001600160a01b038135811691602081013582169160408201351690606081013515159060800135611776565b61271081565b6000546001600160a01b031681565b60035481565b60006105f88383600160009054906101000a90046001600160a01b03166001600160a01b0316634d47b3046040518163ffffffff1660e01b815260040160206040518083038186803b15801561055457600080fd5b505afa158015610568573d6000803e3d6000fd5b505050506040513d602081101561057e57600080fd5b505160015460408051637a210a2b60e01b815290516001600160a01b0390921691637a210a2b91600480820192602092909190829003018186803b1580156105c557600080fd5b505afa1580156105d9573d6000803e3d6000fd5b505050506040513d60208110156105ef57600080fd5b50516001610b85565b90505b92915050565b620f424081565b62278d0081565b620186a081565b61061e611b73565b61062a88888886611834565b80519091501580159061063d5750805184105b15610764576000426002548360c0015101119050600061067a8360200151610674612710866000015161194090919063ffffffff16565b90611999565b835190915060009061068c90886119db565b905060006106a78986602001516119db90919063ffffffff16565b905060006106bb826106748561270f611940565b9050600354811015610714576040805162461bcd60e51b815260206004820152601f60248201527f5661756c745574696c733a206c6576657261676520697320746f6f206c6f7700604482015290519081900360640190fd5b8381118580156107215750805b1561075d5760405162461bcd60e51b815260040180806020018281038252602c815260200180611c06602c913960400191505060405180910390fd5b5050505050505b5050505050505050565b6000546001600160a01b031633146107c5576040805162461bcd60e51b815260206004820152601560248201527423b7bb32b93730b136329d103337b93134b23232b760591b604482015290519081900360640190fd5b62278d008111156108075760405162461bcd60e51b815260040180806020018281038252602c815260200180611bb1602c913960400191505060405180910390fd5b600255565b610814611b73565b61082086868685611834565b6001546040805163523fba7f60e01b81526001600160a01b0389811660048301529151939450600093919092169163523fba7f916024808301926020929190829003018186803b15801561087357600080fd5b505afa158015610887573d6000803e3d6000fd5b505050506040513d602081101561089d57600080fd5b5051600154604080516370a0823160e01b81526001600160a01b0392831660048201529051929350600092918916916370a0823191602480820192602092909190829003018186803b1580156108f257600080fd5b505afa158015610906573d6000803e3d6000fd5b505050506040513d602081101561091c57600080fd5b50519050600061092c82846119db565b60015460408051630a48d5a960e01b81526001600160a01b038c811660048301526024820185905291519394506000939190921691630a48d5a9916044808301926020929190829003018186803b15801561098657600080fd5b505afa15801561099a573d6000803e3d6000fd5b505050506040513d60208110156109b057600080fd5b505185519091506000906109c49089611a1d565b905060006109df838860200151611a1d90919063ffffffff16565b90508015610a545760006109f98261067485612711611940565b9050600354811015610a52576040805162461bcd60e51b815260206004820152601f60248201527f5661756c745574696c733a206c6576657261676520697320746f6f206c6f7700604482015290519081900360640190fd5b505b505050505050505050505050565b6000546001600160a01b03163314610ab9576040805162461bcd60e51b815260206004820152601560248201527423b7bb32b93730b136329d103337b93134b23232b760591b604482015290519081900360640190fd5b620186a0811115610afb5760405162461bcd60e51b8152600401808060200182810382526025815260200180611c326025913960400191505060405180910390fd5b600355565b6001546040805163c65bc7b160e01b81526001600160a01b0386811660048301529151600093929092169163c65bc7b191602480820192602092909190829003018186803b158015610b5157600080fd5b505afa158015610b65573d6000803e3d6000fd5b505050506040513d6020811015610b7b57600080fd5b5051949350505050565b60015460408051639f392eb360e01b815290516000926001600160a01b031691639f392eb3916004808301926020929190829003018186803b158015610bca57600080fd5b505afa158015610bde573d6000803e3d6000fd5b505050506040513d6020811015610bf457600080fd5b5051610c01575082610e0a565b60015460408051631aa4ace560e01b81526001600160a01b03898116600483015291516000939290921691631aa4ace591602480820192602092909190829003018186803b158015610c5257600080fd5b505afa158015610c66573d6000803e3d6000fd5b505050506040513d6020811015610c7c57600080fd5b505190506000610c8c8288611a1d565b905083610caf57818711610ca957610ca482886119db565b610cac565b60005b90505b60015460408051633a05dcc160e01b81526001600160a01b038b8116600483015291516000939290921691633a05dcc191602480820192602092909190829003018186803b158015610d0057600080fd5b505afa158015610d14573d6000803e3d6000fd5b505050506040513d6020811015610d2a57600080fd5b5051905080610d3e57869350505050610e0a565b6000818411610d5657610d5182856119db565b610d60565b610d6084836119db565b90506000828411610d7a57610d7583856119db565b610d84565b610d8484846119db565b905081811015610dc6576000610d9e846106748b86611940565b9050898111610db657610db18a826119db565b610db9565b60005b9650505050505050610e0a565b6000610dd760026106748585611a1d565b905083811115610de45750825b6000610df4856106748c85611940565b9050610e008b82611a1d565b9750505050505050505b95945050505050565b6000546001600160a01b03163314610e6a576040805162461bcd60e51b815260206004820152601560248201527423b7bb32b93730b136329d103337b93134b23232b760591b604482015290519081900360640190fd5b600080546001600160a01b0319166001600160a01b0392909216919091179055565b600080610e97611b73565b610ea388888888611834565b600154815160408084015160c08501518251635c07eaab60e01b81526001600160a01b038d81166004830152602482019590955260448101929092528a1515606483015260848201528151949550919092169260009283928592635c07eaab9260a480840193919291829003018186803b158015610f2057600080fd5b505afa158015610f34573d6000803e3d6000fd5b505050506040513d6040811015610f4a57600080fd5b50805160209091015185516060870151929450909250600091610f75918e918e918e918e919061159a565b9050610f92610f8b8d8d8d8d8a60000151611776565b8290611a1d565b905082158015610fa55750818560200151105b1561100d578715610ffd576040805162461bcd60e51b815260206004820152601f60248201527f5661756c743a206c6f737365732065786365656420636f6c6c61746572616c00604482015290519081900360640190fd5b60019650945061124c9350505050565b60208501518361102957602086015161102690846119db565b90505b81811015611095578815611084576040805162461bcd60e51b815260206004820152601d60248201527f5661756c743a20666565732065786365656420636f6c6c61746572616c000000604482015290519081900360640190fd5b60019750955061124c945050505050565b611104856001600160a01b031663174d26946040518163ffffffff1660e01b815260040160206040518083038186803b1580156110d157600080fd5b505afa1580156110e5573d6000803e3d6000fd5b505050506040513d60208110156110fb57600080fd5b50518390611a1d565b8110156111595788156111485760405162461bcd60e51b8152600401808060200182810382526029815260200180611bdd6029913960400191505060405180910390fd5b5060019650945061124c9350505050565b855161116790612710611940565b6111d6866001600160a01b031663ae3302c26040518163ffffffff1660e01b815260040160206040518083038186803b1580156111a357600080fd5b505afa1580156111b7573d6000803e3d6000fd5b505050506040513d60208110156111cd57600080fd5b50518390611940565b101561124057881561122f576040805162461bcd60e51b815260206004820152601b60248201527f5661756c743a206d61784c657665726167652065786365656465640000000000604482015290519081900360640190fd5b5060029650945061124c9350505050565b50600096509450505050505b9550959350505050565b600154604080516342b60b0360e01b81526001600160a01b0386811660048301529151600093849316916342b60b03916024808301926020929190829003018186803b1580156112a557600080fd5b505afa1580156112b9573d6000803e3d6000fd5b505050506040513d60208110156112cf57600080fd5b505180156113525750600154604080516342b60b0360e01b81526001600160a01b038781166004830152915191909216916342b60b03916024808301926020929190829003018186803b15801561132557600080fd5b505afa158015611339573d6000803e3d6000fd5b505050506040513d602081101561134f57600080fd5b50515b90506000816113da57600160009054906101000a90046001600160a01b03166001600160a01b031663a22f23926040518163ffffffff1660e01b815260040160206040518083038186803b1580156113a957600080fd5b505afa1580156113bd573d6000803e3d6000fd5b505050506040513d60208110156113d357600080fd5b5051611455565b600160009054906101000a90046001600160a01b03166001600160a01b031663df73a2676040518163ffffffff1660e01b815260040160206040518083038186803b15801561142857600080fd5b505afa15801561143c573d6000803e3d6000fd5b505050506040513d602081101561145257600080fd5b50515b90506000826114dd57600160009054906101000a90046001600160a01b03166001600160a01b0316637a210a2b6040518163ffffffff1660e01b815260040160206040518083038186803b1580156114ac57600080fd5b505afa1580156114c0573d6000803e3d6000fd5b505050506040513d60208110156114d657600080fd5b5051611558565b600160009054906101000a90046001600160a01b03166001600160a01b03166310eb56c26040518163ffffffff1660e01b815260040160206040518083038186803b15801561152b57600080fd5b505afa15801561153f573d6000803e3d6000fd5b505050506040513d602081101561155557600080fd5b50515b9050600061156a888785856001610b85565b9050600061157c888886866000610b85565b905080821161158b578061158d565b815b9998505050505050505050565b6000826115a957506000611656565b6001546040805163c65bc7b160e01b81526001600160a01b038981166004830152915160009361163093879391169163c65bc7b191602480820192602092909190829003018186803b1580156115fe57600080fd5b505afa158015611612573d6000803e3d6000fd5b505050506040513d602081101561162857600080fd5b5051906119db565b905080611641576000915050611656565b611652620f42406106748684611940565b9150505b9695505050505050565b60006105f88383600160009054906101000a90046001600160a01b03166001600160a01b0316634d47b3046040518163ffffffff1660e01b815260040160206040518083038186803b1580156116b557600080fd5b505afa1580156116c9573d6000803e3d6000fd5b505050506040513d60208110156116df57600080fd5b505160015460408051637a210a2b60e01b815290516001600160a01b0390921691637a210a2b91600480820192602092909190829003018186803b15801561172657600080fd5b505afa15801561173a573d6000803e3d6000fd5b505050506040513d602081101561175057600080fd5b50516000610b85565b60025481565b6001546001600160a01b031681565b600192915050565b60008161178557506000610e0a565b600061181d612710610674611816600160009054906101000a90046001600160a01b03166001600160a01b031663318bc6896040518163ffffffff1660e01b815260040160206040518083038186803b1580156117e157600080fd5b505afa1580156117f5573d6000803e3d6000fd5b505050506040513d602081101561180b57600080fd5b5051612710906119db565b8690611940565b905061182983826119db565b979650505050505050565b61183c611b73565b6001546001600160a01b0316611850611b73565b6000806000806000866001600160a01b0316634a3f088d8d8d8d8d6040518563ffffffff1660e01b815260040180856001600160a01b03168152602001846001600160a01b03168152602001836001600160a01b0316815260200182151581526020019450505050506101006040518083038186803b1580156118d257600080fd5b505afa1580156118e6573d6000803e3d6000fd5b505050506040513d6101008110156118fd57600080fd5b50805160208083015160408085015160608087015160e090970151958d52938c01929092528a015288019190915260c087015250939a9950505050505050505050565b60008261194f575060006105fb565b8282028284828161195c57fe5b04146105f85760405162461bcd60e51b8152600401808060200182810382526021815260200180611c576021913960400191505060405180910390fd5b60006105f883836040518060400160405280601a81526020017f536166654d6174683a206469766973696f6e206279207a65726f000000000000815250611a77565b60006105f883836040518060400160405280601e81526020017f536166654d6174683a207375627472616374696f6e206f766572666c6f770000815250611b19565b6000828201838110156105f8576040805162461bcd60e51b815260206004820152601b60248201527f536166654d6174683a206164646974696f6e206f766572666c6f770000000000604482015290519081900360640190fd5b60008183611b035760405162461bcd60e51b81526004018080602001828103825283818151815260200191508051906020019080838360005b83811015611ac8578181015183820152602001611ab0565b50505050905090810190601f168015611af55780820380516001836020036101000a031916815260200191505b509250505060405180910390fd5b506000838581611b0f57fe5b0495945050505050565b60008184841115611b6b5760405162461bcd60e51b8152602060048201818152835160248401528351909283926044909101919085019080838360008315611ac8578181015183820152602001611ab0565b505050900390565b6040518060e0016040528060008152602001600081526020016000815260200160008152602001600081526020016000815260200160008152509056fe5661756c745574696c733a204d6178207769746864726177616c20636f6f6c646f776e206475726174696f6e5661756c743a206c69717569646174696f6e20666565732065786365656420636f6c6c61746572616c5661756c745574696c733a20636f6f6c646f776e206475726174696f6e206e6f7420796574207061737365645661756c745574696c733a204d696e206c6576657261676520636170206578636565646564536166654d6174683a206d756c7469706c69636174696f6e206f766572666c6f77a2646970667358221220aa1ea49c437bb959b60d68a06fd52113a41f2023cc70453343fd015dff27790d64736f6c634300060c0033",
  "linkReferences": {},
  "deployedLinkReferences": {}
}